:100000000C942A000C943F000C943F000C943F0089
:100010000C943F000C943F000C943F000C943F0064
:100020000C943F000C943F000C943F000C943F0054
:100030000C943F000C943F000C943F000C943F0044
:100040000C943F000C943F000C943F000C943F0034
:100050000C943F0011241FBECFE5D8E0DEBFCDBF1A
:1000600011E0A0E6B0E0E0EEF4E402C005900D92ED
:10007000A83AB107D9F70E947F200C946E220C9405
:100080000000EF92FF920F931F937B018C0120E001
:1000900030E040E05FE40E94ED0388238CF0C8016B
:1000A000B70120E030E040E05FE40E94B9010E9427
:1000B0004D049B01AC01205030404040504806C0E8
:1000C000C801B7010E944D049B01AC01B901CA01EE
:1000D0001F910F91FF90EF900895A0E0B0E0E3E74B
:1000E000F0E00C943722DC012B01FA019C91923054
:1000F00008F439C1EB018881823008F433C19430AF
:1001000069F4843009F02FC111969C91119789816F
:10011000981709F428C1A0E6B0E025C1843009F49D
:1001200021C18230A9F4923009F01DC19A01AD01BC
:1001300088E0EA010990AE01E90109929E0181502F
:10014000C1F7E201898111969C918923818308C1BD
:10015000923009F407C112962D903C901397EB0151
:100160008A819B811496AD90BD90CD90DC901797BD
:10017000EC80FD800E811F819101281B390BB90194
:1001800037FF04C066277727621B730B6032710547
:100190000CF061C0121613066CF537014801062EEB
:1001A00004C096948794779467940A94D2F721E0D8
:1001B00030E040E050E004C0220F331F441F551FC1
:1001C0006A95D2F721503040404050402E213F21C7
:1001D00040235123211531054105510521F021E02E
:1001E00030E040E050E079018A01E628F72808294C
:1001F00019293CC0232BD1F1260E371E35014601AB
:10020000062E04C096948794779467940A94D2F744
:1002100021E030E040E050E004C0220F331F441FD3
:10022000551F6A95D2F721503040404050402A2156
:100230003B214C215D21211531054105510521F05E
:1002400021E030E040E050E059016A01A628B728DB
:10025000C828D9280BC0821593052CF01C01AA24AC
:10026000BB24650103C0EE24FF24870111969C91F5
:10027000D20111968C91981709F445C0992339F051
:10028000A80197012A193B094C095D0906C0A6017E
:1002900095012E193F09400B510B57FD08C01182E3
:1002A0003382228224833583468357831DC081E0B5
:1002B00081833382228288279927DC01821B930B5A
:1002C000A40BB50B84839583A683B7830DC0220F3F
:1002D000331F441F551F24833583468357838281F0
:1002E000938101979383828324813581468157814D
:1002F000DA01C9010197A109B1098F5F9F4FAF4F83
:10030000BF4328F30BC0918333822282EA0CFB1C8B
:100310000C1D1D1DE482F5820683178383E0808314
:10032000248135814681578157FF1AC0C901AA2708
:1003300097FDA095BA2F81709070A070B0705695FF
:10034000479537952795822B932BA42BB52B848328
:100350009583A683B7838281938101969383828359
:10036000DF0101C0D201CD01CDB7DEB7E2E10C94CF
:100370005322A0E2B0E0EFEBF1E00C94432269835A
:100380007A838B839C832D833E834F835887E9E058
:10039000EE2EF12CEC0EFD1ECE010196B7010E944F
:1003A0003E068E010F5E1F4FCE010596B8010E94DA
:1003B0003E068A8991E089278A8BC701B801AE0180
:1003C000475E5F4F0E946D000E946905A096E6E0BF
:1003D0000C945F22A0E2B0E0E0EFF1E00C94432245
:1003E00069837A838B839C832D833E834F835887D5
:1003F000F9E0EF2EF12CEC0EFD1ECE010196B701B7
:100400000E943E068E010F5E1F4FCE010596B80179
:100410000E943E06C701B801AE01475E5F4F0E94D1
:100420006D000E946905A096E6E00C945F22A0E2B0
:10043000B0E0EDE1F2E00C94372269837A838B839C
:100440009C832D833E834F835887CE010196BE0146
:10045000675F7F4F0E943E06CE010596BE016F5E2C
:100460007F4F0E943E069985923088F089898230BC
:10047000C8F0943019F4823051F404C0843029F467
:10048000923081F480E690E0C6C0923049F420E0DA
:100490009A858A89981321E02A87CE010996BBC0E4
:1004A000823049F420E09A858A89981321E02A8BCA
:1004B000CE014196B0C02D843E844F8458886D880B
:1004C0007E888F88988CEE24FF248701AA24BB2481
:1004D000650140E050E060E070E0E0E0F0E0C10184
:1004E00081709070892BE9F0E60CF71C081D191D2E
:1004F0009A01AB012A0D3B1D4C1D5D1D80E090E073
:10050000A0E0B0E0E614F7040805190520F481E046
:1005100090E0A0E0B0E0BA01A901480F591F6A1F9E
:100520007B1FAA0CBB1CCC1CDD1C97FE08C081E005
:1005300090E0A0E0B0E0A82AB92ACA2ADB2A3196C6
:10054000E032F10549F0660C771C881C991C569422
:10055000479437942794C3CFFA85EA892B893C893D
:100560008B859C85280F391F2E5F3F4F17C0CA010E
:1005700081709070892B61F016950795F794E79438
:1005800080E090E0A0E0B0E8E82AF92A0A2B1B2BD3
:1005900076956795579547952F5F3F4F77FDE7CF46
:1005A0000CC0440F551F661F771F17FD4160EE0CEE
:1005B000FF1C001F111F21503040403090E05907B0
:1005C00090E0690790E4790760F32B8F3C8FDB01A3
:1005D000CA018F779070A070B07080349105A1052A
:1005E000B10561F447FD0AC0E114F10401051105EC
:1005F00029F0405C5F4F6F4F7F4F40781A8EFE1797
:1006000011F081E08A8F4D8F5E8F6F8F78A383E02A
:10061000898FCE0149960E946905A096E2E10C946B
:100620005322A8E1B0E0E7E1F3E00C943F226983B4
:100630007A838B839C832D833E834F835887B9E0D5
:10064000EB2EF12CEC0EFD1ECE010196B7010E949F
:100650003E068E010F5E1F4FCE010596B8010E9427
:100660003E062985223008F47EC03989323010F4E4
:10067000B8017CC08A859A8989278A87243011F03D
:10068000223031F4231709F06EC060E670E06EC0CE
:10069000343039F41D861E861F86188A1C861B86F8
:1006A00004C0323021F484E08987B7015FC02B8514
:1006B0003C858B899C89281B390B3C872B87ED84D3
:1006C000FE840F851889AD88BE88CF88D88CEA143F
:1006D000FB040C051D0540F4EE0CFF1C001F111F50
:1006E000215030403C872B8720E030E040E050E054
:1006F00080E090E0A0E0B0E460E070E0EA14FB0489
:100700000C051D0540F0282B392B4A2B5B2BEA18D2
:10071000FB080C091D09B695A79597958795EE0CD2
:10072000FF1C001F111F6F5F7F4F6F31710531F785
:10073000DA01C9018F779070A070B0708034910594
:10074000A105B10561F427FD0AC0E114F10401051A
:10075000110529F0205C3F4F4F4F5F4F20782D87C8
:100760003E874F87588BBE01675F7F4FCB010E944A
:1007700069056896EAE00C945B22A8E1B0E0E3EC3E
:10078000F3E00C94432269837A838B839C832D83CB
:100790003E834F83588789E0E82EF12CEC0EFD1E36
:1007A000CE010196B7010E943E068E010F5E1F4FDB
:1007B000CE010596B8010E943E068985823040F040
:1007C0008989823028F0C701B8010E94B60601C0AD
:1007D0008FEF6896E6E00C945F22A8E1B0E0E3EFCB
:1007E000F3E00C94432269837A838B839C832D836B
:1007F0003E834F83588789E0E82EF12CEC0EFD1ED6
:10080000CE010196B7010E943E068E010F5E1F4F7A
:10081000CE010596B8010E943E068985823040F0DF
:100820008989823028F0C701B8010E94B60601C04C
:100830008FEF6896E6E00C945F22A8E1B0E0E3E277
:10084000F4E00C94432269837A838B839C832D8309
:100850003E834F83588789E0E82EF12CEC0EFD1E75
:10086000CE010196B7010E943E068E010F5E1F4F1A
:10087000CE010596B8010E943E068985823040F07F
:100880008989823028F0C701B8010E94B60601C0EC
:1008900081E06896E6E00C945F22ACE0B0E0E3E52E
:1008A000F4E00C94472269837A838B839C83CE0186
:1008B0000196BE016B5F7F4F0E943E068D818230A4
:1008C00061F1823050F1843021F48E81882351F11E
:1008D0002EC02F81388537FD20C06E812F31310524
:1008E0001CF06623F9F023C08EE190E0821B930B8D
:1008F00029853A854B855C8504C056954795379583
:1009000027958A95D2F76623B1F05095409530959A
:1009100021953F4F4F4F5F4F0EC020E030E040E049
:1009200050E009C02FEF3FEF4FEF5FE704C020E03A
:1009300030E040E050E8B901CA012C96E2E00C94A6
:100940006322A8E0B0E0E7EAF4E00C943F227B01E8
:100950008C01611571058105910519F482E0898387
:1009600060C083E089838EE1C82ED12CDC82CB82EB
:10097000ED82FE820F831887C801B7010E941A0515
:10098000FC013197F7FF3BC0222733272E1B3F0B7B
:1009900057016801022E04C0D694C794B794A79457
:1009A0000A94D2F740E050E060E070E081E090E02F
:1009B000A0E0B0E004C0880F991FAA1FBB1F2A95B2
:1009C000D2F70197A109B1098E219F21A023B1235C
:1009D0000097A105B10521F041E050E060E070E032
:1009E0004A295B296C297D294D835E836F83788733
:1009F0008EE190E08E1B9F0B9C838B8312C03097FF
:100A000081F00E2E04C0EE0CFF1C001F111F0A9473
:100A1000D2F7ED82FE820F831887CE1ADF0ADC82BE
:100A2000CB821A82CE0101960E9469052896EAE0DF
:100A30000C945B22EF92FF920F931F937B018C012A
:100A400080E0E81680E0F80681E0080780E01807FB
:100A500088F48FEFE816F1040105110531F028F054
:100A600088E090E0A0E0B0E017C080E090E0A0E077
:100A7000B0E012C080E0E81680E0F80680E00807E9
:100A800081E0180728F088E190E0A0E0B0E004C021
:100A900080E190E0A0E0B0E020E230E040E050E013
:100AA000281B390B4A0B5B0B04C016950795F7946E
:100AB000E7948A95D2F7F701E859FF4F8081281B08
:100AC000310941095109C9011F910F91FF90EF9020
:100AD0000895DF92EF92FF920F931F93FC01E48041
:100AE000F58006811781D1808081823048F480E0D2
:100AF00090E0A0E1B0E0E82AF92A0A2B1B2BA5C060
:100B0000843009F49FC0823021F4EE24FF24870151
:100B100005C0E114F1040105110519F4E0E0F0E06D
:100B200096C0628173819FEF623879070CF05BC0D9
:100B300022E83FEF261B370B2A3131052CF020E04D
:100B400030E040E050E02AC0B801A701022E04C006
:100B500076956795579547950A94D2F781E090E08E
:100B6000A0E0B0E004C0880F991FAA1FBB1F2A9500
:100B7000D2F70197A109B1098E219F21A023B123AA
:100B80000097A105B10521F081E090E0A0E0B0E080
:100B90009A01AB01282B392B4A2B5B2BDA01C901B7
:100BA0008F779070A070B07080349105A105B10569
:100BB00039F427FF09C0205C3F4F4F4F5F4F04C0FF
:100BC000215C3F4F4F4F5F4FE0E0F0E02030A0E06E
:100BD0003A07A0E04A07A0E45A0710F0E1E0F0E08D
:100BE00079018A0127C06038710564F5FB01E1587D
:100BF000FF4FD801C7018F779070A070B07080341C
:100C00009105A105B10539F4E7FE0DC080E490E03F
:100C1000A0E0B0E004C08FE390E0A0E0B0E0E80E18
:100C2000F91E0A1F1B1F17FF05C016950795F7949D
:100C3000E794319687E016950795F794E7948A959F
:100C4000D1F705C0EE24FF248701EFEFF0E06E2F0F
:100C5000679566276795902F9F77D794DD24D79463
:100C60008E2F8695492F462B582F5D29B701CA0133
:100C70001F910F91FF90EF90DF900895FC01DB0131
:100C8000408151812281622F6F7770E0221F2227DD
:100C9000221F9381892F880F822B282F30E0991FE4
:100CA0009927991F11969C93119721153105A9F544
:100CB000411551056105710511F482E037C082E8E4
:100CC0009FEF13969C938E9312979A01AB0167E066
:100CD000220F331F441F551F6A95D1F783E08C9371
:100CE0000DC0220F331F441F551F12968D919C91EA
:100CF0001397019713969C938E931297203080E060
:100D0000380780E0480780E4580758F314962D937D
:100D10003D934D935C93179708952F3F310579F4D8
:100D2000411551056105710519F484E08C9308950E
:100D300064FF03C081E08C9312C01C9210C02F5737
:100D4000304013963C932E93129783E08C9387E068
:100D5000440F551F661F771F8A95D1F7706414964C
:100D60004D935D936D937C93179708951F93DC01CA
:100D7000FB019C91923008F447C08081823008F4D6
:100D800043C0943051F411961C91843099F58181BF
:100D9000682F70E0611B71093FC0843021F09230F0
:100DA00031F48230B9F18181882389F12DC0119607
:100DB0001C9111978230F1F081811817D9F41296A5
:100DC0002D913C911397828193818217930794F020
:100DD00028173907BCF014968D919D910D90BC9108
:100DE000A02D2481358146815781281739074A076C
:100DF0005B0718F4112341F00AC082179307A40778
:100E0000B50740F4112319F061E070E005C06FEF01
:100E10007FEF02C060E070E0CB011F910895DF9387
:100E2000CF93CDB7DEB780E064E041E00E94460E8C
:100E300080E065E041E00E94460E80E066E041E02F
:100E40000E94460E80E067E041E00E94460E81E08D
:100E500061E041E00E94460E81E062E041E00E94D4
:100E6000460ECF91DF910895DF93CF93CDB7DEB7D4
:100E7000AF970FB6F894DEBF0FBECDBF8DA78DA57F
:100E80009AE0692F0E9404228295807F8CA78DA50D
:100E90009AE0692F0E940422892F8295807F8BA778
:100EA00080E060EF4CA50E940C1080E090E0A0E88C
:100EB000BFE38FA398A7A9A7BAA76FA178A589A513
:100EC0009AA520E030E04AEF54E40E941702DC01CA
:100ED000CB018BA39CA3ADA3BEA36BA17CA18DA1D1
:100EE0009EA120E030E040E85FE30E941D048823DB
:100EF0002CF481E090E09AA389A33FC06BA17CA170
:100F00008DA19EA120E03FEF4FE757E40E94BD0373
:100F100018164CF56FA178A589A59AA520E030E0B8
:100F200040E251E40E941702DC01CB01BC01CD017B
:100F30000E944100DC01CB019AA389A30FC088EC79
:100F400090E098A38F8F8F8D98A10197F1F798A3C8
:100F50008F8F89A19AA101979AA389A389A19AA1A8
:100F6000009769F714C06BA17CA18DA19EA10E947E
:100F70004100DC01CB019AA389A389A19AA19E8F8C
:100F80008D8F8D8D9E8D0197F1F79E8F8D8F81E0D6
:100F900062E041E00E94290F81E061E040E00E94B0
:100FA000290F80E060EF4CA50E940C1080E090E0DB
:100FB000A0E8BFE3898F9A8FAB8FBC8F698D7A8D44
:100FC0008B8D9C8D20E030E04AEF54E40E941702A4
:100FD000DC01CB018D8B9E8BAF8BB88F6D897E89A9
:100FE0008F89988D20E030E040E85FE30E941D0487
:100FF00088232CF481E090E09C8B8B8B3FC06D8923
:101000007E898F89988D20E03FEF4FE757E40E945B
:10101000BD0318164CF5698D7A8D8B8D9C8D20E063
:1010200030E040E251E40E941702DC01CB01BC0138
:10103000CD010E944100DC01CB019C8B8B8B0FC04A
:1010400088EC90E09A8B898B89899A890197F1F7CE
:101050009A8B898B8B899C8901979C8B8B8B8B8935
:101060009C89009769F714C06D897E898F89988D56
:101070000E944100DC01CB019C8B8B8B8B899C896E
:10108000988B8F878F8598890197F1F7988B8F8739
:1010900081E062E040E00E94290F81E061E041E0F0
:1010A0000E94290F80E060EF4BA50E940C1080E0A9
:1010B00090E0A0E8BFE38B879C87AD87BE876B85F8
:1010C0007C858D859E8520E030E04AEF54E40E94C7
:1010D0001702DC01CB018F839887A987BA876F81BC
:1010E000788589859A8520E030E040E85FE30E94BA
:1010F0001D0488232CF481E090E09E838D833FC003
:101100006F81788589859A8520E03FEF4FE757E426
:101110000E94BD0318164CF56B857C858D859E85D8
:1011200020E030E040E251E40E941702DC01CB01F4
:10113000BC01CD010E944100DC01CB019E838D8367
:101140000FC088EC90E09C838B838B819C810197FE
:10115000F1F79C838B838D819E8101979E838D8384
:101160008D819E81009769F714C06F81788589858C
:101170009A850E944100DC01CB019E838D838D8185
:101180009E819A83898389819A810197F1F79A8355
:101190008983AF960FB6F894DEBF0FBECDBFCF9157
:1011A000DF910895DF93CF93CDB7DEB782E062E0A1
:1011B00041E00E94460E82E067E041E00E94460E58
:1011C00083E063E041E00E94460ECF91DF910895F5
:1011D000DF93CF9300D00F92CDB7DEB7898389819B
:1011E000282F30E03B832A838A819B8181309105BF
:1011F00079F02A813B812230310581F08A819B81FF
:10120000009789F482E062E041E00E94290F0BC060
:1012100082E067E041E00E94290F05C083E063E0BF
:1012200041E00E94290F0F900F900F90CF91DF9116
:101230000895DF93CF9300D00F92CDB7DEB78983A7
:101240008981282F30E03B832A838A819B818130EA
:10125000910579F02A813B812230310581F08A8124
:101260009B81009789F482E062E040E00E94290FB0
:101270000BC082E067E040E00E94290F05C083E0D8
:1012800063E040E00E94290F0F900F900F90CF91E4
:10129000DF910895DF93CF9300D00F92CDB7DEB7E3
:1012A00089838981282F30E03B832A838A819B812F
:1012B0008130910571F02A813B812230310571F036
:1012C0008A819B81009771F482E062E00E94911014
:1012D00009C082E067E00E94911004C083E063E0EF
:1012E0000E9491100F900F900F90CF91DF91089571
:1012F000DF93CF9300D0CDB7DEB71A82198219825F
:101300002CC08981882F90E00896880F991F880F3C
:10131000991F880F991F0E941D0D1A8218C089817C
:10132000482F50E08A81282F30E0CA01880F991F8A
:10133000880F991F880F991F820F931FFC01E8598E
:10134000FE4F80810E94430D8A818F5F8A838A814C
:10135000883028F389818F5F89838981883088F27A
:101360000F900F90CF91DF910895DF93CF93CDB77A
:10137000DEB7E4970FB6F894DEBF0FBECDBF80E0B6
:1013800064E041E00E94460E80E065E041E00E949A
:10139000460E80E066E041E00E94460E80E067E095
:1013A00041E00E94460E81E061E041E00E94460E6D
:1013B00081E062E041E00E94460E81E063E041E0AE
:1013C0000E94460E81E062E040E00E94290F80E02A
:1013D00090E0A0E7B1E489AB9AABABABBCAB69A939
:1013E0007AA98BA99CA920E030E04AEF54E40E943E
:1013F0001702DC01CB018DA79EA7AFA7B8AB6DA5E7
:101400007EA58FA598A920E030E040E85FE30E9428
:101410001D0488232CF481E090E09CA78BA73FC09B
:101420006DA57EA58FA598A920E03FEF4FE757E473
:101430000E94BD0318164CF569A97AA98BA99CA92D
:1014400020E030E040E251E40E941702DC01CB01D1
:10145000BC01CD010E944100DC01CB019CA78BA700
:101460000FC088EC90E09AA789A789A59AA5019753
:10147000F1F79AA789A78BA59CA501979CA78BA795
:101480008BA59CA5009769F714C06DA57EA58FA5B7
:1014900098A90E944100DC01CB019CA78BA78BA5DA
:1014A0009CA598A78FA38FA198A50197F1F798A75E
:1014B0008FA383E00E941D0D80E090E0A0EAB0E4DD
:1014C0008BA39CA3ADA3BEA36BA17CA18DA19EA168
:1014D00020E030E04AEF54E40E941702DC01CB0127
:1014E0008F8F98A3A9A3BAA36F8D78A189A19AA180
:1014F00020E030E040E85FE30E941D0488232CF4E4
:1015000081E090E09E8F8D8F3FC06F8D78A189A183
:101510009AA120E03FEF4FE757E40E94BD03181661
:101520004CF56BA17CA18DA19EA120E030E040E2B2
:1015300051E40E941702DC01CB01BC01CD010E94E5
:101540004100DC01CB019E8F8D8F0FC088EC90E0B5
:101550009C8F8B8F8B8D9C8D0197F1F79C8F8B8F40
:101560008D8D9E8D01979E8F8D8F8D8D9E8D009779
:1015700069F714C06F8D78A189A19AA10E944100DA
:10158000DC01CB019E8F8D8F8D8D9E8D9A8F898FE3
:10159000898D9A8D0197F1F79A8F898F83E00E9448
:1015A0001D0D80E090E0A8ECB2E48D8B9E8BAF8B9C
:1015B000B88F6D897E898F89988D2BEA3AEA4AE245
:1015C00050E40E941702DC01CB01898B9A8BAB8B14
:1015D000BC8B69897A898B899C8920E030E040E85E
:1015E0005FE30E941D0488231CF481E0888B91C076
:1015F00069897A898B899C8920E030E04FE753E440
:101600000E94BD0318160CF07BC06D897E898F89FE
:10161000988D20E030E04AE754E40E941103DC0199
:10162000CB018C879D87AE87BF876C857D858E8536
:101630009F8520E030E04AEF54E40E941702DC016D
:10164000CB0188879987AA87BB87688579858A8532
:101650009B8520E030E040E85FE30E941D04882382
:101660002CF481E090E09F838E833FC0688579856C
:101670008A859B8520E03FEF4FE757E40E94BD033A
:1016800018164CF56C857D858E859F8520E030E0B1
:1016900040E251E40E941702DC01CB01BC01CD0104
:1016A0000E944100DC01CB019F838E830FC088EC38
:1016B00090E09D838C838C819D810197F1F79D83C0
:1016C0008C838E819F8101979F838E838E819F81E2
:1016D000009769F724C0688579858A859B850E9473
:1016E0004100DC01CB019F838E838E819F819B8390
:1016F0008A838A819B810197F1F79B838A830FC03C
:1017000069897A898B899C890E944100DC01CB011F
:10171000888B8889898389818A95F1F7898383E019
:101720000E941D0D82E00E941D0D88E20E941D0D89
:101730000E94780980E060E00E946C0D8CE00E94BD
:101740001D0DE4960FB6F894DEBF0FBECDBFCF914E
:10175000DF910895DF93CF93CDB7DEB7A6970FB68D
:10176000F894DEBF0FBECDBF81E063E041E00E9490
:10177000290F80E090E0A0E8BFE38BA39CA3ADA37A
:10178000BEA36BA17CA18DA19EA12BEA3AEA4AE2FD
:1017900050E40E941702DC01CB018F8F98A3A9A30C
:1017A000BAA36F8D78A189A19AA120E030E040E82A
:1017B0005FE30E941D0488231CF481E08E8F91C09A
:1017C0006F8D78A189A19AA120E030E04FE753E422
:1017D0000E94BD0318160CF07BC06BA17CA18DA1EB
:1017E0009EA120E030E04AE754E40E941103DC01AE
:1017F000CB018A8F9B8FAC8FBD8F6A8D7B8D8C8D3B
:101800009D8D20E030E04AEF54E40E941702DC0195
:10181000CB018E8B9F8BA88FB98F6E897F89888D26
:10182000998D20E030E040E85FE30E941D048823AA
:101830002CF481E090E09D8B8C8B3FC06E897F897A
:10184000888D998D20E03FEF4FE757E40E94BD035C
:1018500018164CF56A8D7B8D8C8D9D8D20E030E0C7
:1018600040E251E40E941702DC01CB01BC01CD0132
:101870000E944100DC01CB019D8B8C8B0FC088EC5A
:1018800090E09B8B8A8B8A899B890197F1F79B8BD0
:101890008A8B8C899D8901979D8B8C8B8C899D89E6
:1018A000009769F724C06E897F89888D998D0E9481
:1018B0004100DC01CB019D8B8C8B8C899D89998BA0
:1018C000888B888999890197F1F7998B888B0FC04C
:1018D0006F8D78A189A19AA10E944100DC01CB0102
:1018E0008E8F8E8D8F878F858A95F1F78F8781E018
:1018F00063E040E00E94290F80E090E0A0E0B0E4C7
:101900008B879C87AD87BE876B857C858D859E8503
:1019100020E030E04AEF54E40E941702DC01CB01E2
:101920008F839887A987BA876F81788589859A85FB
:1019300020E030E040E85FE30E941D0488232CF49F
:1019400081E090E09E838D833FC06F81788589859B
:101950009A8520E03FEF4FE757E40E94BD03181639
:101960004CF56B857C858D859E8520E030E040E2DE
:1019700051E40E941702DC01CB01BC01CD010E94A1
:101980004100DC01CB019E838D830FC088EC90E089
:101990009C838B838B819C810197F1F79C838B8344
:1019A0008D819E8101979E838D838D819E8100977D
:1019B00069F714C06F81788589859A850E944100F6
:1019C000DC01CB019E838D838D819E819A838983E7
:1019D00089819A810197F1F79A838983A6960FB638
:1019E000F894DEBF0FBECDBFCF91DF910895DF9396
:1019F000CF9300D00F92CDB7DEB78B838B818A83D4
:101A00008B818295807F898381E061E041E00E9443
:101A1000290F80E060EF4A810E940C100E94AA0BFF
:101A200080E060EF49810E940C100E94AA0B0F9089
:101A30000F900F90CF91DF910895DF93CF9300D057
:101A40000F92CDB7DEB78B838B818A838B81829592
:101A5000807F898381E061E040E00E94290F80E07F
:101A600060EF4A810E940C100E94AA0B80E060EF98
:101A700049810E940C100E94AA0B0F900F900F90AA
:101A8000CF91DF910895DF93CF930F92CDB7DEB75B
:101A9000898389810E94F70C0F90CF91DF9108957F
:101AA000DF93CF9300D0CDB7DEB79A8389830AC086
:101AB000E981FA8180810E94430D89819A81019692
:101AC0009A838983E981FA818081882389F70F903D
:101AD0000F90CF91DF910895DF93CF9300D000D086
:101AE000CDB7DEB789836A838981282F30E03C83B4
:101AF0002B838B819C81009731F02B813C8121309D
:101B0000310531F009C08A8180580E941D0D04C042
:101B10008A8180540E941D0D0F900F900F900F909E
:101B2000CF91DF910895DF93CF9300D0CDB7DEB78B
:101B30009A83898389819A8128EE33E0B9010E94D2
:101B40001022CB01805D0E94430D89819A8128EE8D
:101B500033E0B9010E94102224E630E0B9010E946E
:101B60001022CB01805D0E94430D89819A8128EE6D
:101B700033E0B9010E94102224E630E0B9010E944E
:101B800010222AE030E0B9010E941022CB01805DD2
:101B90000E94430D89819A8128EE33E0B9010E94A9
:101BA000102224E630E0B9010E9410222AE030E041
:101BB000B9010E941022805D0E94430D0F900F908A
:101BC000CF91DF910895DF93CF93CDB7DEB72C97F8
:101BD0000FB6F894DEBF0FBECDBF69877A878B87BB
:101BE0009C8718861F8280E090E0A0E0B0E08B83A5
:101BF0009C83AD83BE831A82198269857A858B8521
:101C00009C850E944100DC01CB0198878F838F81E6
:101C10009885CC01A0E0B0E0BC01CD010E94A104F8
:101C20009B01AC0169857A858B859C850E94B901F1
:101C3000DC01CB018B839C83AD83BE836B817C8174
:101C40008D819E8120E030E048EC52E40E94170232
:101C5000DC01CB01BC01CD010E944100DC01CB01C4
:101C60009A8389838F8198850E94930D8EE20E94CA
:101C7000430D89819A810E94930D2C960FB6F8949A
:101C8000DEBF0FBECDBFCF91DF910895DF93CF931D
:101C900000D000D00F92CDB7DEB789836A834B8323
:101CA0008981282F30E03D832C838C819D81813078
:101CB000910509F443C02C813D81223031052CF47B
:101CC0008C819D81009771F0BCC02C813D812230B8
:101CD000310509F45FC08C819D818330910509F441
:101CE00085C0AFC08B818823A9F4AAE3B0E0EAE302
:101CF000F0E08081482F8A81282F30E081E090E059
:101D0000022E02C0880F991F0A94E2F7809584235F
:101D10008C9397C0AAE3B0E0EAE3F0E08081482F1B
:101D20008A81282F30E081E090E0022E02C0880FE7
:101D3000991F0A94E2F7842B8C9383C08B818823AC
:101D4000A9F4A7E3B0E0E7E3F0E08081482F8A81BF
:101D5000282F30E081E090E0022E02C0880F991F0A
:101D60000A94E2F7809584238C936BC0A7E3B0E0DC
:101D7000E7E3F0E08081482F8A81282F30E081E07E
:101D800090E0022E02C0880F991F0A94E2F7842B7C
:101D90008C9357C08B818823A9F4A4E3B0E0E4E3DB
:101DA000F0E08081482F8A81282F30E081E090E0A8
:101DB000022E02C0880F991F0A94E2F780958423AF
:101DC0008C933FC0A4E3B0E0E4E3F0E08081482FCF
:101DD0008A81282F30E081E090E0022E02C0880F37
:101DE000991F0A94E2F7842B8C932BC08B81882354
:101DF000A9F4A1E3B0E0E1E3F0E08081482F8A811B
:101E0000282F30E081E090E0022E02C0880F991F59
:101E10000A94E2F7809584238C9313C0A1E3B0E089
:101E2000E1E3F0E08081482F8A81282F30E081E0D3
:101E300090E0022E02C0880F991F0A94E2F7842BCB
:101E40008C930F900F900F900F900F90CF91DF9188
:101E50000895DF93CF9300D000D00F92CDB7DEB7B7
:101E600089836A834B838981282F30E03D832C83CB
:101E70008C819D818130910509F443C02C813D8185
:101E8000223031052CF48C819D81009771F0BCC00B
:101E90002C813D812230310509F45FC08C819D8108
:101EA0008330910509F485C0AFC08B818130A1F4E6
:101EB000ABE3B0E0EBE3F0E08081482F8A81282F8C
:101EC00030E081E090E0022E02C0880F991F0A9452
:101ED000E2F7842B8C9398C0ABE3B0E0EBE3F0E047
:101EE0008081482F8A81282F30E081E090E0022E07
:101EF00002C0880F991F0A94E2F7809584238C937F
:101F000083C08B818130A1F4A8E3B0E0E8E3F0E086
:101F10008081482F8A81282F30E081E090E0022ED6
:101F200002C0880F991F0A94E2F7842B8C936CC02F
:101F3000A8E3B0E0E8E3F0E08081482F8A81282F11
:101F400030E081E090E0022E02C0880F991F0A94D1
:101F5000E2F7809584238C9357C08B818130A1F464
:101F6000A5E3B0E0E5E3F0E08081482F8A81282FE7
:101F700030E081E090E0022E02C0880F991F0A94A1
:101F8000E2F7842B8C9340C0A5E3B0E0E5E3F0E0FA
:101F90008081482F8A81282F30E081E090E0022E56
:101FA00002C0880F991F0A94E2F7809584238C93CE
:101FB0002BC08B818130A1F4A2E3B0E0E2E3F0E03A
:101FC0008081482F8A81282F30E081E090E0022E26
:101FD00002C0880F991F0A94E2F7842B8C9314C0D7
:101FE000A2E3B0E0E2E3F0E08081482F8A81282F6D
:101FF00030E081E090E0022E02C0880F991F0A9421
:10200000E2F7809584238C930F900F900F900F90A0
:102010000F90CF91DF910895DF93CF9300D000D040
:102020000F92CDB7DEB789836A834B838981282FCE
:1020300030E03D832C838C819D818130910559F165
:102040002C813D81223031052CF48C819D810097BB
:1020500069F05FC02C813D812230310589F18C818E
:102060009D818330910509F440C053C0ABE3B0E0DB
:10207000EBE3F0E08081982F8A81809589238C930F
:10208000ABE3B0E0EBE3F0E020819B818A81892320
:10209000822B8C933EC0A8E3B0E0E8E3F0E08081BF
:1020A000982F8A81809589238C93A8E3B0E0E8E398
:1020B000F0E020819B818A818923822B8C9329C027
:1020C000A5E3B0E0E5E3F0E08081982F8A81809578
:1020D00089238C93A5E3B0E0E5E3F0E020819B81C8
:1020E0008A818923822B8C9314C0A2E3B0E0E2E3BF
:1020F000F0E08081982F8A81809589238C93A2E3D8
:10210000B0E0E2E3F0E020819B818A818923822B89
:102110008C930F900F900F900F900F90CF91DF91B5
:102120000895DF93CF9300D000D0CDB7DEB7898379
:102130006A838981282F30E03C832B838B819C81AB
:102140008130910549F12B813C81223031052CF4FD
:102150008B819C81009761F05AC02B813C81223099
:10216000310571F18B819C8183309105E9F14FC07C
:10217000ABE3B0E0EBE3F0E08081482F8A81282FC9
:1021800030E081E090E0022E02C0880F991F0A948F
:10219000E2F784278C933BC0A8E3B0E0E8E3F0E0EB
:1021A0008081482F8A81282F30E081E090E0022E44
:1021B00002C0880F991F0A94E2F784278C9327C0E6
:1021C000A5E3B0E0E5E3F0E08081482F8A81282F85
:1021D00030E081E090E0022E02C0880F991F0A943F
:1021E000E2F784278C9313C0A2E3B0E0E2E3F0E0CF
:1021F0008081482F8A81282F30E081E090E0022EF4
:1022000002C0880F991F0A94E2F784278C930F90DD
:102210000F900F900F90CF91DF910895DF93CF93A0
:1022200000D000D00F92CDB7DEB78A836B831982BE
:102230008A81282F30E03D832C834C815D814130A1
:10224000510579F18C819D818230910534F42C8186
:102250003D812115310569F06BC04C815D814230B3
:102260005105B9F18C819D818330910509F449C0F4
:102270005FC0E9E3F0E08081282F30E08B81882F78
:1022800090E0A90102C0559547958A95E2F7CA01E9
:1022900081709070882319F081E0898349C0198288
:1022A00047C0E6E3F0E08081282F30E08B81882F63
:1022B00090E0A90102C0559547958A95E2F7CA01B9
:1022C00081709070882319F081E0898331C0198270
:1022D0002FC0E3E3F0E08081282F30E08B81882F4E
:1022E00090E0A90102C0559547958A95E2F7CA0189
:1022F00081709070882319F081E0898319C0198258
:1023000017C0E0E3F0E08081282F30E08B81882F38
:1023100090E0A90102C0559547958A95E2F7CA0158
:1023200081709070882319F081E0898301C019823F
:1023300089810F900F900F900F900F90CF91DF91A8
:102340000895DF93CF93CDB7DEB780E063E041E03F
:102350000E94460ECF91DF910895DF93CF93CDB7C2
:10236000DEB780E063E041E00E94290FCF91DF916A
:102370000895DF93CF93CDB7DEB780E063E040E010
:102380000E94290FCF91DF910895DF93CF93CDB7AE
:10239000DEB780E063E00E949110CF91DF91089555
:1023A000DF93CF930F92CDB7DEB7198280E063E061
:1023B0000E940E11813019F481E0898301C01982D5
:1023C00089810F90CF91DF910895DF93CF93CDB79F
:1023D000DEB781E060E040E00E94460E83E066E008
:1023E00040E00E94460E83E062E040E00E94460E1C
:1023F000CF91DF910895DF93CF9300D000D0CDB778
:10240000DEB78A8319828A81282F30E03C832B83B0
:102410008B819C8181309105A1F02B813C81223000
:102420003105D1F08B819C81009701F581E060E05E
:102430000E940E11813019F481E0898317C019823E
:1024400015C083E066E00E940E11813019F481E02E
:1024500089830CC019820AC083E062E00E940E11D9
:10246000813019F481E0898301C0198289810F903C
:102470000F900F900F90CF91DF910895DF93CF933E
:10248000CDB7DEB7E1970FB6F894DEBF0FBECDBF74
:1024900089ABEBE3F0E089A98083A5E3B0E0E5E355
:1024A000F0E080818E7F8C93A5E3B0E0E5E3F0E07F
:1024B00080818D7F8C93A5E3B0E0E5E3F0E080813F
:1024C00084608C9380E090E0A0EAB0E48DA79EA7A2
:1024D000AFA7B8AB6DA57EA58FA598A92BEA3AEA60
:1024E0004AE250E40E941702DC01CB0189A79AA7B7
:1024F000ABA7BCA769A57AA58BA59CA520E030E079
:1025000040E85FE30E941D0488231CF481E088A753
:1025100091C069A57AA58BA59CA520E030E04FE786
:1025200053E40E94BD0318160CF07BC06DA57EA578
:102530008FA598A920E030E04AE754E40E941103F7
:10254000DC01CB018CA39DA3AEA3BFA36CA17DA195
:102550008EA19FA120E030E04AEF54E40E941702D0
:10256000DC01CB0188A399A3AAA3BBA368A179A18D
:102570008AA19BA120E030E040E85FE30E941D04B7
:1025800088232CF481E090E09F8F8E8F3FC068A15C
:1025900079A18AA19BA120E03FEF4FE757E40E9479
:1025A000BD0318164CF56CA17DA18EA19FA120E062
:1025B00030E040E251E40E941702DC01CB01BC0193
:1025C000CD010E944100DC01CB019F8F8E8F0FC097
:1025D00088EC90E09D8F8C8F8C8D9D8D0197F1F70D
:1025E0009D8F8C8F8E8D9F8D01979F8F8E8F8E8D5F
:1025F0009F8D009769F724C068A179A18AA19BA14A
:102600000E944100DC01CB019F8F8E8F8E8D9F8DAC
:102610009B8F8A8F8A8D9B8D0197F1F79B8F8A8F75
:102620000FC069A57AA58BA59CA50E944100DC017D
:10263000CB0188A788A5898F898D8A95F1F7898F25
:10264000A5E3B0E0E5E3F0E080818B7F8C9380E050
:1026500090E0A0EAB0E48D8B9E8BAF8BB88F6D8934
:102660007E898F89988D2BEA3AEA4AE250E40E94EB
:102670001702DC01CB01898B9A8BAB8BBC8B6989F0
:102680007A898B899C8920E030E040E85FE30E94F2
:102690001D0488231CF481E0888B91C069897A89A4
:1026A0008B899C8920E030E04FE753E40E94BD0312
:1026B00018160CF07BC06D897E898F89988D20E07B
:1026C00030E04AE754E40E941103DC01CB018C871F
:1026D0009D87AE87BF876C857D858E859F8520E031
:1026E00030E04AEF54E40E941702DC01CB018887F6
:1026F0009987AA87BB87688579858A859B8520E02D
:1027000030E040E85FE30E941D0488232CF481E060
:1027100090E09F838E833FC0688579858A859B85FD
:1027200020E03FEF4FE757E40E94BD0318164CF539
:102730006C857D858E859F8520E030E040E251E408
:102740000E941702DC01CB01BC01CD010E944100B7
:10275000DC01CB019F838E830FC088EC90E09D83CA
:102760008C838C819D810197F1F79D838C838E8171
:102770009F8101979F838E838E819F81009769F748
:1027800024C0688579858A859B850E944100DC018B
:10279000CB019F838E838E819F819B838A838A81D5
:1027A0009B810197F1F79B838A830FC069897A899E
:1027B0008B899C890E944100DC01CB01888B888930
:1027C000898389818A95F1F78983E1960FB6F89418
:1027D000DEBF0FBECDBFCF91DF910895DF93CF93C2
:1027E000CDB7DEB7E1970FB6F894DEBF0FBECDBF11
:1027F00089ABEBE3F0E089A98083A5E3B0E0E5E3F2
:10280000F0E0808181608C93A5E3B0E0E5E3F0E047
:1028100080818D7F8C93A5E3B0E0E5E3F0E08081DB
:1028200084608C9380E090E0A0EAB0E48DA79EA73E
:10283000AFA7B8AB6DA57EA58FA598A92BEA3AEAFC
:102840004AE250E40E941702DC01CB0189A79AA753
:10285000ABA7BCA769A57AA58BA59CA520E030E015
:1028600040E85FE30E941D0488231CF481E088A7F0
:1028700091C069A57AA58BA59CA520E030E04FE723
:1028800053E40E94BD0318160CF07BC06DA57EA515
:102890008FA598A920E030E04AE754E40E94110394
:1028A000DC01CB018CA39DA3AEA3BFA36CA17DA132
:1028B0008EA19FA120E030E04AEF54E40E9417026D
:1028C000DC01CB0188A399A3AAA3BBA368A179A12A
:1028D0008AA19BA120E030E040E85FE30E941D0454
:1028E00088232CF481E090E09F8F8E8F3FC068A1F9
:1028F00079A18AA19BA120E03FEF4FE757E40E9416
:10290000BD0318164CF56CA17DA18EA19FA120E0FE
:1029100030E040E251E40E941702DC01CB01BC012F
:10292000CD010E944100DC01CB019F8F8E8F0FC033
:1029300088EC90E09D8F8C8F8C8D9D8D0197F1F7A9
:102940009D8F8C8F8E8D9F8D01979F8F8E8F8E8DFB
:102950009F8D009769F724C068A179A18AA19BA1E6
:102960000E944100DC01CB019F8F8E8F8E8D9F8D49
:102970009B8F8A8F8A8D9B8D0197F1F79B8F8A8F12
:102980000FC069A57AA58BA59CA50E944100DC011A
:10299000CB0188A788A5898F898D8A95F1F7898FC2
:1029A000A5E3B0E0E5E3F0E080818B7F8C9380E0ED
:1029B00090E0A0EAB0E48D8B9E8BAF8BB88F6D89D1
:1029C0007E898F89988D2BEA3AEA4AE250E40E9488
:1029D0001702DC01CB01898B9A8BAB8BBC8B69898D
:1029E0007A898B899C8920E030E040E85FE30E948F
:1029F0001D0488231CF481E0888B91C069897A8941
:102A00008B899C8920E030E04FE753E40E94BD03AE
:102A100018160CF07BC06D897E898F89988D20E017
:102A200030E04AE754E40E941103DC01CB018C87BB
:102A30009D87AE87BF876C857D858E859F8520E0CD
:102A400030E04AEF54E40E941702DC01CB01888792
:102A50009987AA87BB87688579858A859B8520E0C9
:102A600030E040E85FE30E941D0488232CF481E0FD
:102A700090E09F838E833FC0688579858A859B859A
:102A800020E03FEF4FE757E40E94BD0318164CF5D6
:102A90006C857D858E859F8520E030E040E251E4A5
:102AA0000E941702DC01CB01BC01CD010E94410054
:102AB000DC01CB019F838E830FC088EC90E09D8367
:102AC0008C838C819D810197F1F79D838C838E810E
:102AD0009F8101979F838E838E819F81009769F7E5
:102AE00024C0688579858A859B850E944100DC0128
:102AF000CB019F838E838E819F819B838A838A8172
:102B00009B810197F1F79B838A830FC069897A893A
:102B10008B899C890E944100DC01CB01888B8889CC
:102B2000898389818A95F1F78983E1960FB6F894B4
:102B3000DEBF0FBECDBFCF91DF910895DF93CF935E
:102B4000CDB7DEB72E970FB6F894DEBF0FBECDBF60
:102B5000EAE3F0E08FEF8083E4E3F0E08FEF80833F
:102B6000A5E3B0E0E5E3F0E0808188638C9380E04A
:102B700090E0A0EAB1E48B879C87AD87BE876B8528
:102B80007C858D859E8520E030E04AEF54E40E94EC
:102B90001702DC01CB018F839887A987BA876F81E1
:102BA000788589859A8520E030E040E85FE30E94DF
:102BB0001D0488232CF481E090E09E838D833FC028
:102BC0006F81788589859A8520E03FEF4FE757E44C
:102BD0000E94BD0318164CF56B857C858D859E85FE
:102BE00020E030E040E251E40E941702DC01CB011A
:102BF000BC01CD010E944100DC01CB019E838D838D
:102C00000FC088EC90E09C838B838B819C81019723
:102C1000F1F79C838B838D819E8101979E838D83A9
:102C20008D819E81009769F714C06F8178858985B1
:102C30009A850E944100DC01CB019E838D838D81AA
:102C40009E819A83898389819A810197F1F79A837A
:102C500089838EE30E943E1280E40E943E1288EB3C
:102C60000E943E1280EC0E943E128FE30E943E12B0
:102C70002E960FB6F894DEBF0FBECDBFCF91DF9179
:102C80000895DF93CF9300D000D000D0CDB7DEB74A
:102C90001E821D821C821B82A5E3B0E0E5E3F0E00A
:102CA000808180618C93A5E3B0E0E5E3F0E0808172
:102CB000877F8C931A82198238C01E821D821DC0A4
:102CC0008D8188540E943E121C821B820CC08B8115
:102CD000805C0E943E1280E00E94EE138B819C81FA
:102CE00001969C838B838B819C81803491057CF33E
:102CF0008D819E8101969E838D838D819E818830FA
:102D00009105F4F2A5E3B0E0E5E3F0E080818860AE
:102D10008C93A5E3B0E0E5E3F0E080818F7E8C93B7
:102D200089819A8101969A83898389819A818230E7
:102D300091051CF280E40E943E1288EB0E943E1234
:102D400026960FB6F894DEBF0FBECDBFCF91DF91B0
:102D500008950F931F93DF93CF93CDB7DEB761979D
:102D60000FB6F894DEBF0FBECDBF8F87798B688B0F
:102D70008F85882F90E088549F4F9A87898718867F
:102D80001F8280E090E0A0E0BFE38B839C83AD8353
:102D9000BE8381E090E09A838983A5E3B0E0E5E318
:102DA000F0E0808188608C93A5E3B0E0E5E3F0E09B
:102DB00080818F7E8C9389850E943E121E861D869F
:102DC000E3C18F85282F30E088E090E0821B930BD1
:102DD0009695982F8827979587959C018F81988540
:102DE0002817390708F4DBC1288939898D859E8524
:102DF000F901E80FF91F8081803209F484C081E075
:102E000090E09C878B8777C02F8138858B859C8548
:102E10008901080F191F6B817C818D819E8120E0C3
:102E200030E040E05FE30E94EA01DC01CB01BC013D
:102E3000CD010E944D04DC01CB019695982F882787
:102E4000979587950817190709F050C02B853C8581
:102E500089819A812817390709F455C080E40E94B6
:102E60003E122F8138858B859C85820F931F988712
:102E70008F83A5E3B0E0E5E3F0E0908188E0892767
:102E80008C93A5E3B0E0E5E3F0E0908180E1892751
:102E90008C9389859A85CC01A0E0B0E0BC01CD017E
:102EA0000E94A104DC01CB01BC01CD012B813C813E
:102EB0004D815E810E94EA01DC01CB01BC01CD01A4
:102EC0000E944100DC01CB010E943E126B817C819B
:102ED0008D819E8120E030E040E05FE30E94EA01C6
:102EE000DC01CB018B839C83AD83BE838B859C856A
:102EF00001969C878B872B853C8589819A818217D7
:102F0000930708F081CF8F85282F30E088E090E08C
:102F1000821B930B9695982F8827979587959C01F0
:102F20008F8198852817390708F439C1288939898C
:102F30008D859E85F901E80FF91F80818C3159F04C
:102F4000288939898D859E85F901E80FF91F8081CF
:102F5000803209F065C01C861B8659C028893989D2
:102F60008D859E85F901E80FF91F808180520E94AE
:102F7000EE138F81988501968F7390700097E9F515
:102F8000A5E3B0E0E5E3F0E0908188E089278C9349
:102F9000A5E3B0E0E5E3F0E0908180E189278C9340
:102FA00089859A85CC01A0E0B0E0BC01CD010E94EA
:102FB000A104DC01CB01BC01CD012B813C814D8101
:102FC0005E810E94EA01DC01CB01BC01CD010E94BF
:102FD0004100DC01CB010E943E126B817C818D811E
:102FE0009E8120E030E040E05FE30E94EA01DC01E6
:102FF000CB018B839C83AD83BE838F8198850196A3
:1030000098878F838B859C8501969C878B872B85E2
:103010003C8589819A812817390708F49FCFAFC072
:103020001C861B8659C0288939898D859E85F901A2
:10303000E80FF91F808180520E94EE138F819885DE
:1030400001968F7390700097E9F5A5E3B0E0E5E392
:10305000F0E0908188E089278C93A5E3B0E0E5E378
:10306000F0E0908180E189278C9389859A85CC0155
:10307000A0E0B0E0BC01CD010E94A104DC01CB01C5
:10308000BC01CD012B813C814D815E810E94EA0112
:10309000DC01CB01BC01CD010E944100DC01CB0170
:1030A0000E943E126B817C818D819E8120E030E008
:1030B00040E05FE30E94EA01DC01CB018B839C834B
:1030C000AD83BE838F819885019698878F838B858A
:1030D0009C8501969C878B872B853C8589819A816D
:1030E0002817390708F49FCF80E00E94EE138F81E4
:1030F0009885019698878F838F8198858F739070BC
:103100000097E9F5A5E3B0E0E5E3F0E0908188E021
:1031100089278C93A5E3B0E0E5E3F0E0908180E1BE
:1031200089278C9389859A85CC01A0E0B0E0BC0109
:10313000CD010E94A104DC01CB01BC01CD012B819A
:103140003C814D815E810E94EA01DC01CB01BC0122
:10315000CD010E944100DC01CB010E943E126B8137
:103160007C818D819E8120E030E040E05FE30E9421
:10317000EA01DC01CB018B839C83AD83BE838D850B
:103180009E8501969E878D87288939898D859E85A4
:10319000F901E80FF91F8081882309F012CE80E43D
:1031A0000E943E1261960FB6F894DEBF0FBECDBFEF
:1031B000CF91DF911F910F910895DF93CF930F92DD
:1031C000CDB7DEB789838981882379F4A5E3B0E0A0
:1031D000E5E3F0E0808180618C93A5E3B0E0E5E376
:1031E000F0E08081877F8C930EC0A5E3B0E0E5E33B
:1031F000F0E0808188608C93A5E3B0E0E5E3F0E047
:1032000080818F7E8C930F90CF91DF910895DF9313
:10321000CF9300D000D00F92CDB7DEB79A838983C9
:103220007C836B834D838D810E94DD188981805C56
:103230000E943E128B8188540E943E120F900F9084
:103240000F900F900F90CF91DF910895DF93CF9360
:10325000CDB7DEB72A970FB6F894DEBF0FBECDBF4D
:103260008B837D836C835F834E8328871A821982C8
:1032700088850E94DD188E8188540E943E128C81C0
:10328000805C0E943E128B81282F30E03A8729878C
:1032900089859A858B34910509F48BC029853A85F7
:1032A0002C343105B4F589859A858534910509F466
:1032B0009BC129853A8526343105FCF489859A8598
:1032C0008A33910509F4ECC229853A852B333105FF
:1032D0006CF489859A858032910509F4EAC22985C2
:1032E0003A852532310509F470C2EBC289859A8589
:1032F0008434910509F4C3C0E4C229853A85263493
:10330000310591F189859A858834910509F484C045
:10331000D8C229853A852935310509F424C1898522
:103320009A858A3591056CF429853A852C343105C6
:1033300009F48DC189859A858435910509F4D2C037
:10334000C0C229853A852537310509F4E6C189854A
:103350009A858A37910509F413C229853A8523365F
:10336000310509F4A7C1ADC28FE70E94EE13898130
:103370009A8101969A8389839C818981890F805CD7
:103380000E943E1289E00E94EE1389819A81019683
:103390009A8389839C818981890F805C0E943E1277
:1033A00089E00E94EE1389819A8101969A8389832C
:1033B00088C28FE70E94EE1389819A8101969A83D1
:1033C00089839C818981890F805C0E943E1284E1FF
:1033D0000E94EE1389819A8101969A8389839C8148
:1033E0008981890F805C0E943E1282E20E94EE1366
:1033F00089819A8101969A8389839C818981890F29
:10340000805C0E943E1281E40E94EE1389819A81C1
:1034100001969A83898355C28FE70E94EE138981B2
:103420009A8101969A8389839C818981890F805C26
:103430000E943E1288E00E94EE1389819A810196D3
:103440009A8389839C818981890F805C0E943E12C6
:1034500088E00E94EE1389819A8101969A8389837C
:103460009C818981890F805C0E943E128FE70E94B7
:10347000EE1389819A8101969A83898322C28FE70C
:103480000E94EE1389819A8101969A8389839C8197
:103490008981890F805C0E943E1281E40E94EE13B4
:1034A00089819A8101969A8389839C818981890F78
:1034B000805C0E943E1281E40E94EE1389819A8111
:1034C00001969A8389839C818981890F805C0E94FF
:1034D0003E128EE30E94EE1389819A8101969A83AF
:1034E0008983EFC181E00E94EE1389819A81019660
:1034F0009A8389839C818981890F805C0E943E1216
:1035000081E00E94EE1389819A8101969A838983D2
:103510009C818981890F805C0E943E128FE70E9406
:10352000EE1389819A8101969A8389839C8189818E
:10353000890F805C0E943E1281E00E94EE13898117
:103540009A8101969A8389839C818981890F805C05
:103550000E943E1281E00E94EE1389819A810196B9
:103560009A838983AEC183E00E94EE1389819A8198
:1035700001969A8389839C818981890F805C0E944E
:103580003E1284E00E94EE1389819A8101969A830B
:1035900089839C818981890F805C0E943E1288E723
:1035A0000E94EE1389819A8101969A8389839C8176
:1035B0008981890F805C0E943E1284E00E94EE1394
:1035C00089819A8101969A8389839C818981890F57
:1035D000805C0E943E1283E00E94EE1389819A81F2
:1035E00001969A8389836DC18FE70E94EE138981CA
:1035F0009A8101969A8389839C818981890F805C55
:103600000E943E1289E40E94EE1389819A810196FC
:103610009A8389839C818981890F805C0E943E12F4
:1036200089E40E94EE1389819A8101969A838983A5
:103630009C818981890F805C0E943E1289E40E94EE
:10364000EE1389819A8101969A8389833AC18FE723
:103650000E94EE1389819A8101969A8389839C81C5
:103660008981890F805C0E943E1280E40E94EE13E3
:1036700089819A8101969A8389839C818981890FA6
:10368000805C0E943E1280E40E94EE1389819A8140
:1036900001969A8389839C818981890F805C0E942D
:1036A0003E1280E40E94EE1389819A8101969A83EA
:1036B000898307C18CE30E94EE1389819A81019668
:1036C0009A8389839C818981890F805C0E943E1244
:1036D00082E40E94EE1389819A8101969A838983FC
:1036E0009C818981890F805C0E943E1282E40E9445
:1036F000EE1389819A8101969A8389839C818981BD
:10370000890F805C0E943E1282E40E94EE13898140
:103710009A8101969A838983D4C08EE70E94EE1322
:1037200089819A8101969A8389839C818981890FF5
:10373000805C0E943E1280E40E94EE1389819A818F
:1037400001969A8389839C818981890F805C0E947C
:103750003E1280E40E94EE1389819A8101969A8339
:1037600089839C818981890F805C0E943E128EE74B
:103770000E94EE1389819A8101969A838983A1C060
:1037800084E60E94EE1389819A8101969A83898347
:103790009C818981890F805C0E943E1284E50E9491
:1037A000EE1389819A8101969A8389839C8189810C
:1037B000890F805C0E943E128CE40E94EE13898186
:1037C0009A8101969A8389837CC086E80E94EE13D1
:1037D00089819A8101969A8389839C818981890F45
:1037E000805C0E943E1289E40E94EE1389819A81D6
:1037F00001969A8389839C818981890F805C0E94CC
:103800003E1289E20E94EE1389819A8101969A8381
:1038100089839C818981890F805C0E943E1286E1A8
:103820000E94EE1389819A8101969A8389839C81F3
:103830008981890F805C0E943E1288E60E94EE1307
:1038400089819A8101969A8389839C818981890FD4
:10385000805C0E943E1284E90E94EE1389819A8165
:1038600001969A8389839C818981890F805C0E945B
:103870003E1282E90E94EE1389819A8101969A8311
:1038800089839C818981890F805C0E943E1281E638
:103890000E94EE1389819A8101969A83898311C0CF
:1038A00084E20E94EE1389819A8101969A8389832A
:1038B00008C080E00E94EE1389819A8101969A8364
:1038C000898389819A8101969A83898389819A81E2
:1038D0002A960FB6F894DEBF0FBECDBFCF91DF9111
:1038E0000895DF93CF93CDB7DEB72B970FB6F8943B
:1038F000DEBF0FBECDBF9C838B837E836D835887D5
:103900004F8329871A82198289850E94DD188F8149
:1039100088540E943E128D81805C0E943E128B81F1
:103920009C819B878A878A859B858430910509F4D1
:103930003DC18A859B8585309105ECF48A859B8500
:103940008130910509F46FC08A859B85823091058D
:103950002CF48A859B85009799F1ADC28A859B8559
:103960008230910509F4A0C08A859B85833091053A
:1039700009F4DBC0A0C28A859B858730910509F4D4
:10398000D8C18A859B85883091056CF48A859B8592
:103990008530910509F44BC18A859B858630910558
:1039A00009F486C188C28A859B858830910509F40F
:1039B00001C28A859B858930910509F43CC27BC28E
:1039C0008EE30E94EE1389819A8101969A838983FE
:1039D0009D818981890F805C0E943E1281E40E9452
:1039E000EE1389819A8101969A8389839D818981C9
:1039F000890F805C0E943E1281E40E94EE1389814F
:103A00009A8101969A8389839D818981890F805C3F
:103A10000E943E128EE30E94EE1389819A810196E4
:103A20009A83898348C280E00E94EE1389819A813B
:103A300001969A8389839D818981890F805C0E9488
:103A40003E1282E40E94EE1389819A8101969A8344
:103A500089839D818981890F805C0E943E128FE756
:103A60000E94EE1389819A8101969A8389839D81B0
:103A70008981890F805C0E943E1280E40E94EE13CF
:103A800089819A8101969A8389839D818981890F91
:103A9000805C0E943E1280E00E94EE1389819A8130
:103AA00001969A83898307C282E40E94EE1389817A
:103AB0009A8101969A8389839D818981890F805C8F
:103AC0000E943E1281E60E94EE1389819A8101963E
:103AD0009A8389839D818981890F805C0E943E122F
:103AE00081E50E94EE1389819A8101969A838983E8
:103AF0009D818981890F805C0E943E1289E40E9429
:103B0000EE1389819A8101969A8389839D818981A7
:103B1000890F805C0E943E1286E40E94EE13898128
:103B20009A8101969A838983C6C181E20E94EE132D
:103B300089819A8101969A8389839D818981890FE0
:103B4000805C0E943E1281E40E94EE1389819A817A
:103B500001969A8389839D818981890F805C0E9467
:103B60003E1285E40E94EE1389819A8101969A8320
:103B700089839D818981890F805C0E943E128BE43C
:103B80000E94EE1389819A8101969A8389839D818F
:103B90008981890F805C0E943E1281E30E94EE13AE
:103BA00089819A8101969A83898385C188E10E94DF
:103BB000EE1389819A8101969A8389839D818981F7
:103BC000890F805C0E943E1284E10E94EE1389817D
:103BD0009A8101969A8389839D818981890F805C6E
:103BE0000E943E1282E10E94EE1389819A81019621
:103BF0009A8389839D818981890F805C0E943E120E
:103C00008FE70E94EE1389819A8101969A838983B6
:103C10009D818981890F805C0E943E1280E10E9413
:103C2000EE1389819A8101969A83898344C187E240
:103C30000E94EE1389819A8101969A8389839D81DE
:103C40008981890F805C0E943E1285E40E94EE13F8
:103C500089819A8101969A8389839D818981890FBF
:103C6000805C0E943E1285E40E94EE1389819A8155
:103C700001969A8389839D818981890F805C0E9446
:103C80003E1285E40E94EE1389819A8101969A83FF
:103C900089839D818981890F805C0E943E1289E31E
:103CA0000E94EE1389819A8101969A83898303C1C8
:103CB0008CE30E94EE1389819A8101969A8389830D
:103CC0009D818981890F805C0E943E128AE40E9456
:103CD000EE1389819A8101969A8389839D818981D6
:103CE000890F805C0E943E1289E40E94EE13898154
:103CF0009A8101969A8389839D818981890F805C4D
:103D00000E943E1289E40E94EE1389819A810196F5
:103D10009A8389839D818981890F805C0E943E12EC
:103D200080E30E94EE1389819A8101969A838983A8
:103D3000C2C081E00E94EE1389819A8101969A8324
:103D400089839D818981890F805C0E943E1281E771
:103D50000E94EE1389819A8101969A8389839D81BD
:103D60008981890F805C0E943E1289E00E94EE13D7
:103D700089819A8101969A8389839D818981890F9E
:103D8000805C0E943E1285E00E94EE1389819A8138
:103D900001969A8389839D818981890F805C0E9425
:103DA0003E1283E00E94EE1389819A8101969A83E4
:103DB000898381C086E30E94EE1389819A810196EE
:103DC0009A8389839D818981890F805C0E943E123C
:103DD00089E40E94EE1389819A8101969A838983EE
:103DE0009D818981890F805C0E943E1289E40E9436
:103DF000EE1389819A8101969A8389839D818981B5
:103E0000890F805C0E943E1289E40E94EE13898132
:103E10009A8101969A8389839D818981890F805C2B
:103E20000E943E1286E30E94EE1389819A810196D8
:103E30009A83898340C086E00E94EE1389819A812B
:103E400001969A8389839D818981890F805C0E9474
:103E50003E1289E40E94EE1389819A8101969A8329
:103E600089839D818981890F805C0E943E1289E44B
:103E70000E94EE1389819A8101969A8389839D819C
:103E80008981890F805C0E943E1289E20E94EE13B4
:103E900089819A8101969A8389839D818981890F7D
:103EA000805C0E943E128EE10E94EE1389819A810D
:103EB00001969A83898389819A8101969A8389835D
:103EC00089819A812B960FB6F894DEBF0FBECDBFC5
:103ED000CF91DF910895DF93CF93CDB7DEB72997C8
:103EE0000FB6F894DEBF0FBECDBF9C838B837E835D
:103EF0006D8358874F8329871A8219828B819C8111
:103F000009968331910590F48B819C812D813E81AE
:103F10004F815885B90129850E94711C9C018981B6
:103F20009A81820F931F9A83898376C08B819C81AB
:103F30008456904084369105E0F52D813E814F8175
:103F4000588581E090E0B90129850E94711C9C018F
:103F500089819A81820F931F9A8389832D813E8163
:103F600089819A81280F391F4F81588580E090E020
:103F7000B90129850E94711C9C0189819A81820F57
:103F8000931F9A8389832D813E8189819A81280F8D
:103F9000391F4F81588580E090E0B90129850E9442
:103FA000711C9C0189819A81820F931F9A83898356
:103FB00033C08B819C812AE030E0B9010E94242229
:103FC000CB012D813E814F815885B90129850E9401
:103FD000711C9C0189819A81820F931F9A83898326
:103FE0008B819C812AE030E0B9010E942422BC012F
:103FF0002D813E8189819A81280F391F4F815885F3
:10400000CB01B90129850E94711C9C0189819A818B
:10401000820F931F9A83898389819A8129960FB68B
:10402000F894DEBF0FBECDBFCF91DF910895DF932F
:10403000CF93CDB7DEB729970FB6F894DEBF0FBE8A
:10404000CDBF8B837D836C835F834E831A821982FD
:104050008E8188540E943E128C81805C0E943E12A8
:104060008B81282F30E03987288788859985813092
:10407000910509F1288539852230310569F1888556
:104080009985009789F58FEF0E94EE138C81805CF3
:104090000E943E128E8187540E943E128FEF0E9432
:1040A000EE138E8188540E943E1289819A81019676
:1040B0009A83898319C089819A8101969A83898319
:1040C0008E8187540E943E1280E80E94EE138E81FA
:1040D00088540E943E1208C089819A8101969A8371
:1040E000898381E00E94EE1389819A8129960FB617
:1040F000F894DEBF0FBECDBFCF91DF910895DF935F
:10410000CF93CDB7DEB72C970FB6F894DEBF0FBEB6
:10411000CDBF0E949E150E9441161B868B850E9472
:10412000DD181A86198684E090E098878F831E82B6
:104130001D821C821B821A82198229853A854F8131
:10414000588580E0B9010E9417209C0189859A85D5
:10415000820F931F9A8789871B868B850E94DD18A3
:1041600029853A854F81588581E0B9010E94172041
:104170009C0189859A85820F931F9A8789872D8153
:104180003E8186E4B90140E050E020E00E9426191B
:104190009C018D819E81820F931F9E838D832D8133
:1041A0003E818AE3B90140E050E020E00E942619F8
:1041B0009C018D819E81820F931F9E838D832D8113
:1041C0003E8184E690E0B90140E050E020E00E94AA
:1041D0006B1F9C018D819E81820F931F9E838D8317
:1041E0002D813E8183E090E0B90140E050E020E085
:1041F0000E946B1F9C018D819E81820F931F9E8365
:104200008D832D813E818BE4B90140E050E020E0B8
:104210000E9426199C018D819E81820F931F9E838F
:104220008D832D813E8188E4B90140E050E020E09B
:104230000E9426199C018D819E81820F931F9E836F
:104240008D832D813E818AE7B90140E050E020E076
:104250000E9426199C018D819E81820F931F9E834F
:104260008D832B813C8184E4B90140E050E021E062
:104270000E9426199C018B819C81820F931F9C8335
:104280008B832B813C8185E7B90140E050E021E040
:104290000E9426199C018B819C81820F931F9C8315
:1042A0008B832B813C8184E5B90140E050E021E023
:1042B0000E9426199C018B819C81820F931F9C83F5
:1042C0008B832B813C8189E5B90140E050E021E0FE
:1042D0000E9426199C018B819C81820F931F9C83D5
:1042E0008B832B813C8180E2B90140E050E021E0EA
:1042F0000E9426199C018B819C81820F931F9C83B5
:104300008B832B813C8183E6B90140E050E021E0C2
:104310000E9426199C018B819C81820F931F9C8394
:104320008B832B813C8189E5B90140E050E021E09D
:104330000E9426199C018B819C81820F931F9C8374
:104340008B832B813C8183E6B90140E050E021E082
:104350000E9426199C018B819C81820F931F9C8354
:104360008B832B813C818AE3B90140E050E021E05E
:104370000E9426199C018B819C81820F931F9C8334
:104380008B832B813C818CE490E0B90140E050E0CC
:1043900021E00E946B1F9C018B819C81820F931FE7
:1043A0009C838B832B813C8185E2B90140E050E006
:1043B00021E00E9426199C018B819C81820F931F12
:1043C0009C838B8389859A858034910554F01A8665
:1043D00019861C868B85882311F481E08C878C8557
:1043E0008B878F8198858830910549F418861F82C4
:1043F0008B85882319F481E08B8701C01B861C8282
:104400001B821E821D82A8CE991B79E004C0991FD1
:10441000961708F0961B881F7A95C9F7809508951E
:10442000AA1BBB1B51E107C0AA1FBB1FA617B707DA
:1044300010F0A61BB70B881F991F5A95A9F78095F6
:104440009095BC01CD01089597FB092E07260AD04F
:1044500077FD04D0E5DF06D000201AF47095619551
:104460007F4F0895F6F7909581959F4F08952F926D
:104470003F924F925F926F927F928F929F92AF92F4
:10448000BF92CF92DF92EF92FF920F931F93CF9341
:10449000DF93CDB7DEB7CA1BDB0B0FB6F894DEBFD8
:1044A0000FBECDBF09942A88398848885F846E84FE
:1044B0007D848C849B84AA84B984C884DF80EE8048
:1044C000FD800C811B81AA81B981CE0FD11D0FB651
:1044D000F894DEBF0FBECDBFED010895F894FFCF75
:1044E00000000000000000000001020203030303BB
:1044F0000404040404040404050505050505050574
:104500000505050505050505060606060606060653
:10451000060606060606060606060606060606063B
:104520000606060606060606070707070707070723
:10453000070707070707070707070707070707070B
:1045400007070707070707070707070707070707FB
:1045500007070707070707070707070707070707EB
:1045600007070707070707070808080808080808D3
:1045700008080808080808080808080808080808BB
:1045800008080808080808080808080808080808AB
:10459000080808080808080808080808080808089B
:1045A000080808080808080808080808080808088B
:1045B000080808080808080808080808080808087B
:1045C000080808080808080808080808080808086B
:1045D000080808080808080808080808080808085B
:1045E00008080808080808080A1F1F1F1F0E0400F3
:1045F000041F11111111111F041F111111111F1F7F
:10460000041F1111111F1F1F041F11111F1F1F1F36
:10461000041F111F1F1F1F1F041F1F1F1F1F1F1FEE
:0846200000000101050515155C
:00000001FF
