:100000000C942A000C943F000C943F000C943F0089
:100010000C943F000C943F000C943F000C943F0064
:100020000C943F000C943F000C943F000C943F0054
:100030000C943F000C943F000C943F000C943F0044
:100040000C943F000C943F000C943F000C943F0034
:100050000C943F0011241FBECFE5D8E0DEBFCDBF1A
:1000600013E0A0E6B0E0E0E0F3E402C005900D92FA
:10007000AE3AB107D9F70E94B7180C947E210C94C0
:100080000000EF92FF920F931F937B018C0120E001
:1000900030E040E05FE40E94ED0388238CF0C8016B
:1000A000B70120E030E040E05FE40E94B9010E9427
:1000B000AB049B01AC01205030404040504806C08A
:1000C000C801B7010E94AB049B01AC01B901CA0190
:1000D0001F910F91FF90EF900895A0E0B0E0E3E74B
:1000E000F0E00C94F31DDC012B01FA019C9192309D
:1000F00008F439C1EB018881823008F433C19430AF
:1001000069F4843009F02FC111969C91119789816F
:10011000981709F428C1A6E8B0E025C1843009F495
:1001200021C18230A9F4923009F01DC19A01AD01BC
:1001300088E0EA010990AE01E90109929E0181502F
:10014000C1F7E201898111969C918923818308C1BD
:10015000923009F407C112962D903C901397EB0151
:100160008A819B811496AD90BD90CD90DC901797BD
:10017000EC80FD800E811F819101281B390BB90194
:1001800037FF04C066277727621B730B6032710547
:100190000CF061C0121613066CF537014801062EEB
:1001A00004C096948794779467940A94D2F721E0D8
:1001B00030E040E050E004C0220F331F441F551FC1
:1001C0006A95D2F721503040404050402E213F21C7
:1001D00040235123211531054105510521F021E02E
:1001E00030E040E050E079018A01E628F72808294C
:1001F00019293CC0232BD1F1260E371E35014601AB
:10020000062E04C096948794779467940A94D2F744
:1002100021E030E040E050E004C0220F331F441FD3
:10022000551F6A95D2F721503040404050402A2156
:100230003B214C215D21211531054105510521F05E
:1002400021E030E040E050E059016A01A628B728DB
:10025000C828D9280BC0821593052CF01C01AA24AC
:10026000BB24650103C0EE24FF24870111969C91F5
:10027000D20111968C91981709F445C0992339F051
:10028000A80197012A193B094C095D0906C0A6017E
:1002900095012E193F09400B510B57FD08C01182E3
:1002A0003382228224833583468357831DC081E0B5
:1002B00081833382228288279927DC01821B930B5A
:1002C000A40BB50B84839583A683B7830DC0220F3F
:1002D000331F441F551F24833583468357838281F0
:1002E000938101979383828324813581468157814D
:1002F000DA01C9010197A109B1098F5F9F4FAF4F83
:10030000BF4328F30BC0918333822282EA0CFB1C8B
:100310000C1D1D1DE482F5820683178383E0808314
:10032000248135814681578157FF1AC0C901AA2708
:1003300097FDA095BA2F81709070A070B0705695FF
:10034000479537952795822B932BA42BB52B848328
:100350009583A683B7838281938101969383828359
:10036000DF0101C0D201CD01CDB7DEB7E2E10C94CF
:100370000F1EA0E2B0E0EFEBF1E00C94FF1D6983EB
:100380007A838B839C832D833E834F835887E9E058
:10039000EE2EF12CEC0EFD1ECE010196B7010E944F
:1003A0009C068E010F5E1F4FCE010596B8010E947C
:1003B0009C068A8991E089278A8BC701B801AE0122
:1003C000475E5F4F0E946D000E94C705A096E6E061
:1003D0000C941B1EA0E2B0E0E0EFF1E00C94FF1DD6
:1003E00069837A838B839C832D833E834F835887D5
:1003F000F9E0EF2EF12CEC0EFD1ECE010196B701B7
:100400000E949C068E010F5E1F4FCE010596B8011B
:100410000E949C06C701B801AE01475E5F4F0E9473
:100420006D000E94C705A096E6E00C941B1EA0E29A
:10043000B0E0EDE1F2E00C94F31D69837A838B83E5
:100440009C832D833E834F835887CE010196BE0146
:10045000675F7F4F0E949C06CE010596BE016F5ECE
:100460007F4F0E949C069985923088F0898982305E
:10047000C8F0943019F4823051F404C0843029F467
:10048000923081F486E890E0C6C0923049F420E0D2
:100490009A858A89981321E02A87CE010996BBC0E4
:1004A000823049F420E09A858A89981321E02A8BCA
:1004B000CE014196B0C02D843E844F8458886D880B
:1004C0007E888F88988CEE24FF248701AA24BB2481
:1004D000650140E050E060E070E0E0E0F0E0C10184
:1004E00081709070892BE9F0E60CF71C081D191D2E
:1004F0009A01AB012A0D3B1D4C1D5D1D80E090E073
:10050000A0E0B0E0E614F7040805190520F481E046
:1005100090E0A0E0B0E0BA01A901480F591F6A1F9E
:100520007B1FAA0CBB1CCC1CDD1C97FE08C081E005
:1005300090E0A0E0B0E0A82AB92ACA2ADB2A3196C6
:10054000E032F10549F0660C771C881C991C569422
:10055000479437942794C3CFFA85EA892B893C893D
:100560008B859C85280F391F2E5F3F4F17C0CA010E
:1005700081709070892B61F016950795F794E79438
:1005800080E090E0A0E0B0E8E82AF92A0A2B1B2BD3
:1005900076956795579547952F5F3F4F77FDE7CF46
:1005A0000CC0440F551F661F771F17FD4160EE0CEE
:1005B000FF1C001F111F21503040403090E05907B0
:1005C00090E0690790E4790760F32B8F3C8FDB01A3
:1005D000CA018F779070A070B07080349105A1052A
:1005E000B10561F447FD0AC0E114F10401051105EC
:1005F00029F0405C5F4F6F4F7F4F40781A8EFE1797
:1006000011F081E08A8F4D8F5E8F6F8F78A383E02A
:10061000898FCE0149960E94C705A096E2E10C940D
:100620000F1EA8E1B0E0E7E1F3E00C94FB1D698345
:100630007A838B839C832D833E834F835887B9E0D5
:10064000EB2EF12CEC0EFD1ECE010196B7010E949F
:100650009C068E010F5E1F4FCE010596B8010E94C9
:100660009C062985223008F47EC03989323010F486
:10067000B8017CC08A859A8989278A87243011F03D
:10068000223031F4231709F06EC066E870E06EC0C6
:10069000343039F41D861E861F86188A1C861B86F8
:1006A00004C0323021F484E08987B7015FC02B8514
:1006B0003C858B899C89281B390B3C872B87ED84D3
:1006C000FE840F851889AD88BE88CF88D88CEA143F
:1006D000FB040C051D0540F4EE0CFF1C001F111F50
:1006E000215030403C872B8720E030E040E050E054
:1006F00080E090E0A0E0B0E460E070E0EA14FB0489
:100700000C051D0540F0282B392B4A2B5B2BEA18D2
:10071000FB080C091D09B695A79597958795EE0CD2
:10072000FF1C001F111F6F5F7F4F6F31710531F785
:10073000DA01C9018F779070A070B0708034910594
:10074000A105B10561F427FD0AC0E114F10401051A
:10075000110529F0205C3F4F4F4F5F4F20782D87C8
:100760003E874F87588BBE01675F7F4FCB010E944A
:10077000C7056896EAE00C94171EA8E1B0E0E3EC28
:10078000F3E00C94FF1D69837A838B839C832D8314
:100790003E834F83588789E0E82EF12CEC0EFD1E36
:1007A000CE010196B7010E949C068E010F5E1F4F7D
:1007B000CE010596B8010E949C068985823040F0E2
:1007C0008989823028F0C701B8010E94140701C04E
:1007D0008FEF6896E6E00C941B1EA8E1B0E0E3EF13
:1007E000F3E00C94FF1D69837A838B839C832D83B4
:1007F0003E834F83588789E0E82EF12CEC0EFD1ED6
:10080000CE010196B7010E949C068E010F5E1F4F1C
:10081000CE010596B8010E949C068985823040F081
:100820008989823028F0C701B8010E94140701C0ED
:100830008FEF6896E6E00C941B1EA8E1B0E0E3E2BF
:10084000F4E00C94FF1D69837A838B839C832D8352
:100850003E834F83588789E0E82EF12CEC0EFD1E75
:10086000CE010196B7010E949C068E010F5E1F4FBC
:10087000CE010596B8010E949C068985823040F021
:100880008989823028F0C701B8010E94140701C08D
:1008900081E06896E6E00C941B1EA8E0B0E0E3E57A
:1008A000F4E00C94FC1D9B01AC0183E08983DA0128
:1008B000C9018827B7FD83959927AA27BB27B82E9A
:1008C000211531054105510519F482E089833AC0AB
:1008D0008823A9F0203080E0380780E0480780E8CE
:1008E000580729F460E070E080E09FEC30C0EE240F
:1008F000FF248701E21AF30A040B150B02C07901E9
:100900008A018EE1C82ED12CDC82CB82ED82FE8260
:100910000F831887C801B7010E9478050197181640
:10092000190684F4082E04C0EE0CFF1C001F111FD2
:100930000A94D2F7ED82FE820F831887C81AD90A6B
:10094000DC82CB82BA82CE0101960E94C70528962E
:10095000E9E00C94181EACE0B0E0E1EBF4E00C949C
:10096000031E69837A838B839C83CE010196BE012B
:100970006B5F7F4F0E949C068D81823061F18230D7
:1009800050F1843021F48E81882351F12EC02F81C3
:10099000388537FD20C06E812F3131051CF066236C
:1009A000F9F023C08EE190E0821B930B29853A85F4
:1009B0004B855C8504C056954795379527958A9554
:1009C000D2F76623B1F050954095309521953F4F71
:1009D0004F4F5F4F0EC020E030E040E050E009C0D4
:1009E0002FEF3FEF4FEF5FE704C020E030E040E043
:1009F00050E8B901CA012C96E2E00C941F1EA8E051
:100A0000B0E0E5E0F5E00C94FB1D7B018C01611585
:100A100071058105910519F482E0898360C083E046
:100A200089838EE1C82ED12CDC82CB82ED82FE82BE
:100A30000F831887C801B7010E947805FC01319720
:100A4000F7FF3BC0222733272E1B3F0B57016801BE
:100A5000022E04C0D694C794B794A7940A94D2F7F0
:100A600040E050E060E070E081E090E0A0E0B0E0C5
:100A700004C0880F991FAA1FBB1F2A95D2F70197A0
:100A8000A109B1098E219F21A023B1230097A105BF
:100A9000B10521F041E050E060E070E04A295B29B7
:100AA0006C297D294D835E836F8378878EE190E08A
:100AB0008E1B9F0B9C838B8312C0309781F00E2E70
:100AC00004C0EE0CFF1C001F111F0A94D2F7ED8228
:100AD000FE820F831887CE1ADF0ADC82CB821A824D
:100AE000CE0101960E94C7052896EAE00C94171ED5
:100AF000EF92FF920F931F937B018C0180E0E81629
:100B000080E0F80681E0080780E0180788F48FEF9E
:100B1000E816F1040105110531F028F088E090E0B5
:100B2000A0E0B0E017C080E090E0A0E0B0E012C02C
:100B300080E0E81680E0F80680E0080781E018070A
:100B400028F088E190E0A0E0B0E004C080E190E00F
:100B5000A0E0B0E020E230E040E050E0281B390B9C
:100B60004A0B5B0B04C016950795F794E7948A959A
:100B7000D2F7F701E257FF4F8081281B3109410965
:100B80005109C9011F910F91FF90EF900895DF92D5
:100B9000EF92FF920F931F93FC01E480F580068192
:100BA0001781D1808081823048F480E090E0A0E11C
:100BB000B0E0E82AF92A0A2B1B2BA5C0843009F4DF
:100BC0009FC0823021F4EE24FF24870105C0E11488
:100BD000F1040105110519F4E0E0F0E096C062812E
:100BE00073819FEF623879070CF05BC022E83FEF1A
:100BF000261B370B2A3131052CF020E030E040E095
:100C000050E02AC0B801A701022E04C0769567956E
:100C1000579547950A94D2F781E090E0A0E0B0E0C4
:100C200004C0880F991FAA1FBB1F2A95D2F70197EE
:100C3000A109B1098E219F21A023B1230097A1050D
:100C4000B10521F081E090E0A0E0B0E09A01AB01B5
:100C5000282B392B4A2B5B2BDA01C9018F77907037
:100C6000A070B07080349105A105B10539F427FF5B
:100C700009C0205C3F4F4F4F5F4F04C0215C3F4F86
:100C80004F4F5F4FE0E0F0E02030A0E03A07A0E0F7
:100C90004A07A0E45A0710F0E1E0F0E079018A0188
:100CA00027C06038710564F5FB01E158FF4FD8019A
:100CB000C7018F779070A070B07080349105A10546
:100CC000B10539F4E7FE0DC080E490E0A0E0B0E0AB
:100CD00004C08FE390E0A0E0B0E0E80EF91E0A1F28
:100CE0001B1F17FF05C016950795F794E7943196DB
:100CF00087E016950795F794E7948A95D1F705C094
:100D0000EE24FF248701EFEFF0E06E2F6795662752
:100D10006795902F9F77D794DD24D7948E2F869553
:100D2000492F462B582F5D29B701CA011F910F91FA
:100D3000FF90EF90DF900895FC01DB01408151812D
:100D40002281622F6F7770E0221F2227221F93815A
:100D5000892F880F822B282F30E0991F9927991F00
:100D600011969C93119721153105A9F5411551054F
:100D70006105710511F482E037C082E89FEF139698
:100D80009C938E9312979A01AB0167E0220F331F59
:100D9000441F551F6A95D1F783E08C930DC0220F35
:100DA000331F441F551F12968D919C9113970197E5
:100DB00013969C938E931297203080E0380780E042
:100DC000480780E4580758F314962D933D934D93AC
:100DD0005C93179708952F3F310579F4411551051C
:100DE0006105710519F484E08C93089564FF03C0D4
:100DF00081E08C9312C01C9210C02F573040139684
:100E00003C932E93129783E08C9387E0440F551FF9
:100E1000661F771F8A95D1F7706414964D935D9382
:100E20006D937C93179708951F93DC01FB019C91B0
:100E3000923008F447C08081823008F443C0943077
:100E400051F411961C91843099F58181682F70E0DE
:100E5000611B71093FC0843021F0923031F482303F
:100E6000B9F18181882389F12DC011961C911197C8
:100E70008230F1F081811817D9F412962D913C91AE
:100E80001397828193818217930794F0281739076B
:100E9000BCF014968D919D910D90BC91A02D248154
:100EA000358146815781281739074A075B0718F4AF
:100EB000112341F00AC082179307A407B50740F435
:100EC000112319F061E070E005C06FEF7FEF02C001
:100ED00060E070E0CB011F910895DF93CF93CDB711
:100EE000DEB780E064E041E00E94591980E065E0EF
:100EF00041E00E94591980E066E041E00E945919E2
:100F000080E067E041E00E94591981E061E041E042
:100F10000E94591981E062E041E00E945919CF9185
:100F2000DF910895DF93CF93CDB7DEB7AF970FB6BC
:100F3000F894DEBF0FBECDBF8DA78DA59AE0692FB7
:100F40000E94C01D8295807F8CA78DA59AE0692F95
:100F50000E94C01D892F8295807F8BA780E060EF63
:100F60004CA50E941F1B80E090E0A0E8BFE38FA388
:100F700098A7A9A7BAA76FA178A589A59AA520E0E7
:100F800030E04AEF54E40E941702DC01CB018BA34E
:100F90009CA3ADA3BEA36BA17CA18DA19EA120E0CB
:100FA00030E040E85FE30E941D0488232CF481E0D8
:100FB00090E09AA389A33FC06BA17CA18DA19EA1C3
:100FC00020E03FEF4FE757E40E94BD0318164CF5B1
:100FD0006FA178A589A59AA520E030E040E251E410
:100FE0000E941702DC01CB01BC01CD010E9441002F
:100FF000DC01CB019AA389A30FC088EC90E098A3F1
:101000008F8F8F8D98A10197F1F798A38F8F89A16A
:101010009AA101979AA389A389A19AA1009769F738
:1010200014C06BA17CA18DA19EA10E944100DC0196
:10103000CB019AA389A389A19AA19E8F8D8F8D8DB3
:101040009E8D0197F1F79E8F8D8F81E062E041E0E8
:101050000E943C1A81E061E040E00E943C1A80E07E
:1010600060EF4CA50E941F1B80E090E0A0E8BFE36A
:10107000898F9A8FAB8FBC8F698D7A8D8B8D9C8D6C
:1010800020E030E04AEF54E40E941702DC01CB017B
:101090008D8B9E8BAF8BB88F6D897E898F89988D54
:1010A00020E030E040E85FE30E941D0488232CF438
:1010B00081E090E09C8B8B8B3FC06D897E898F890E
:1010C000988D20E03FEF4FE757E40E94BD031816CC
:1010D0004CF5698D7A8D8B8D9C8D20E030E040E25F
:1010E00051E40E941702DC01CB01BC01CD010E943A
:1010F0004100DC01CB019C8B8B8B0FC088EC90E016
:101100009A8B898B89899A890197F1F79A8B898BB8
:101110008B899C8901979C8B8B8B8B899C890097F1
:1011200069F714C06D897E898F89988D0E9441006E
:10113000DC01CB019C8B8B8B8B899C89988B8F8757
:101140008F8598890197F1F7988B8F8781E062E00E
:1011500040E00E943C1A81E061E041E00E943C1ABC
:1011600080E060EF4BA50E941F1B80E090E0A0E8AC
:10117000BFE38B879C87AD87BE876B857C858D851C
:101180009E8520E030E04AEF54E40E941702DC0123
:10119000CB018F839887A987BA876F8178858985E6
:1011A0009A8520E030E040E85FE30E941D04882338
:1011B0002CF481E090E09E838D833FC06F81788521
:1011C00089859A8520E03FEF4FE757E40E94BD03F1
:1011D00018164CF56B857C858D859E8520E030E06A
:1011E00040E251E40E941702DC01CB01BC01CD01B9
:1011F0000E944100DC01CB019E838D830FC088ECEF
:1012000090E09C838B838B819C810197F1F79C8379
:101210008B838D819E8101979E838D838D819E819D
:10122000009769F714C06F81788589859A850E9437
:101230004100DC01CB019E838D838D819E819A8349
:10124000898389819A810197F1F79A838983AF967F
:101250000FB6F894DEBF0FBECDBFCF91DF910895DA
:10126000DF93CF93CDB7DEB782E062E041E00E942A
:10127000591982E067E041E00E94591983E063E078
:1012800041E00E945919CF91DF910895DF93CF93E8
:1012900000D00F92CDB7DEB789838981282F30E047
:1012A0003B832A838A819B818130910579F02A8151
:1012B0003B812230310581F08A819B81009789F43E
:1012C00082E062E041E00E943C1A0BC082E067E0ED
:1012D00041E00E943C1A05C083E063E041E00E94C7
:1012E0003C1A0F900F900F90CF91DF910895DF93EC
:1012F000CF9300D00F92CDB7DEB789838981282F95
:1013000030E03B832A838A819B818130910579F08B
:101310002A813B812230310581F08A819B810097AF
:1013200089F482E062E040E00E943C1A0BC082E057
:1013300067E040E00E943C1A05C083E063E040E0C3
:101340000E943C1A0F900F900F90CF91DF9108955B
:10135000DF93CF9300D00F92CDB7DEB78983898119
:10136000282F30E03B832A838A819B81813091053D
:1013700071F02A813B812230310571F08A819B8195
:10138000009771F482E062E00E94A41B09C082E031
:1013900067E00E94A41B04C083E063E00E94A41BDA
:1013A0000F900F900F90CF91DF910895DF93CF931F
:1013B00000D0CDB7DEB71A82198219822CC089817C
:1013C000882F90E00896880F991F880F991F880F23
:1013D000991F0E947B0D1A8218C08981482F50E006
:1013E0008A81282F30E0CA01880F991F880F991F22
:1013F000880F991F820F931FFC01E257FE4F8081D7
:101400000E94A10D8A818F5F8A838A81883028F3A8
:1014100089818F5F89838981883088F20F900F904E
:10142000CF91DF910895DF93CF93CDB7DEB7E497E7
:101430000FB6F894DEBF0FBECDBF80E064E041E0A0
:101440000E94591980E065E041E00E94591980E04E
:1014500066E041E00E94591980E067E041E00E94A7
:10146000591981E061E041E00E94591981E062E090
:1014700041E00E94591981E063E041E00E9459195E
:1014800081E062E040E00E943C1A80E090E0A0E74A
:10149000B1E489AB9AABABABBCAB69A97AA98BA918
:1014A0009CA920E030E04AEF54E40E941702DC01DE
:1014B000CB018DA79EA7AFA7B8AB6DA57EA58FA5C5
:1014C00098A920E030E040E85FE30E941D048823F3
:1014D0002CF481E090E09CA78BA73FC06DA57EA572
:1014E0008FA598A920E03FEF4FE757E40E94BD0386
:1014F00018164CF569A97AA98BA99CA920E030E0BF
:1015000040E251E40E941702DC01CB01BC01CD0195
:101510000E944100DC01CB019CA78BA70FC088EC87
:1015200090E09AA789A789A59AA50197F1F79AA7AC
:1015300089A78BA59CA501979CA78BA78BA59CA58C
:10154000009769F714C06DA57EA58FA598A90E9484
:101550004100DC01CB019CA78BA78BA59CA598A77C
:101560008FA38FA198A50197F1F798A78FA383E088
:101570000E947B0D80E090E0A0EAB0E48BA39CA3E6
:10158000ADA3BEA36BA17CA18DA19EA120E030E004
:101590004AEF54E40E941702DC01CB018F8F98A31D
:1015A000A9A3BAA36F8D78A189A19AA120E030E008
:1015B00040E85FE30E941D0488232CF481E090E062
:1015C0009E8F8D8F3FC06F8D78A189A19AA120E059
:1015D0003FEF4FE757E40E94BD0318164CF56BA18F
:1015E0007CA18DA19EA120E030E040E251E40E9468
:1015F0001702DC01CB01BC01CD010E944100DC01DE
:10160000CB019E8F8D8F0FC088EC90E09C8F8B8FCD
:101610008B8D9C8D0197F1F79C8F8B8F8D8D9E8D7F
:1016200001979E8F8D8F8D8D9E8D009769F714C0C9
:101630006F8D78A189A19AA10E944100DC01CB01A4
:101640009E8F8D8F8D8D9E8D9A8F898F898D9A8D8E
:101650000197F1F79A8F898F83E00E947B0D80E0DC
:1016600090E0A8ECB2E48D8B9E8BAF8BB88F6D8928
:101670007E898F89988D2BEA3AEA4AE250E40E94EB
:101680001702DC01CB01898B9A8BAB8BBC8B6989F0
:101690007A898B899C8920E030E040E85FE30E94F2
:1016A0001D0488231CF481E0888B91C069897A89A4
:1016B0008B899C8920E030E04FE753E40E94BD0312
:1016C00018160CF07BC06D897E898F89988D20E07B
:1016D00030E04AE754E40E941103DC01CB018C871F
:1016E0009D87AE87BF876C857D858E859F8520E031
:1016F00030E04AEF54E40E941702DC01CB018887F6
:101700009987AA87BB87688579858A859B8520E02C
:1017100030E040E85FE30E941D0488232CF481E060
:1017200090E09F838E833FC0688579858A859B85FD
:1017300020E03FEF4FE757E40E94BD0318164CF539
:101740006C857D858E859F8520E030E040E251E408
:101750000E941702DC01CB01BC01CD010E944100B7
:10176000DC01CB019F838E830FC088EC90E09D83CA
:101770008C838C819D810197F1F79D838C838E8171
:101780009F8101979F838E838E819F81009769F748
:1017900024C0688579858A859B850E944100DC018B
:1017A000CB019F838E838E819F819B838A838A81D5
:1017B0009B810197F1F79B838A830FC069897A899E
:1017C0008B899C890E944100DC01CB01888B888930
:1017D000898389818A95F1F7898383E00E947B0D53
:1017E00082E00E947B0D88E20E947B0D0E94D60958
:1017F00080E060E00E94CA0D8CE00E947B0DE496C0
:101800000FB6F894DEBF0FBECDBFCF91DF91089524
:10181000DF93CF93CDB7DEB7A6970FB6F894DEBFB0
:101820000FBECDBF81E063E041E00E943C1A80E042
:1018300090E0A0E8BFE38BA39CA3ADA3BEA36BA1E4
:101840007CA18DA19EA12BEA3AEA4AE250E40E94D3
:101850001702DC01CB018F8F98A3A9A3BAA36F8DC8
:1018600078A189A19AA120E030E040E85FE30E94DE
:101870001D0488231CF481E08E8F91C06F8D78A1A8
:1018800089A19AA120E030E04FE753E40E94BD0314
:1018900018160CF07BC06BA17CA18DA19EA120E04D
:1018A00030E04AE754E40E941103DC01CB018A8F47
:1018B0009B8FAC8FBD8F6A8D7B8D8C8D9D8D20E035
:1018C00030E04AEF54E40E941702DC01CB018E8B1A
:1018D0009F8BA88FB98F6E897F89888D998D20E025
:1018E00030E040E85FE30E941D0488232CF481E08F
:1018F00090E09D8B8C8B3FC06E897F89888D998D00
:1019000020E03FEF4FE757E40E94BD0318164CF567
:101910006A8D7B8D8C8D9D8D20E030E040E251E41E
:101920000E941702DC01CB01BC01CD010E944100E5
:10193000DC01CB019D8B8C8B0FC088EC90E09B8BE6
:101940008A8B8A899B890197F1F79B8B8A8B8C897B
:101950009D8901979D8B8C8B8C899D89009769F758
:1019600024C06E897F89888D998D0E944100DC0199
:10197000CB019D8B8C8B8C899D89998B888B8889D9
:1019800099890197F1F7998B888B0FC06F8D78A19A
:1019900089A19AA10E944100DC01CB018E8F8E8D1E
:1019A0008F878F858A95F1F78F8781E063E040E02C
:1019B0000E943C1A80E090E0A0E0B0E48B879C8716
:1019C000AD87BE876B857C858D859E8520E030E068
:1019D0004AEF54E40E941702DC01CB018F83988701
:1019E000A987BA876F81788589859A8520E030E05C
:1019F00040E85FE30E941D0488232CF481E090E01E
:101A00009E838D833FC06F81788589859A8520E08C
:101A10003FEF4FE757E40E94BD0318164CF56B8566
:101A20007C858D859E8520E030E040E251E40E9477
:101A30001702DC01CB01BC01CD010E944100DC0199
:101A4000CB019E838D830FC088EC90E09C838B83B9
:101A50008B819C810197F1F79C838B838D819E8183
:101A600001979E838D838D819E81009769F714C0B5
:101A70006F81788589859A850E944100DC01CB01C0
:101A80009E838D838D819E819A83898389819A81AA
:101A90000197F1F79A838983A6960FB6F894DEBF73
:101AA0000FBECDBFCF91DF910895DF93CF9300D0CC
:101AB0000F92CDB7DEB78B838B818A838B81829522
:101AC000807F898381E061E041E00E943C1A80E0F0
:101AD00060EF4A810E941F1B0E94080C80E060EFAB
:101AE00049810E941F1B0E94080C0F900F900F90BD
:101AF000CF91DF910895DF93CF9300D00F92CDB7B0
:101B0000DEB78B838B818A838B818295807F8983EB
:101B100081E061E040E00E943C1A80E060EF4A8191
:101B20000E941F1B0E94080C80E060EF49810E9408
:101B30001F1B0E94080C0F900F900F90CF91DF9108
:101B40000895DF93CF930F92CDB7DEB78983898154
:101B50000E94550D0F90CF91DF910895DF93CF93A1
:101B600000D0CDB7DEB79A8389830AC0E981FA81B4
:101B700080810E94A10D89819A8101969A8389832F
:101B8000E981FA818081882389F70F900F90CF91A6
:101B9000DF910895DF93CF9300D000D0CDB7DEB7AB
:101BA00089836A838981282F30E03C832B838B8152
:101BB0009C81009731F02B813C812130310531F03F
:101BC00009C08A8180580E947B0D04C08A8180549C
:101BD0000E947B0D0F900F900F900F90CF91DF918F
:101BE0000895DF93CF9300D0CDB7DEB79A83898372
:101BF00089819A8128EE33E0B9010E94CC1DCB0186
:101C0000805D0E94A10D89819A8128EE33E0B9019F
:101C10000E94CC1D24E630E0B9010E94CC1DCB010E
:101C2000805D0E94A10D89819A8128EE33E0B9017F
:101C30000E94CC1D24E630E0B9010E94CC1D2AE0B0
:101C400030E0B9010E94CC1DCB01805D0E94A10D46
:101C500089819A8128EE33E0B9010E94CC1D24E6E7
:101C600030E0B9010E94CC1D2AE030E0B9010E94A9
:101C7000CC1D805D0E94A10D0F900F90CF91DF9140
:101C80000895DF93CF93CDB7DEB72C970FB6F894B6
:101C9000DEBF0FBECDBF69877A878B879C8718868A
:101CA0001F8280E090E0A0E0B0E08B839C83AD8356
:101CB000BE831A82198269857A858B859C850E94EC
:101CC0004100DC01CB0198878F838F819885CC01FF
:101CD000A0E0B0E0BC01CD010E94FF049B01AC017B
:101CE00069857A858B859C850E94B901DC01CB01D1
:101CF0008B839C83AD83BE836B817C818D819E8130
:101D000020E030E048EC52E40E941702DC01CB01F5
:101D1000BC01CD010E944100DC01CB019A83898383
:101D20008F8198850E94F10D8EE20E94A10D89811C
:101D30009A810E94F10D2C960FB6F894DEBF0FBE6B
:101D4000CDBFCF91DF910895DF93CF9300D000D026
:101D5000CDB7DEB79A83898389819A8109968331C9
:101D6000910528F421E030E03C832B830FC089816A
:101D70009A812AE030E0B9010E94E01DCB010E9467
:101D8000A40E9C012F5F3F4F3C832B838B819C8152
:101D90000F900F900F900F90CF91DF910895DF93E8
:101DA000CF93CDB7DEB7E1970FB6F894DEBF0FBE85
:101DB000CDBF89ABEBE3F0E089A98083A5E3B0E078
:101DC000E5E3F0E080818E7F8C93A5E3B0E0E5E36E
:101DD000F0E080818D7F8C93A5E3B0E0E5E3F0E057
:101DE000808184608C9380E090E0A0EAB0E48DA7CD
:101DF0009EA7AFA7B8AB6DA57EA58FA598A92BEA26
:101E00003AEA4AE250E40E941702DC01CB0189A7BA
:101E10009AA7ABA7BCA769A57AA58BA59CA520E02E
:101E200030E040E85FE30E941D0488231CF481E059
:101E300088A791C069A57AA58BA59CA520E030E074
:101E40004FE753E40E94BD0318160CF07BC06DA54C
:101E50007EA58FA598A920E030E04AE754E40E94CF
:101E60001103DC01CB018CA39DA3AEA3BFA36CA186
:101E70007DA18EA19FA120E030E04AEF54E40E94B2
:101E80001702DC01CB0188A399A3AAA3BBA368A175
:101E900079A18AA19BA120E030E040E85FE30E94A5
:101EA0001D0488232CF481E090E09F8F8E8F3FC02B
:101EB00068A179A18AA19BA120E03FEF4FE757E4F9
:101EC0000E94BD0318164CF56CA17DA18EA19FA1A7
:101ED00020E030E040E251E40E941702DC01CB0137
:101EE000BC01CD010E944100DC01CB019F8F8E8F90
:101EF0000FC088EC90E09D8F8C8F8C8D9D8D01970D
:101F0000F1F79D8F8C8F8E8D9F8D01979F8F8E8F78
:101F10008E8D9F8D009769F724C068A179A18AA151
:101F20009BA10E944100DC01CB019F8F8E8F8E8D83
:101F30009F8D9B8F8A8F8A8D9B8D0197F1F79B8F49
:101F40008A8F0FC069A57AA58BA59CA50E94410028
:101F5000DC01CB0188A788A5898F898D8A95F1F747
:101F6000898FA5E3B0E0E5E3F0E080818B7F8C937F
:101F700080E090E0A0EAB0E48D8B9E8BAF8BB88FB1
:101F80006D897E898F89988D2BEA3AEA4AE250E47E
:101F90000E941702DC01CB01898B9A8BAB8BBC8B27
:101FA00069897A898B899C8920E030E040E85FE389
:101FB0000E941D0488231CF481E0888B91C06989EC
:101FC0007A898B899C8920E030E04FE753E40E94B6
:101FD000BD0318160CF07BC06D897E898F89988DA2
:101FE00020E030E04AE754E40E941103DC01CB0119
:101FF0008C879D87AE87BF876C857D858E859F8505
:1020000020E030E04AEF54E40E941702DC01CB01EB
:1020100088879987AA87BB87688579858A859B8504
:1020200020E030E040E85FE30E941D0488232CF4A8
:1020300081E090E09F838E833FC0688579858A85A3
:102040009B8520E03FEF4FE757E40E94BD03181641
:102050004CF56C857D858E859F8520E030E040E2E3
:1020600051E40E941702DC01CB01BC01CD010E94AA
:102070004100DC01CB019F838E830FC088EC90E090
:102080009D838C838C819D810197F1F79D838C8347
:102090008E819F8101979F838E838E819F81009780
:1020A00069F724C0688579858A859B850E944100EF
:1020B000DC01CB019F838E838E819F819B838A83EA
:1020C0008A819B810197F1F79B838A830FC069897D
:1020D0007A898B899C890E944100DC01CB01888B25
:1020E0008889898389818A95F1F78983E1960FB67A
:1020F000F894DEBF0FBECDBFCF91DF910895DF937F
:10210000CF93CDB7DEB7E1970FB6F894DEBF0FBE21
:10211000CDBF89ABEBE3F0E089A98083A5E3B0E014
:10212000E5E3F0E0808181608C93A5E3B0E0E5E336
:10213000F0E080818D7F8C93A5E3B0E0E5E3F0E0F3
:10214000808184608C9380E090E0A0EAB0E48DA769
:102150009EA7AFA7B8AB6DA57EA58FA598A92BEAC2
:102160003AEA4AE250E40E941702DC01CB0189A757
:102170009AA7ABA7BCA769A57AA58BA59CA520E0CB
:1021800030E040E85FE30E941D0488231CF481E0F6
:1021900088A791C069A57AA58BA59CA520E030E011
:1021A0004FE753E40E94BD0318160CF07BC06DA5E9
:1021B0007EA58FA598A920E030E04AE754E40E946C
:1021C0001103DC01CB018CA39DA3AEA3BFA36CA123
:1021D0007DA18EA19FA120E030E04AEF54E40E944F
:1021E0001702DC01CB0188A399A3AAA3BBA368A112
:1021F00079A18AA19BA120E030E040E85FE30E9442
:102200001D0488232CF481E090E09F8F8E8F3FC0C7
:1022100068A179A18AA19BA120E03FEF4FE757E495
:102220000E94BD0318164CF56CA17DA18EA19FA143
:1022300020E030E040E251E40E941702DC01CB01D3
:10224000BC01CD010E944100DC01CB019F8F8E8F2C
:102250000FC088EC90E09D8F8C8F8C8D9D8D0197A9
:10226000F1F79D8F8C8F8E8D9F8D01979F8F8E8F15
:102270008E8D9F8D009769F724C068A179A18AA1EE
:102280009BA10E944100DC01CB019F8F8E8F8E8D20
:102290009F8D9B8F8A8F8A8D9B8D0197F1F79B8FE6
:1022A0008A8F0FC069A57AA58BA59CA50E944100C5
:1022B000DC01CB0188A788A5898F898D8A95F1F7E4
:1022C000898FA5E3B0E0E5E3F0E080818B7F8C931C
:1022D00080E090E0A0EAB0E48D8B9E8BAF8BB88F4E
:1022E0006D897E898F89988D2BEA3AEA4AE250E41B
:1022F0000E941702DC01CB01898B9A8BAB8BBC8BC4
:1023000069897A898B899C8920E030E040E85FE325
:102310000E941D0488231CF481E0888B91C0698988
:102320007A898B899C8920E030E04FE753E40E9452
:10233000BD0318160CF07BC06D897E898F89988D3E
:1023400020E030E04AE754E40E941103DC01CB01B5
:102350008C879D87AE87BF876C857D858E859F85A1
:1023600020E030E04AEF54E40E941702DC01CB0188
:1023700088879987AA87BB87688579858A859B85A1
:1023800020E030E040E85FE30E941D0488232CF445
:1023900081E090E09F838E833FC0688579858A8540
:1023A0009B8520E03FEF4FE757E40E94BD031816DE
:1023B0004CF56C857D858E859F8520E030E040E280
:1023C00051E40E941702DC01CB01BC01CD010E9447
:1023D0004100DC01CB019F838E830FC088EC90E02D
:1023E0009D838C838C819D810197F1F79D838C83E4
:1023F0008E819F8101979F838E838E819F8100971D
:1024000069F724C0688579858A859B850E9441008B
:10241000DC01CB019F838E838E819F819B838A8386
:102420008A819B810197F1F79B838A830FC0698919
:102430007A898B899C890E944100DC01CB01888BC1
:102440008889898389818A95F1F78983E1960FB616
:10245000F894DEBF0FBECDBFCF91DF910895DF931B
:10246000CF93CDB7DEB72E970FB6F894DEBF0FBE71
:10247000CDBFEAE3F0E08FEF8083E4E3F0E08FEF9D
:102480008083A5E3B0E0E5E3F0E0808188638C938E
:1024900080E090E0A0EAB1E48B879C87AD87BE879F
:1024A0006B857C858D859E8520E030E04AEF54E485
:1024B0000E941702DC01CB018F839887A987BA8716
:1024C0006F81788589859A8520E030E040E85FE378
:1024D0000E941D0488232CF481E090E09E838D836C
:1024E0003FC06F81788589859A8520E03FEF4FE76F
:1024F00057E40E94BD0318164CF56B857C858D85CD
:102500009E8520E030E040E251E40E941702DC01A9
:10251000CB01BC01CD010E944100DC01CB019E83B7
:102520008D830FC088EC90E09C838B838B819C8192
:102530000197F1F79C838B838D819E8101979E8308
:102540008D838D819E81009769F714C06F81788596
:1025500089859A850E944100DC01CB019E838D8391
:102560008D819E819A83898389819A810197F1F770
:102570009A8389838EE30E94CF0E80E40E94CF0E5F
:1025800088EB0E94CF0E80EC0E94CF0E8FE30E945A
:10259000CF0E2E960FB6F894DEBF0FBECDBFCF91F3
:1025A000DF910895DF93CF9300D000D000D0CDB756
:1025B000DEB7A5E3B0E0E5E3F0E0808180618C93D5
:1025C000A5E3B0E0E5E3F0E08081877F8C931A8299
:1025D000198234C01E821D8219C08D8188540E94C8
:1025E000CF0E1C821B8208C080E00E947F108B816E
:1025F0009C8101969C838B838B819C818034910587
:102600009CF38D819E8101969E838D838D819E8119
:102610008830910514F3A5E3B0E0E5E3F0E08081B4
:1026200088608C93A5E3B0E0E5E3F0E080818F7EE5
:102630008C9389819A8101969A83898389819A8171
:10264000823091053CF280E40E94CF0E88EB0E941C
:10265000CF0E26960FB6F894DEBF0FBECDBFCF913A
:10266000DF910895DF93CF930F92CDB7DEB78983C3
:102670008981882379F4A5E3B0E0E5E3F0E0808187
:1026800080618C93A5E3B0E0E5E3F0E08081877F93
:102690008C930EC0A5E3B0E0E5E3F0E080818860B4
:1026A0008C93A5E3B0E0E5E3F0E080818F7E8C932E
:1026B0000F90CF91DF9108950F93DF93CF93CDB714
:1026C000DEB72C970FB6F894DEBF0FBECDBF8B835D
:1026D0007D836C835F834E83398728870A878A8549
:1026E0000E9432138B81282F30E03C872B878B850B
:1026F0009C858130910571F02B853C852230310518
:1027000089F48E8188540E94CF0E8C81805C0E9457
:10271000CF0E08C08E8187540E94CF0E8C81805CC2
:102720000E94CF0E1A82198208C080E00E947F109A
:1027300089819A8101969A83898329813A81888542
:102740009985281739078CF380E40E94CF0E2C96C8
:102750000FB6F894DEBF0FBECDBFCF91DF910F91C2
:102760000895DF93CF9300D000D00F92CDB7DEB79E
:102770009A8389837C836B834D838D810E9432137E
:102780008981805C0E94CF0E8B8188540E94CF0E7D
:102790000F900F900F900F900F90CF91DF910895B1
:1027A0000F931F93DF93CF93CDB7DEB72F970FB65D
:1027B000F894DEBF0FBECDBF8D877F876E878D8576
:1027C000882F90E088549F4F98878F831E821D82A8
:1027D00080E090E0A0E0BFE389839A83AB83BC8371
:1027E00080E00E9432138F810E94CF0E1C861B86D0
:1027F00016C28D85882F90E09695982F88279795FB
:102800008795909581959F4F85509C4F9C018D8118
:102810009E812817390708F40DC22E853F858B85C8
:102820009C85F901E80FF91F8081803209F480C08E
:1028300081E090E09A87898775C02D813E818985E6
:102840009A858901080F191F69817A818B819C8182
:1028500020E030E040E05FE30E94EA01DC01CB01D0
:10286000BC01CD010E94AB04DC01CB019695982FF1
:102870008827979587950817190709F04EC089850D
:102880009A858530910509F453C080E40E94CF0EEB
:102890002D813E8189859A85820F931F9E838D832A
:1028A000A5E3B0E0E5E3F0E0908188E089278C9330
:1028B000A5E3B0E0E5E3F0E0908180E189278C9327
:1028C0008F819885CC01A0E0B0E0BC01CD010E94D1
:1028D000FF04DC01CB01BC01CD0129813A814B8190
:1028E0005C810E94EA01DC01CB01BC01CD010E94A8
:1028F0004100DC01CB010E94CF0E69817A818B817E
:102900009C8120E030E040E05FE30E94EA01DC01CE
:10291000CB0189839A83AB83BC8389859A85019691
:102920009A87898789859A858630910508F485CFAD
:102930008D85882F90E09695982F88279795879575
:10294000909581959F4F85509C4F9C018D819E81D4
:102950002817390708F46EC12E853F858B859C8525
:10296000F901E80FF91F8081282F30E0C901880F95
:10297000991F820F931F880F991F880F991F880F27
:10298000991F820F931F8C50934082539E4F009744
:1029900059F02E853F858B859C85F901E80FF91F3D
:1029A0008081803209F076C01A8619866CC02E8527
:1029B0003F858B859C85F901E80FF91F8081882F61
:1029C00090E09C012052304049855A85C901880F0A
:1029D000991F880F991F820F931F840F951FFC0169
:1029E000E253FE4F80810E947F108D819E8101966F
:1029F0008F7390700097E9F5A5E3B0E0E5E3F0E0B0
:102A0000908188E089278C93A5E3B0E0E5E3F0E0CE
:102A1000908180E189278C938F819885CC01A0E0FB
:102A2000B0E0BC01CD010E94FF04DC01CB01BC0180
:102A3000CD0129813A814B815C810E94EA01DC0150
:102A4000CB01BC01CD010E944100DC01CB010E9401
:102A5000CF0E69817A818B819C8120E030E040E05B
:102A60005FE30E94EA01DC01CB0189839A83AB8397
:102A7000BC838D819E8101969E838D8389859A85F5
:102A800001969A87898789859A858530910508F40A
:102A90008ECFC0C01A8619866CC02E853F858B8567
:102AA0009C85F901E80FF91F8081882F90E09C0137
:102AB0002052304049855A85C901880F991F880FD7
:102AC000991F820F931F840F951FFC01E253FE4F45
:102AD00080810E947F108D819E8101968F739070FE
:102AE0000097E9F5A5E3B0E0E5E3F0E0908188E048
:102AF00089278C93A5E3B0E0E5E3F0E0908180E1E5
:102B000089278C938F819885CC01A0E0B0E0BC012F
:102B1000CD010E94FF04DC01CB01BC01CD01298164
:102B20003A814B815C810E94EA01DC01CB01BC014E
:102B3000CD010E944100DC01CB010E94CF0E6981D2
:102B40007A818B819C8120E030E040E05FE30E944D
:102B5000EA01DC01CB0189839A83AB83BC838D813D
:102B60009E8101969E838D8389859A8501969A8799
:102B7000898789859A858530910508F48ECF80E014
:102B80000E947F108D819E8101969E838D838D8111
:102B90009E818F7390700097E9F5A5E3B0E0E5E3BF
:102BA000F0E0908188E089278C93A5E3B0E0E5E32D
:102BB000F0E0908180E189278C938F819885CC010A
:102BC000A0E0B0E0BC01CD010E94FF04DC01CB011C
:102BD000BC01CD0129813A814B815C810E94EA01CF
:102BE000DC01CB01BC01CD010E944100DC01CB0125
:102BF0000E94CF0E69817A818B819C8120E030E038
:102C000040E05FE30E94EA01DC01CB0189839A8303
:102C1000AB83BC838B859C8501969C878B872E8597
:102C20003F858B859C85F901E80FF91F80818823FA
:102C300009F0DFCD80E40E94CF0E2F960FB6F894F6
:102C4000DEBF0FBECDBFCF91DF911F910F910895D1
:102C50000F93DF93CF93CDB7DEB72E970FB6F894CF
:102C6000DEBF0FBECDBF8D837F836E8359874887BC
:102C70003B872A870C871C821B828C850E9432131B
:102C8000888588540E94CF0E8E81805C0E94CF0E72
:102C90001A82198232C08D81282F30E03E872D871D
:102CA0008D859E8581309105D9F02D853E85223018
:102CB000310569F08D859E850097D1F48FEF0E94D4
:102CC0007F108B819C8101969C838B8311C08B81AB
:102CD0009C8101969C838B8380E80E947F1008C0B2
:102CE0008B819C8101969C838B8381E00E947F1065
:102CF00089819A8101969A83898329813A818A857B
:102D00009B85281739073CF280E40E94CF0E8B8107
:102D10009C812E960FB6F894DEBF0FBECDBFCF912B
:102D2000DF910F9108950F931F93DF93CF93CDB74A
:102D3000DEB7CE58D0400FB6F894DEBF0FBECDBF81
:102D4000FE01E757FF4F91838083FE01E557FF4F58
:102D500071836083FE01E357FF4F5183408300D0AE
:102D600000D000D0ADB7BEB71196CE010196119636
:102D70009C938E9380E690E013969C938E9312978B
:102D8000FE01E757FF4F8081918115969C938E93AA
:102D900014970E944E1E8DB79EB706960FB6F894F4
:102DA0009EBF0FBE8DBF00D000D000D0ADB7BEB764
:102DB0001196CE01059611969C938E9380E690E035
:102DC00013969C938E931297FE01E557FF4F8081D7
:102DD000918115969C938E9314970E944E1EADB7C9
:102DE000BEB716960FB6F894BEBF0FBEADBF19861C
:102DF0001A861B861C868CE7FE013D96DF01982F04
:102E00001D929A95E9F78E01075F1F4FCE01099633
:102E10000E94451E800F911F23E630E0B90143E078
:102E200050E00E942A1ECE0109969E012F5F3F4F5F
:102E3000B9010E94331ECE01099626E630E0B901A1
:102E40000E94331ECE010996FE01E357FF4F2081F9
:102E50003181B9010E94331ECE0109962AE630E085
:102E6000B9010E94331ECE0109969E012B5F3F4F90
:102E7000B9010E94331ECE01099620E730E0B90166
:102E80000E94331ECE010996C257DF4F0FB6F89449
:102E9000DEBF0FBECDBFCF91DF911F910F9108957F
:102EA0000F93DF93CF93CDB7DEB767970FB6F89444
:102EB000DEBF0FBECDBF9A8B898B7C8B6B8B8AE973
:102EC00099E9A9E9BEE38D879E87AF87B88B8B8987
:102ED0009C89AA2797FDA095BA2FBC01CD010E941D
:102EE0004D04DC01CB01BC01CD012D853E854F8514
:102EF00058890E941702DC01CB01BC01CD010E9460
:102F0000721EDC01CB01BC01CD010E94AB04DC01CF
:102F1000CB019C878B8724E630E08B899C89A901B3
:102F2000481B590BCA01AA2797FDA095BA2FBC01CF
:102F3000CD010E944D04DC01CB01BC01CD012D85EA
:102F40003E854F8558890E941702DC01CB01BC01E8
:102F5000CD010E94851EDC01CB01BC01CD010E9488
:102F6000AB04DC01CB019A8789878B899C898233EA
:102F7000910529F489859A8501979A87898784E044
:102F800090E098878F8388E78E831D821C8280E87B
:102F90008B838B899C8984369105E9F481E060E01C
:102FA00070E043E050E020E430E00C810E942816FD
:102FB0001D8A8C81882311F451E05D8B8D898C836F
:102FC00081E060E070E043E050E020E430E00C811C
:102FD0000E942816C2C08B899C890097E9F482E080
:102FE00060E070E045E050E020E430E00C810E94B9
:102FF00028161E8A8C81882311F441E04E8B5E894D
:103000005C8382E060E070E045E050E020E430E086
:103010000C810E942816A1C08B819D81891B8B8306
:103020001A82198292C01D828D81282F30E080E0A3
:10303000B90144E050E021E030E00C810E94281604
:10304000982F8D81890F8D838D81282F30E0EB851E
:10305000FC8581E0B90144E050E09F010C810E94B1
:103060002816982F8D81890F8D838D81282F30E030
:1030700080E0B90144E050E021E030E00C810E94A2
:103080002816982F8D81890F8D838D81282F30E010
:10309000E985FA8582E0B90144E050E09F010C81A6
:1030A0000E942816982F8D81890F8D838D81282F5E
:1030B00030E080E0B90144E050E021E030E00C81F4
:1030C0000E942816982F8D81890F8D838D81282F3E
:1030D00030E0EB85FC8581E0B90144E050E09F01E0
:1030E0000C810E942816982F8D81890F8D838D81E8
:1030F000282F30E080E0B90144E050E021E030E0EA
:103100000C810E942816982F8D81890F8D838D81C7
:10311000282F30E0E985FA8582E0B90144E050E0EB
:103120009F010C810E942816982F8D81890F8D8315
:103130001F8A8C81882311F481E08F8B4F894C8307
:1031400089819A8101969A83898329813A818F8125
:103150009885281739070CF466CF67960FB6F89450
:10316000DEBF0FBECDBFCF91DF910F910895DF93EA
:10317000CF93CDB7DEB7C35AD0400FB6F894DEBFB9
:103180000FBECDBF82E08A8790E88A85292F281B51
:10319000822F898780E190E098878F8382E390E097
:1031A0009E838D838AE590E09C838B831A821982AB
:1031B000CE010B96C156DF4F99838883CF59D040FB
:1031C000A2E7B0E0CF55DF4FB983A883C15AD04002
:1031D000B5E0CD55DF4FB883C35AD040CF55DF4F50
:1031E000E881F981C15AD0400080CF55DF4F8881F6
:1031F0009981C15AD0400196CF55DF4F998388837A
:10320000C15AD040C156DF4FA881B981CF59D040B3
:103210000C92C156DF4FE881F981CF59D0403196E9
:10322000C156DF4FF983E883CF59D040CD55DF4FEA
:10323000F881C35AD040F150CD55DF4FF883C35ABF
:10324000D040CD55DF4F2881C35AD040222331F6DC
:103250008FE0FE017096DF01282F1D922A95E9F775
:103260000E942F120E94D21280E290E060E270E091
:103270000E94331E8F8198852D813E81AE01455F6E
:103280005F4FB9010E9493169C01CE014F96B90180
:103290000E943E1E9E01215E3F4F80E0B9010E94C8
:1032A000D0138F8198852D813E81B9010E945017DE
:1032B000DBCFDF93CF9300D000D00F92CDB7DEB736
:1032C00089836A834B838981282F30E03D832C8357
:1032D0008C819D818130910509F443C02C813D8111
:1032E000223031052CF48C819D81009771F0BCC097
:1032F0002C813D812230310509F45FC08C819D8194
:103300008330910509F485C0AFC08B818823A9F46F
:10331000AAE3B0E0EAE3F0E08081482F8A81282F19
:1033200030E081E090E0022E02C0880F991F0A94DD
:10333000E2F7809584238C9397C0AAE3B0E0EAE398
:10334000F0E08081482F8A81282F30E081E090E0F2
:10335000022E02C0880F991F0A94E2F7842B8C93E7
:1033600083C08B818823A9F4A7E3B0E0E7E3F0E012
:103370008081482F8A81282F30E081E090E0022E62
:1033800002C0880F991F0A94E2F7809584238C93DA
:103390006BC0A7E3B0E0E7E3F0E08081482F8A81CB
:1033A000282F30E081E090E0022E02C0880F991FA4
:1033B0000A94E2F7842B8C9357C08B818823A9F45D
:1033C000A4E3B0E0E4E3F0E08081482F8A81282F75
:1033D00030E081E090E0022E02C0880F991F0A942D
:1033E000E2F7809584238C933FC0A4E3B0E0E4E34C
:1033F000F0E08081482F8A81282F30E081E090E042
:10340000022E02C0880F991F0A94E2F7842B8C9336
:103410002BC08B818823A9F4A1E3B0E0E1E3F0E0C5
:103420008081482F8A81282F30E081E090E0022EB1
:1034300002C0880F991F0A94E2F7809584238C9329
:1034400013C0A1E3B0E0E1E3F0E08081482F8A817E
:10345000282F30E081E090E0022E02C0880F991FF3
:103460000A94E2F7842B8C930F900F900F900F909B
:103470000F90CF91DF910895DF93CF9300D000D0CC
:103480000F92CDB7DEB789836A834B838981282F5A
:1034900030E03D832C838C819D818130910509F43E
:1034A00043C02C813D81223031052CF48C819D81DB
:1034B000009771F0BCC02C813D812230310509F4A8
:1034C0005FC08C819D818330910509F485C0AFC0B8
:1034D0008B818130A1F4ABE3B0E0EBE3F0E08081DD
:1034E000482F8A81282F30E081E090E0022E02C030
:1034F000880F991F0A94E2F7842B8C9398C0ABE352
:10350000B0E0EBE3F0E08081482F8A81282F30E0A3
:1035100081E090E0022E02C0880F991F0A94E2F722
:10352000809584238C9383C08B818130A1F4A8E3A0
:10353000B0E0E8E3F0E08081482F8A81282F30E076
:1035400081E090E0022E02C0880F991F0A94E2F7F2
:10355000842B8C936CC0A8E3B0E0E8E3F0E08081BA
:10356000482F8A81282F30E081E090E0022E02C0AF
:10357000880F991F0A94E2F7809584238C9357C093
:103580008B818130A1F4A5E3B0E0E5E3F0E0808138
:10359000482F8A81282F30E081E090E0022E02C07F
:1035A000880F991F0A94E2F7842B8C9340C0A5E3FF
:1035B000B0E0E5E3F0E08081482F8A81282F30E0F9
:1035C00081E090E0022E02C0880F991F0A94E2F772
:1035D000809584238C932BC08B818130A1F4A2E34E
:1035E000B0E0E2E3F0E08081482F8A81282F30E0CC
:1035F00081E090E0022E02C0880F991F0A94E2F742
:10360000842B8C9314C0A2E3B0E0E2E3F0E080816D
:10361000482F8A81282F30E081E090E0022E02C0FE
:10362000880F991F0A94E2F7809584238C930F905A
:103630000F900F900F900F90CF91DF910895DF932F
:10364000CF9300D000D00F92CDB7DEB789836A83C5
:103650004B838981282F30E03D832C838C819D8191
:103660008130910559F12C813D81223031052CF4B6
:103670008C819D81009769F05FC02C813D81223053
:10368000310589F18C819D818330910509F440C019
:1036900053C0ABE3B0E0EBE3F0E08081982F8A8188
:1036A000809589238C93ABE3B0E0EBE3F0E02081DD
:1036B0009B818A818923822B8C933EC0A8E3B0E052
:1036C000E8E3F0E08081982F8A81809589238C93AC
:1036D000A8E3B0E0E8E3F0E020819B818A818923C0
:1036E000822B8C9329C0A5E3B0E0E5E3F0E0808174
:1036F000982F8A81809589238C93A5E3B0E0E5E338
:10370000F0E020819B818A818923822B8C9314C0D5
:10371000A2E3B0E0E2E3F0E08081982F8A81809517
:1037200089238C93A2E3B0E0E2E3F0E020819B8167
:103730008A818923822B8C930F900F900F900F908A
:103740000F90CF91DF910895DF93CF9300D000D0F9
:10375000CDB7DEB789836A838981282F30E03C8327
:103760002B838B819C818130910549F12B813C8198
:10377000223031052CF48B819C81009761F05AC076
:103780002B813C812230310571F18B819C8183300A
:103790009105E9F14FC0ABE3B0E0EBE3F0E08081ED
:1037A000482F8A81282F30E081E090E0022E02C06D
:1037B000880F991F0A94E2F784278C933BC0A8E3F3
:1037C000B0E0E8E3F0E08081482F8A81282F30E0E4
:1037D00081E090E0022E02C0880F991F0A94E2F760
:1037E00084278C9327C0A5E3B0E0E5E3F0E0808177
:1037F000482F8A81282F30E081E090E0022E02C01D
:10380000880F991F0A94E2F784278C9313C0A2E3D0
:10381000B0E0E2E3F0E08081482F8A81282F30E099
:1038200081E090E0022E02C0880F991F0A94E2F70F
:1038300084278C930F900F900F900F90CF91DF9172
:103840000895DF93CF9300D000D00F92CDB7DEB7AD
:103850008A836B8319828A81282F30E03D832C83F1
:103860004C815D814130510579F18C819D8182309F
:10387000910534F42C813D812115310569F06BC02F
:103880004C815D8142305105B9F18C819D8183303D
:10389000910509F449C05FC0E9E3F0E08081282F79
:1038A00030E08B81882F90E0A90102C055954795A3
:1038B0008A95E2F7CA0181709070882319F081E03F
:1038C000898349C0198247C0E6E3F0E08081282F50
:1038D00030E08B81882F90E0A90102C05595479573
:1038E0008A95E2F7CA0181709070882319F081E00F
:1038F000898331C019822FC0E3E3F0E08081282F53
:1039000030E08B81882F90E0A90102C05595479542
:103910008A95E2F7CA0181709070882319F081E0DE
:10392000898319C0198217C0E0E3F0E08081282F55
:1039300030E08B81882F90E0A90102C05595479512
:103940008A95E2F7CA0181709070882319F081E0AE
:10395000898301C0198289810F900F900F900F9079
:103960000F90CF91DF910895DF93CF93CDB7DEB75E
:1039700080E063E041E00E945919CF91DF91089502
:10398000DF93CF93CDB7DEB780E063E041E00E94E4
:103990003C1ACF91DF910895DF93CF93CDB7DEB777
:1039A00080E063E040E00E943C1ACF91DF910895EF
:1039B000DF93CF93CDB7DEB780E063E00E94A41B16
:1039C000CF91DF910895DF93CF930F92CDB7DEB7FC
:1039D000198280E063E00E94211C813019F481E0AB
:1039E000898301C0198289810F90CF91DF91089559
:1039F000DF93CF93CDB7DEB781E060E040E00E9477
:103A0000591983E066E040E00E94591983E062E0C2
:103A100040E00E945919CF91DF910895DF93CF9331
:103A200000D000D0CDB7DEB78A8319828A81282FD3
:103A300030E03C832B838B819C8181309105A1F008
:103A40002B813C8122303105D1F08B819C81009704
:103A500001F581E060E00E94211C813019F481E0D1
:103A6000898317C0198215C083E066E00E94211C7B
:103A7000813019F481E089830CC019820AC083E087
:103A800062E00E94211C813019F481E0898301C029
:103A9000198289810F900F900F900F90CF91DF9135
:103AA0000895DF93CF93CDB7DEB7E3E5F0E0A3E56C
:103AB000B0E08C918083CF91DF910895DF93CF9315
:103AC0000F92CDB7DEB78983A3E5B0E0E3E5F0E080
:103AD00090818981892B8C930F90CF91DF910895EC
:103AE000DF93CF93CDB7DEB7A3E5B0E0E3E5F0E039
:103AF00080818C7F8C93CF91DF910895DF93CF935A
:103B00000F92CDB7DEB78983E2E5F0E0898180834B
:103B10000F90CF91DF910895DF93CF93CDB7DEB7AC
:103B2000E2E5F0E08081CF91DF910895DF93CF93BC
:103B3000CDB7DEB7A9E5B0E0E9E5F0E080818160CE
:103B40008C93CF91DF910895DF93CF93CDB7DEB7FC
:103B5000A9E5B0E0E9E5F0E080818E7F8C93CF911C
:103B6000DF910895DF93CF930F92CDB7DEB78983AE
:103B7000ECE5F0E0898180830F90CF91DF9108958B
:103B8000991B79E004C0991F961708F0961B881FAF
:103B90007A95C9F780950895AA1BBB1B51E107C010
:103BA000AA1FBB1FA617B70710F0A61BB70B881FCD
:103BB000991F5A95A9F780959095BC01CD0108955C
:103BC00097FB092E07260AD077FD04D0E5DF06D043
:103BD00000201AF4709561957F4F0895F6F790953F
:103BE00081959F4F08952F923F924F925F926F92CF
:103BF0007F928F929F92AF92BF92CF92DF92EF927D
:103C0000FF920F931F93CF93DF93CDB7DEB7CA1BFD
:103C1000DB0B0FB6F894DEBF0FBECDBF09942A8828
:103C2000398848885F846E847D848C849B84AA84D0
:103C3000B984C884DF80EE80FD800C811B81AA815D
:103C4000B981CE0FD11D0FB6F894DEBF0FBECDBF28
:103C5000ED010895FB01DC0102C001900D9241507D
:103C60005040D8F70895FB01DC010D900020E9F7E2
:103C7000119701900D920020E1F70895FB01DC01FE
:103C800001900D920020E1F70895FC0101900020C1
:103C9000E9F7809590958E0F9F1F0895AEE0B0E0F4
:103CA000E4E5FEE10C94011E0D891E8986E08C83FB
:103CB0001A8309838FEF9FE79E838D839E01275E82
:103CC0003F4FCE0101966F89788DA9010E94DF1EBA
:103CD0002F813885020F131FF80110822E96E4E021
:103CE0000C941D1E4ED080F09F3740F491110EF4BD
:103CF00060C060E070E080E89FE3089526F01B1646
:103D0000611D711D811D14C02EC03BD080F09F37F6
:103D100040F491110EF04DC060E070E080E89FEB40
:103D2000089526F41B16611D711D811D01C01BC065
:103D3000882371F4772321F09850872B762F07C0C2
:103D4000662311F499270DC09051862B70E060E036
:103D50002AF09A95660F771F881FDAF7880F9695D5
:103D6000879597F908959F3F31F0915020F48795FA
:103D700077956795B795880F911D9695879597F9D3
:103D80000895A2D2A0F0BEE7B91788F4BB279F38E8
:103D900060F41616B11D672F782F8827985FF7CF2C
:103DA000869577956795B11D93959639C8F30895D3
:103DB000E894BB2766277727CB0197F90895ABE0F6
:103DC000B0E0E5EEFEE10C94F31D3C012B015A013D
:103DD000FC0117821682838181FD03C06FEF7FEFA4
:103DE000C6C19AE0892E1E010894211C311CF301E2
:103DF0002381F20123FD859123FF81912F018823E7
:103E000009F4B2C1853239F423FD859123FF8191F4
:103E10002F01853229F490E0B3010E94D220E7CF30
:103E2000982FFF24EE249924FFE1FF15D0F09B3258
:103E300069F09C3228F4903259F0933291F40EC01C
:103E40009D3249F0903369F441E024C052E0F52AF4
:103E500084E0F82A28C098E0F92A25C0E0E1FE2A8B
:103E600022C0F7FC29C0892F80538A3070F4F6FEF7
:103E700005C0989C902C1124980E15C0E89CE02C4D
:103E80001124E80EF0E2FF2A0EC09E3229F4F6FC5F
:103E90006BC140E4F42A07C09C3619F450E8F52AB7
:103EA00002C0983649F4F20123FD959123FF9191C8
:103EB0002F01992309F0B8CF892F8554833018F04A
:103EC0008052833038F444E050E0A40EB51E5FE326
:103ED00059830FC0933631F0933779F0933509F059
:103EE00056C020C0F5018081898342E050E0A40ED5
:103EF000B51E610101E010E012C0F501C080D18063
:103F0000F6FC03C06FEF7FEF02C0692D70E042E066
:103F100050E0A40EB51EC6010E94C7208C015FE7C9
:103F2000F52214C0F501C080D180F6FC03C06FEF0C
:103F30007FEF02C0692D70E042E050E0A40EB51E94
:103F4000C6010E94BC208C0150E8F52AF3FE07C090
:103F50001AC080E290E0B3010E94D220EA948E2D34
:103F600090E008171907A8F30EC0F601F7FC859139
:103F7000F7FE81916F0190E0B3010E94D220E11021
:103F8000EA94015010400115110579F7EAC0943602
:103F900011F0993669F5F7FE08C0F50120813181ED
:103FA0004281538184E090E00AC0F50180819181D3
:103FB0009C01442737FD4095542F82E090E0A80EE5
:103FC000B91E9FE6F92257FF09C0509540953095DC
:103FD00021953F4F4F4F5F4FE0E8FE2ACA01B901DC
:103FE000A1012AE030E00E94FE20D82ED21840C065
:103FF000953729F41F2D1F7E2AE030E01DC01F2DAC
:10400000197F9F3661F0903720F4983509F0ACC0E5
:104010000FC0903739F0983709F0A6C004C028E0E7
:1040200030E00AC0106114FD146020E130E004C0EB
:1040300014FD166020E132E017FF08C0F501608131
:1040400071818281938144E050E008C0F501808154
:104050009181BC0180E090E042E050E0A40EB51EEA
:10406000A1010E94FE20D82ED2188FE7F82EF1224F
:10407000F6FE0BC05EEFF522D91438F4F4FE07C04B
:10408000F2FC05C08FEEF82202C01D2D01C0192DD3
:10409000F4FE0DC0FE01ED0DF11D8081803319F499
:1040A00099EEF92208C01F5FF2FE05C003C08F2DF4
:1040B000867809F01F5F0F2DF3FC14C0F0FE0FC0CF
:1040C0001E1510F09D2C0BC09D2C9E0C911A1E2DC0
:1040D00006C080E290E0B3010E94D2201F5F1E154F
:1040E000C0F304C01E1510F4E11A01C0EE2404FF51
:1040F0000FC080E390E0B3010E94D22002FF1DC0F8
:1041000001FD03C088E790E00EC088E590E00BC099
:10411000802F867891F001FF02C08BE201C080E21F
:10412000F7FC8DE290E0B3010E94D22006C080E34C
:1041300090E0B3010E94D2209A94D914C0F3DA948B
:10414000F101ED0DF11D808190E0B3010E94D220BC
:10415000DD20A9F706C080E290E0B3010E94D220E2
:10416000EA94EE20C1F743CEF30166817781CB015B
:104170002B96E2E10C940F1EFC01059061507040FB
:104180000110D8F7809590958E0F9F1F0895FC0120
:104190006150704001900110D8F7809590958E0F76
:1041A0009F1F08950F931F93CF93DF938C01EB0113
:1041B0008B8181FF1BC082FF0DC02E813F818C81CE
:1041C0009D812817390764F4E881F9810193F98307
:1041D000E88306C0E885F985802F0995892B31F49D
:1041E0008E819F8101969F838E8302C00FEF1FEF08
:1041F000C801DF91CF911F910F910895FA01AA276D
:10420000283051F1203181F1E8946F936E7F6E5F19
:104210007F4F8F4F9F4FAF4FB1E03ED0B4E03CD0C7
:10422000670F781F891F9A1FA11D680F791F8A1FAA
:10423000911DA11D6A0F711D811D911DA11D20D011
:1042400009F468943F912AE0269F11243019305DCB
:104250003193DEF6CF010895462F4770405D4193BC
:10426000B3E00FD0C9F7F6CF462F4F70405D4A3309
:1042700018F0495D31FD4052419302D0A9F7EACFD1
:10428000B4E0A6959795879577956795BA95C9F700
:1042900000976105710508959B01AC010A2E0694F3
:1042A0005795479537952795BA95C9F7620F731FAC
:1042B000841F951FA01D089557FD9058440F551F4A
:1042C00059F05F3F71F04795880F97FB991F61F098
:1042D0009F3F79F087950895121613061406551F0F
:1042E000F2CF4695F1DF08C0161617061806991F7B
:1042F000F1CF86957105610508940895F894FFCF74
:10430000256400463A004B487A00447574793A00B7
:1043100025002020202000000000000000000000F8
:10432000000000000000000000000000000000018C
:104330000202030303030404040404040404050543
:10434000050505050505050505050505050506061B
:1043500006060606060606060606060606060606FD
:1043600006060606060606060606060606060707EB
:1043700007070707070707070707070707070707CD
:1043800007070707070707070707070707070707BD
:1043900007070707070707070707070707070707AD
:1043A000070707070707070707070707070708089B
:1043B000080808080808080808080808080808087D
:1043C000080808080808080808080808080808086D
:1043D000080808080808080808080808080808085D
:1043E000080808080808080808080808080808084D
:1043F000080808080808080808080808080808083D
:10440000080808080808080808080808080808082C
:10441000080808080808080808080808080808081C
:1044200008080808080808080808080808080A1FF3
:104430001F1F1F0E0400041F11111111111F041F53
:10444000111111111F1F041F1111111F1F1F041F14
:1044500011111F1F1F1F041F111F1F1F1F1F041FCC
:104460001F1F1F1F1F1F000001010505151500005C
:1044700000000000005F00000007000700147F1428
:104480007F14242A7F2A1223130864623649552296
:10449000500005030000001C2241000041221C00C6
:1044A00014083E081408083E0808005030000008B0
:1044B00008080808006060000020100804023E514F
:1044C00049453E00427F40004261514946214145F5
:1044D0004B311814127F1027454545393C4A49494C
:1044E0003001710905033649494936064949291EF3
:1044F0000036360000005636000008142241001431
:1045000014141414004122140802015109063249FE
:1045100079413E7E1111117E7F494949363E414124
:1045200041227F4141221C7F494949417F090909B4
:10453000013E4149497A7F0808087F00417F4100D8
:104540002040413F017F081422417F404040407F8E
:10455000020C027F7F0408107F3E4141413E7F09EB
:104560000909063E4151215E7F09192946464949FC
:10457000493101017F01013F4040403F1F20402061
:104580001F3F4038403F6314081463070870080752
:104590006151494543007F41410002040810200059
:1045A00041417F00040201020440404040400001BC
:1045B00002040020545454787F484444383844441A
:1045C0004420384444487F3854545418087E090124
:1045D000020C5252523E7F0804047800447D400091
:1045E0002040443D007F1028440000417F40007C73
:1045F000041804787C0804047838444444387C1453
:10460000141408081414187C7C0804040848545432
:104610005420043F4440203C4040207C1C2040204B
:104620001C3C4030403C44281028440C5050503C26
:104630004464544C44000836410000007F000000F0
:0E4640004136080010080810087846414678F8
:00000001FF
