:100000000C942A000C943F000C943F000C943F0089
:100010000C943F000C943F000C943F000C943F0064
:100020000C943F000C943F000C943F000C943F0054
:100030000C943F000C943F000C943F000C943F0044
:100040000C943F000C943F000C943F000C943F0034
:100050000C943F0011241FBECFE5D8E0DEBFCDBF1A
:1000600013E0A0E6B0E0EAE3F0E402C005900D92F0
:10007000A03BB107D9F70E94C1170C941B200C9428
:100080000000EF92FF920F931F937B018C0120E001
:1000900030E040E05FE40E94ED0388238CF0C8016B
:1000A000B70120E030E040E05FE40E94B9010E9427
:1000B0004D049B01AC01205030404040504806C0E8
:1000C000C801B7010E944D049B01AC01B901CA01EE
:1000D0001F910F91FF90EF900895A0E0B0E0E3E74B
:1000E000F0E00C941F1DDC012B01FA019C91923071
:1000F00008F439C1EB018881823008F433C19430AF
:1001000069F4843009F02FC111969C91119789816F
:10011000981709F428C1A7E8B0E025C1843009F494
:1001200021C18230A9F4923009F01DC19A01AD01BC
:1001300088E0EA010990AE01E90109929E0181502F
:10014000C1F7E201898111969C918923818308C1BD
:10015000923009F407C112962D903C901397EB0151
:100160008A819B811496AD90BD90CD90DC901797BD
:10017000EC80FD800E811F819101281B390BB90194
:1001800037FF04C066277727621B730B6032710547
:100190000CF061C0121613066CF537014801062EEB
:1001A00004C096948794779467940A94D2F721E0D8
:1001B00030E040E050E004C0220F331F441F551FC1
:1001C0006A95D2F721503040404050402E213F21C7
:1001D00040235123211531054105510521F021E02E
:1001E00030E040E050E079018A01E628F72808294C
:1001F00019293CC0232BD1F1260E371E35014601AB
:10020000062E04C096948794779467940A94D2F744
:1002100021E030E040E050E004C0220F331F441FD3
:10022000551F6A95D2F721503040404050402A2156
:100230003B214C215D21211531054105510521F05E
:1002400021E030E040E050E059016A01A628B728DB
:10025000C828D9280BC0821593052CF01C01AA24AC
:10026000BB24650103C0EE24FF24870111969C91F5
:10027000D20111968C91981709F445C0992339F051
:10028000A80197012A193B094C095D0906C0A6017E
:1002900095012E193F09400B510B57FD08C01182E3
:1002A0003382228224833583468357831DC081E0B5
:1002B00081833382228288279927DC01821B930B5A
:1002C000A40BB50B84839583A683B7830DC0220F3F
:1002D000331F441F551F24833583468357838281F0
:1002E000938101979383828324813581468157814D
:1002F000DA01C9010197A109B1098F5F9F4FAF4F83
:10030000BF4328F30BC0918333822282EA0CFB1C8B
:100310000C1D1D1DE482F5820683178383E0808314
:10032000248135814681578157FF1AC0C901AA2708
:1003300097FDA095BA2F81709070A070B0705695FF
:10034000479537952795822B932BA42BB52B848328
:100350009583A683B7838281938101969383828359
:10036000DF0101C0D201CD01CDB7DEB7E2E10C94CF
:100370003B1DA0E2B0E0EFEBF1E00C942B1D698394
:100380007A838B839C832D833E834F835887E9E058
:10039000EE2EF12CEC0EFD1ECE010196B7010E944F
:1003A0003E068E010F5E1F4FCE010596B8010E94DA
:1003B0003E068A8991E089278A8BC701B801AE0180
:1003C000475E5F4F0E946D000E946905A096E6E0BF
:1003D0000C94471DA0E2B0E0E0EFF1E00C942B1D7F
:1003E00069837A838B839C832D833E834F835887D5
:1003F000F9E0EF2EF12CEC0EFD1ECE010196B701B7
:100400000E943E068E010F5E1F4FCE010596B80179
:100410000E943E06C701B801AE01475E5F4F0E94D1
:100420006D000E946905A096E6E00C94471DA0E2CD
:10043000B0E0EDE1F2E00C941F1D69837A838B83B9
:100440009C832D833E834F835887CE010196BE0146
:10045000675F7F4F0E943E06CE010596BE016F5E2C
:100460007F4F0E943E069985923088F089898230BC
:10047000C8F0943019F4823051F404C0843029F467
:10048000923081F487E890E0C6C0923049F420E0D1
:100490009A858A89981321E02A87CE010996BBC0E4
:1004A000823049F420E09A858A89981321E02A8BCA
:1004B000CE014196B0C02D843E844F8458886D880B
:1004C0007E888F88988CEE24FF248701AA24BB2481
:1004D000650140E050E060E070E0E0E0F0E0C10184
:1004E00081709070892BE9F0E60CF71C081D191D2E
:1004F0009A01AB012A0D3B1D4C1D5D1D80E090E073
:10050000A0E0B0E0E614F7040805190520F481E046
:1005100090E0A0E0B0E0BA01A901480F591F6A1F9E
:100520007B1FAA0CBB1CCC1CDD1C97FE08C081E005
:1005300090E0A0E0B0E0A82AB92ACA2ADB2A3196C6
:10054000E032F10549F0660C771C881C991C569422
:10055000479437942794C3CFFA85EA892B893C893D
:100560008B859C85280F391F2E5F3F4F17C0CA010E
:1005700081709070892B61F016950795F794E79438
:1005800080E090E0A0E0B0E8E82AF92A0A2B1B2BD3
:1005900076956795579547952F5F3F4F77FDE7CF46
:1005A0000CC0440F551F661F771F17FD4160EE0CEE
:1005B000FF1C001F111F21503040403090E05907B0
:1005C00090E0690790E4790760F32B8F3C8FDB01A3
:1005D000CA018F779070A070B07080349105A1052A
:1005E000B10561F447FD0AC0E114F10401051105EC
:1005F00029F0405C5F4F6F4F7F4F40781A8EFE1797
:1006000011F081E08A8F4D8F5E8F6F8F78A383E02A
:10061000898FCE0149960E946905A096E2E10C946B
:100620003B1DA8E1B0E0E7E1F3E00C94271D6983EE
:100630007A838B839C832D833E834F835887B9E0D5
:10064000EB2EF12CEC0EFD1ECE010196B7010E949F
:100650003E068E010F5E1F4FCE010596B8010E9427
:100660003E062985223008F47EC03989323010F4E4
:10067000B8017CC08A859A8989278A87243011F03D
:10068000223031F4231709F06EC067E870E06EC0C5
:10069000343039F41D861E861F86188A1C861B86F8
:1006A00004C0323021F484E08987B7015FC02B8514
:1006B0003C858B899C89281B390B3C872B87ED84D3
:1006C000FE840F851889AD88BE88CF88D88CEA143F
:1006D000FB040C051D0540F4EE0CFF1C001F111F50
:1006E000215030403C872B8720E030E040E050E054
:1006F00080E090E0A0E0B0E460E070E0EA14FB0489
:100700000C051D0540F0282B392B4A2B5B2BEA18D2
:10071000FB080C091D09B695A79597958795EE0CD2
:10072000FF1C001F111F6F5F7F4F6F31710531F785
:10073000DA01C9018F779070A070B0708034910594
:10074000A105B10561F427FD0AC0E114F10401051A
:10075000110529F0205C3F4F4F4F5F4F20782D87C8
:100760003E874F87588BBE01675F7F4FCB010E944A
:1007700069056896EAE00C94431DA8E1B0E0E3EC5B
:10078000F3E00C942B1D69837A838B839C832D83E8
:100790003E834F83588789E0E82EF12CEC0EFD1E36
:1007A000CE010196B7010E943E068E010F5E1F4FDB
:1007B000CE010596B8010E943E068985823040F040
:1007C0008989823028F0C701B8010E94B60601C0AD
:1007D0008FEF6896E6E00C94471DA8E1B0E0E3EFE8
:1007E000F3E00C942B1D69837A838B839C832D8388
:1007F0003E834F83588789E0E82EF12CEC0EFD1ED6
:10080000CE010196B7010E943E068E010F5E1F4F7A
:10081000CE010596B8010E943E068985823040F0DF
:100820008989823028F0C701B8010E94B60601C04C
:100830008FEF6896E6E00C94471DA8E1B0E0E3E294
:10084000F4E00C942B1D69837A838B839C832D8326
:100850003E834F83588789E0E82EF12CEC0EFD1E75
:10086000CE010196B7010E943E068E010F5E1F4F1A
:10087000CE010596B8010E943E068985823040F07F
:100880008989823028F0C701B8010E94B60601C0EC
:1008900081E06896E6E00C94471DACE0B0E0E3E54B
:1008A000F4E00C942F1D69837A838B839C83CE01A3
:1008B0000196BE016B5F7F4F0E943E068D818230A4
:1008C00061F1823050F1843021F48E81882351F11E
:1008D0002EC02F81388537FD20C06E812F31310524
:1008E0001CF06623F9F023C08EE190E0821B930B8D
:1008F00029853A854B855C8504C056954795379583
:1009000027958A95D2F76623B1F05095409530959A
:1009100021953F4F4F4F5F4F0EC020E030E040E049
:1009200050E009C02FEF3FEF4FEF5FE704C020E03A
:1009300030E040E050E8B901CA012C96E2E00C94A6
:100940004B1DA8E0B0E0E7EAF4E00C94271D7B0122
:100950008C01611571058105910519F482E0898387
:1009600060C083E089838EE1C82ED12CDC82CB82EB
:10097000ED82FE820F831887C801B7010E941A0515
:10098000FC013197F7FF3BC0222733272E1B3F0B7B
:1009900057016801022E04C0D694C794B794A79457
:1009A0000A94D2F740E050E060E070E081E090E02F
:1009B000A0E0B0E004C0880F991FAA1FBB1F2A95B2
:1009C000D2F70197A109B1098E219F21A023B1235C
:1009D0000097A105B10521F041E050E060E070E032
:1009E0004A295B296C297D294D835E836F83788733
:1009F0008EE190E08E1B9F0B9C838B8312C03097FF
:100A000081F00E2E04C0EE0CFF1C001F111F0A9473
:100A1000D2F7ED82FE820F831887CE1ADF0ADC82BE
:100A2000CB821A82CE0101960E9469052896EAE0DF
:100A30000C94431DEF92FF920F931F937B018C0147
:100A400080E0E81680E0F80681E0080780E01807FB
:100A500088F48FEFE816F1040105110531F028F054
:100A600088E090E0A0E0B0E017C080E090E0A0E077
:100A7000B0E012C080E0E81680E0F80680E00807E9
:100A800081E0180728F088E190E0A0E0B0E004C021
:100A900080E190E0A0E0B0E020E230E040E050E013
:100AA000281B390B4A0B5B0B04C016950795F7946E
:100AB000E7948A95D2F7F701E157FF4F8081281B11
:100AC000310941095109C9011F910F91FF90EF9020
:100AD0000895DF92EF92FF920F931F93FC01E48041
:100AE000F58006811781D1808081823048F480E0D2
:100AF00090E0A0E1B0E0E82AF92A0A2B1B2BA5C060
:100B0000843009F49FC0823021F4EE24FF24870151
:100B100005C0E114F1040105110519F4E0E0F0E06D
:100B200096C0628173819FEF623879070CF05BC0D9
:100B300022E83FEF261B370B2A3131052CF020E04D
:100B400030E040E050E02AC0B801A701022E04C006
:100B500076956795579547950A94D2F781E090E08E
:100B6000A0E0B0E004C0880F991FAA1FBB1F2A9500
:100B7000D2F70197A109B1098E219F21A023B123AA
:100B80000097A105B10521F081E090E0A0E0B0E080
:100B90009A01AB01282B392B4A2B5B2BDA01C901B7
:100BA0008F779070A070B07080349105A105B10569
:100BB00039F427FF09C0205C3F4F4F4F5F4F04C0FF
:100BC000215C3F4F4F4F5F4FE0E0F0E02030A0E06E
:100BD0003A07A0E04A07A0E45A0710F0E1E0F0E08D
:100BE00079018A0127C06038710564F5FB01E1587D
:100BF000FF4FD801C7018F779070A070B07080341C
:100C00009105A105B10539F4E7FE0DC080E490E03F
:100C1000A0E0B0E004C08FE390E0A0E0B0E0E80E18
:100C2000F91E0A1F1B1F17FF05C016950795F7949D
:100C3000E794319687E016950795F794E7948A959F
:100C4000D1F705C0EE24FF248701EFEFF0E06E2F0F
:100C5000679566276795902F9F77D794DD24D79463
:100C60008E2F8695492F462B582F5D29B701CA0133
:100C70001F910F91FF90EF90DF900895FC01DB0131
:100C8000408151812281622F6F7770E0221F2227DD
:100C9000221F9381892F880F822B282F30E0991FE4
:100CA0009927991F11969C93119721153105A9F544
:100CB000411551056105710511F482E037C082E8E4
:100CC0009FEF13969C938E9312979A01AB0167E066
:100CD000220F331F441F551F6A95D1F783E08C9371
:100CE0000DC0220F331F441F551F12968D919C91EA
:100CF0001397019713969C938E931297203080E060
:100D0000380780E0480780E4580758F314962D937D
:100D10003D934D935C93179708952F3F310579F4D8
:100D2000411551056105710519F484E08C9308950E
:100D300064FF03C081E08C9312C01C9210C02F5737
:100D4000304013963C932E93129783E08C9387E068
:100D5000440F551F661F771F8A95D1F7706414964C
:100D60004D935D936D937C93179708951F93DC01CA
:100D7000FB019C91923008F447C08081823008F4D6
:100D800043C0943051F411961C91843099F58181BF
:100D9000682F70E0611B71093FC0843021F09230F0
:100DA00031F48230B9F18181882389F12DC0119607
:100DB0001C9111978230F1F081811817D9F41296A5
:100DC0002D913C911397828193818217930794F020
:100DD00028173907BCF014968D919D910D90BC9108
:100DE000A02D2481358146815781281739074A076C
:100DF0005B0718F4112341F00AC082179307A40778
:100E0000B50740F4112319F061E070E005C06FEF01
:100E10007FEF02C060E070E0CB011F910895DF9387
:100E2000CF93CDB7DEB780E064E041E00E94851843
:100E300080E065E041E00E94851880E066E041E0E6
:100E40000E94851880E067E041E00E94851881E0FB
:100E500061E041E00E94851881E062E041E00E948B
:100E60008518CF91DF910895DF93CF93CDB7DEB78B
:100E7000AF970FB6F894DEBF0FBECDBF8DA78DA57F
:100E80009AE0692F0E94EC1C8295807F8CA78DA52B
:100E90009AE0692F0E94EC1C892F8295807F8BA796
:100EA00080E060EF4CA50E944B1A80E090E0A0E843
:100EB000BFE38FA398A7A9A7BAA76FA178A589A513
:100EC0009AA520E030E04AEF54E40E941702DC01CA
:100ED000CB018BA39CA3ADA3BEA36BA17CA18DA1D1
:100EE0009EA120E030E040E85FE30E941D048823DB
:100EF0002CF481E090E09AA389A33FC06BA17CA170
:100F00008DA19EA120E03FEF4FE757E40E94BD0373
:100F100018164CF56FA178A589A59AA520E030E0B8
:100F200040E251E40E941702DC01CB01BC01CD017B
:100F30000E944100DC01CB019AA389A30FC088EC79
:100F400090E098A38F8F8F8D98A10197F1F798A3C8
:100F50008F8F89A19AA101979AA389A389A19AA1A8
:100F6000009769F714C06BA17CA18DA19EA10E947E
:100F70004100DC01CB019AA389A389A19AA19E8F8C
:100F80008D8F8D8D9E8D0197F1F79E8F8D8F81E0D6
:100F900062E041E00E94681981E061E040E00E9467
:100FA000681980E060EF4CA50E944B1A80E090E049
:100FB000A0E8BFE3898F9A8FAB8FBC8F698D7A8D44
:100FC0008B8D9C8D20E030E04AEF54E40E941702A4
:100FD000DC01CB018D8B9E8BAF8BB88F6D897E89A9
:100FE0008F89988D20E030E040E85FE30E941D0487
:100FF00088232CF481E090E09C8B8B8B3FC06D8923
:101000007E898F89988D20E03FEF4FE757E40E945B
:10101000BD0318164CF5698D7A8D8B8D9C8D20E063
:1010200030E040E251E40E941702DC01CB01BC0138
:10103000CD010E944100DC01CB019C8B8B8B0FC04A
:1010400088EC90E09A8B898B89899A890197F1F7CE
:101050009A8B898B8B899C8901979C8B8B8B8B8935
:101060009C89009769F714C06D897E898F89988D56
:101070000E944100DC01CB019C8B8B8B8B899C896E
:10108000988B8F878F8598890197F1F7988B8F8739
:1010900081E062E040E00E94681981E061E041E0A7
:1010A0000E94681980E060EF4BA50E944B1A80E017
:1010B00090E0A0E8BFE38B879C87AD87BE876B85F8
:1010C0007C858D859E8520E030E04AEF54E40E94C7
:1010D0001702DC01CB018F839887A987BA876F81BC
:1010E000788589859A8520E030E040E85FE30E94BA
:1010F0001D0488232CF481E090E09E838D833FC003
:101100006F81788589859A8520E03FEF4FE757E426
:101110000E94BD0318164CF56B857C858D859E85D8
:1011200020E030E040E251E40E941702DC01CB01F4
:10113000BC01CD010E944100DC01CB019E838D8367
:101140000FC088EC90E09C838B838B819C810197FE
:10115000F1F79C838B838D819E8101979E838D8384
:101160008D819E81009769F714C06F81788589858C
:101170009A850E944100DC01CB019E838D838D8185
:101180009E819A83898389819A810197F1F79A8355
:101190008983AF960FB6F894DEBF0FBECDBFCF9157
:1011A000DF910895DF93CF93CDB7DEB782E062E0A1
:1011B00041E00E94851882E067E041E00E948518C6
:1011C00083E063E041E00E948518CF91DF910895AC
:1011D000DF93CF9300D00F92CDB7DEB7898389819B
:1011E000282F30E03B832A838A819B8181309105BF
:1011F00079F02A813B812230310581F08A819B81FF
:10120000009789F482E062E041E00E9468190BC017
:1012100082E067E041E00E94681905C083E063E076
:1012200041E00E9468190F900F900F90CF91DF91CD
:101230000895DF93CF9300D00F92CDB7DEB78983A7
:101240008981282F30E03B832A838A819B818130EA
:10125000910579F02A813B812230310581F08A8124
:101260009B81009789F482E062E040E00E94681967
:101270000BC082E067E040E00E94681905C083E08F
:1012800063E040E00E9468190F900F900F90CF919B
:10129000DF910895DF93CF9300D00F92CDB7DEB7E3
:1012A00089838981282F30E03B832A838A819B812F
:1012B0008130910571F02A813B812230310571F036
:1012C0008A819B81009771F482E062E00E94D01ACB
:1012D00009C082E067E00E94D01A04C083E063E0A6
:1012E0000E94D01A0F900F900F90CF91DF91089528
:1012F000DF93CF9300D0CDB7DEB71A82198219825F
:101300002CC08981882F90E00896880F991F880F3C
:10131000991F880F991F0E941D0D1A8218C089817C
:10132000482F50E08A81282F30E0CA01880F991F8A
:10133000880F991F880F991F820F931FFC01E15797
:10134000FE4F80810E94430D8A818F5F8A838A814C
:10135000883028F389818F5F89838981883088F27A
:101360000F900F90CF91DF910895DF93CF93CDB77A
:10137000DEB7E4970FB6F894DEBF0FBECDBF80E0B6
:1013800064E041E00E94851880E065E041E00E9451
:10139000851880E066E041E00E94851880E067E003
:1013A00041E00E94851881E061E041E00E948518DB
:1013B00081E062E041E00E94851881E063E041E065
:1013C0000E94851881E062E040E00E94681980E098
:1013D00090E0A0E7B1E489AB9AABABABBCAB69A939
:1013E0007AA98BA99CA920E030E04AEF54E40E943E
:1013F0001702DC01CB018DA79EA7AFA7B8AB6DA5E7
:101400007EA58FA598A920E030E040E85FE30E9428
:101410001D0488232CF481E090E09CA78BA73FC09B
:101420006DA57EA58FA598A920E03FEF4FE757E473
:101430000E94BD0318164CF569A97AA98BA99CA92D
:1014400020E030E040E251E40E941702DC01CB01D1
:10145000BC01CD010E944100DC01CB019CA78BA700
:101460000FC088EC90E09AA789A789A59AA5019753
:10147000F1F79AA789A78BA59CA501979CA78BA795
:101480008BA59CA5009769F714C06DA57EA58FA5B7
:1014900098A90E944100DC01CB019CA78BA78BA5DA
:1014A0009CA598A78FA38FA198A50197F1F798A75E
:1014B0008FA383E00E941D0D80E090E0A0EAB0E4DD
:1014C0008BA39CA3ADA3BEA36BA17CA18DA19EA168
:1014D00020E030E04AEF54E40E941702DC01CB0127
:1014E0008F8F98A3A9A3BAA36F8D78A189A19AA180
:1014F00020E030E040E85FE30E941D0488232CF4E4
:1015000081E090E09E8F8D8F3FC06F8D78A189A183
:101510009AA120E03FEF4FE757E40E94BD03181661
:101520004CF56BA17CA18DA19EA120E030E040E2B2
:1015300051E40E941702DC01CB01BC01CD010E94E5
:101540004100DC01CB019E8F8D8F0FC088EC90E0B5
:101550009C8F8B8F8B8D9C8D0197F1F79C8F8B8F40
:101560008D8D9E8D01979E8F8D8F8D8D9E8D009779
:1015700069F714C06F8D78A189A19AA10E944100DA
:10158000DC01CB019E8F8D8F8D8D9E8D9A8F898FE3
:10159000898D9A8D0197F1F79A8F898F83E00E9448
:1015A0001D0D80E090E0A8ECB2E48D8B9E8BAF8B9C
:1015B000B88F6D897E898F89988D2BEA3AEA4AE245
:1015C00050E40E941702DC01CB01898B9A8BAB8B14
:1015D000BC8B69897A898B899C8920E030E040E85E
:1015E0005FE30E941D0488231CF481E0888B91C076
:1015F00069897A898B899C8920E030E04FE753E440
:101600000E94BD0318160CF07BC06D897E898F89FE
:10161000988D20E030E04AE754E40E941103DC0199
:10162000CB018C879D87AE87BF876C857D858E8536
:101630009F8520E030E04AEF54E40E941702DC016D
:10164000CB0188879987AA87BB87688579858A8532
:101650009B8520E030E040E85FE30E941D04882382
:101660002CF481E090E09F838E833FC0688579856C
:101670008A859B8520E03FEF4FE757E40E94BD033A
:1016800018164CF56C857D858E859F8520E030E0B1
:1016900040E251E40E941702DC01CB01BC01CD0104
:1016A0000E944100DC01CB019F838E830FC088EC38
:1016B00090E09D838C838C819D810197F1F79D83C0
:1016C0008C838E819F8101979F838E838E819F81E2
:1016D000009769F724C0688579858A859B850E9473
:1016E0004100DC01CB019F838E838E819F819B8390
:1016F0008A838A819B810197F1F79B838A830FC03C
:1017000069897A898B899C890E944100DC01CB011F
:10171000888B8889898389818A95F1F7898383E019
:101720000E941D0D82E00E941D0D88E20E941D0D89
:101730000E94780980E060E00E946C0D8CE00E94BD
:101740001D0DE4960FB6F894DEBF0FBECDBFCF914E
:10175000DF910895DF93CF93CDB7DEB7A6970FB68D
:10176000F894DEBF0FBECDBF81E063E041E00E9490
:10177000681980E090E0A0E8BFE38BA39CA3ADA331
:10178000BEA36BA17CA18DA19EA12BEA3AEA4AE2FD
:1017900050E40E941702DC01CB018F8F98A3A9A30C
:1017A000BAA36F8D78A189A19AA120E030E040E82A
:1017B0005FE30E941D0488231CF481E08E8F91C09A
:1017C0006F8D78A189A19AA120E030E04FE753E422
:1017D0000E94BD0318160CF07BC06BA17CA18DA1EB
:1017E0009EA120E030E04AE754E40E941103DC01AE
:1017F000CB018A8F9B8FAC8FBD8F6A8D7B8D8C8D3B
:101800009D8D20E030E04AEF54E40E941702DC0195
:10181000CB018E8B9F8BA88FB98F6E897F89888D26
:10182000998D20E030E040E85FE30E941D048823AA
:101830002CF481E090E09D8B8C8B3FC06E897F897A
:10184000888D998D20E03FEF4FE757E40E94BD035C
:1018500018164CF56A8D7B8D8C8D9D8D20E030E0C7
:1018600040E251E40E941702DC01CB01BC01CD0132
:101870000E944100DC01CB019D8B8C8B0FC088EC5A
:1018800090E09B8B8A8B8A899B890197F1F79B8BD0
:101890008A8B8C899D8901979D8B8C8B8C899D89E6
:1018A000009769F724C06E897F89888D998D0E9481
:1018B0004100DC01CB019D8B8C8B8C899D89998BA0
:1018C000888B888999890197F1F7998B888B0FC04C
:1018D0006F8D78A189A19AA10E944100DC01CB0102
:1018E0008E8F8E8D8F878F858A95F1F78F8781E018
:1018F00063E040E00E94681980E090E0A0E0B0E47E
:101900008B879C87AD87BE876B857C858D859E8503
:1019100020E030E04AEF54E40E941702DC01CB01E2
:101920008F839887A987BA876F81788589859A85FB
:1019300020E030E040E85FE30E941D0488232CF49F
:1019400081E090E09E838D833FC06F81788589859B
:101950009A8520E03FEF4FE757E40E94BD03181639
:101960004CF56B857C858D859E8520E030E040E2DE
:1019700051E40E941702DC01CB01BC01CD010E94A1
:101980004100DC01CB019E838D830FC088EC90E089
:101990009C838B838B819C810197F1F79C838B8344
:1019A0008D819E8101979E838D838D819E8100977D
:1019B00069F714C06F81788589859A850E944100F6
:1019C000DC01CB019E838D838D819E819A838983E7
:1019D00089819A810197F1F79A838983A6960FB638
:1019E000F894DEBF0FBECDBFCF91DF910895DF9396
:1019F000CF9300D00F92CDB7DEB78B838B818A83D4
:101A00008B818295807F898381E061E041E00E9443
:101A1000681980E060EF4A810E944B1A0E94AA0B6D
:101A200080E060EF49810E944B1A0E94AA0B0F9040
:101A30000F900F90CF91DF910895DF93CF9300D057
:101A40000F92CDB7DEB78B838B818A838B81829592
:101A5000807F898381E061E040E00E94681980E036
:101A600060EF4A810E944B1A0E94AA0B80E060EF4F
:101A700049810E944B1A0E94AA0B0F900F900F9061
:101A8000CF91DF910895DF93CF930F92CDB7DEB75B
:101A9000898389810E94F70C0F90CF91DF9108957F
:101AA000DF93CF9300D0CDB7DEB79A8389830AC086
:101AB000E981FA8180810E94430D89819A81019692
:101AC0009A838983E981FA818081882389F70F903D
:101AD0000F90CF91DF910895DF93CF9300D000D086
:101AE000CDB7DEB789836A838981282F30E03C83B4
:101AF0002B838B819C81009731F02B813C8121309D
:101B0000310531F009C08A8180580E941D0D04C042
:101B10008A8180540E941D0D0F900F900F900F909E
:101B2000CF91DF910895DF93CF9300D0CDB7DEB78B
:101B30009A83898389819A8128EE33E0B9010E94D2
:101B4000F81CCB01805D0E94430D89819A8128EEAB
:101B500033E0B9010E94F81C24E630E0B9010E948C
:101B6000F81CCB01805D0E94430D89819A8128EE8B
:101B700033E0B9010E94F81C24E630E0B9010E946C
:101B8000F81C2AE030E0B9010E94F81CCB01805D0E
:101B90000E94430D89819A8128EE33E0B9010E94A9
:101BA000F81C24E630E0B9010E94F81C2AE030E07D
:101BB000B9010E94F81C805D0E94430D0F900F90A8
:101BC000CF91DF910895DF93CF93CDB7DEB72C97F8
:101BD0000FB6F894DEBF0FBECDBF69877A878B87BB
:101BE0009C8718861F8280E090E0A0E0B0E08B83A5
:101BF0009C83AD83BE831A82198269857A858B8521
:101C00009C850E944100DC01CB0198878F838F81E6
:101C10009885CC01A0E0B0E0BC01CD010E94A104F8
:101C20009B01AC0169857A858B859C850E94B901F1
:101C3000DC01CB018B839C83AD83BE836B817C8174
:101C40008D819E8120E030E048EC52E40E94170232
:101C5000DC01CB01BC01CD010E944100DC01CB01C4
:101C60009A8389838F8198850E94930D8EE20E94CA
:101C7000430D89819A810E94930D2C960FB6F8949A
:101C8000DEBF0FBECDBFCF91DF910895DF93CF931D
:101C900000D000D0CDB7DEB79A83898389819A813D
:101CA00009968331910528F421E030E03C832B83B1
:101CB0000FC089819A812AE030E0B9010E940C1D91
:101CC000CB010E94460E9C012F5F3F4F3C832B832C
:101CD0008B819C810F900F900F900F90CF91DF918F
:101CE0000895DF93CF93CDB7DEB7E1970FB6F894A1
:101CF000DEBF0FBECDBF89ABEBE3F0E089A98083E7
:101D0000A5E3B0E0E5E3F0E080818E7F8C93A5E36E
:101D1000B0E0E5E3F0E080818D7F8C93A5E3B0E057
:101D2000E5E3F0E0808184608C9380E090E0A0EABD
:101D3000B0E48DA79EA7AFA7B8AB6DA57EA58FA574
:101D400098A92BEA3AEA4AE250E40E941702DC0121
:101D5000CB0189A79AA7ABA7BCA769A57AA58BA534
:101D60009CA520E030E040E85FE30E941D0488234A
:101D70001CF481E088A791C069A57AA58BA59CA5D4
:101D800020E030E04FE753E40E94BD0318160CF04A
:101D90007BC06DA57EA58FA598A920E030E04AE71D
:101DA00054E40E941103DC01CB018CA39DA3AEA3DC
:101DB000BFA36CA17DA18EA19FA120E030E04AEFDE
:101DC00054E40E941702DC01CB0188A399A3AAA3C3
:101DD000BBA368A179A18AA19BA120E030E040E8E3
:101DE0005FE30E941D0488232CF481E090E09F8F24
:101DF0008E8F3FC068A179A18AA19BA120E03FEF0F
:101E00004FE757E40E94BD0318164CF56CA17DA165
:101E10008EA19FA120E030E040E251E40E94170231
:101E2000DC01CB01BC01CD010E944100DC01CB01F2
:101E30009F8F8E8F0FC088EC90E09D8F8C8F8C8D44
:101E40009D8D0197F1F79D8F8C8F8E8D9F8D0197C2
:101E50009F8F8E8F8E8D9F8D009769F724C068A10C
:101E600079A18AA19BA10E944100DC01CB019F8F37
:101E70008E8F8E8D9F8D9B8F8A8F8A8D9B8D0197E4
:101E8000F1F79B8F8A8F0FC069A57AA58BA59CA5BA
:101E90000E944100DC01CB0188A788A5898F898D2C
:101EA0008A95F1F7898FA5E3B0E0E5E3F0E0808162
:101EB0008B7F8C9380E090E0A0EAB0E48D8B9E8BCA
:101EC000AF8BB88F6D897E898F89988D2BEA3AEA1E
:101ED0004AE250E40E941702DC01CB01898B9A8B05
:101EE000AB8BBC8B69897A898B899C8920E030E037
:101EF00040E85FE30E941D0488231CF481E0888B86
:101F000091C069897A898B899C8920E030E04FE70C
:101F100053E40E94BD0318160CF07BC06D897E89C6
:101F20008F89988D20E030E04AE754E40E94110345
:101F3000DC01CB018C879D87AE87BF876C857D8553
:101F40008E859F8520E030E04AEF54E40E9417021E
:101F5000DC01CB0188879987AA87BB87688579854B
:101F60008A859B8520E030E040E85FE30E941D0405
:101F700088232CF481E090E09F838E833FC06885A6
:101F800079858A859B8520E03FEF4FE757E40E94E3
:101F9000BD0318164CF56C857D858E859F8520E0E8
:101FA00030E040E251E40E941702DC01CB01BC01A9
:101FB000CD010E944100DC01CB019F838E830FC0C5
:101FC00088EC90E09D838C838C819D810197F1F753
:101FD0009D838C838E819F8101979F838E838E81C9
:101FE0009F81009769F724C0688579858A859B85DC
:101FF0000E944100DC01CB019F838E838E819F81F3
:102000009B838A838A819B810197F1F79B838A83D3
:102010000FC069897A898B899C890E944100DC0103
:10202000CB01888B8889898389818A95F1F7898397
:10203000E1960FB6F894DEBF0FBECDBFCF91DF9112
:102040000895DF93CF93CDB7DEB7E1970FB6F8943D
:10205000DEBF0FBECDBF89ABEBE3F0E089A9808383
:10206000A5E3B0E0E5E3F0E0808181608C93A5E337
:10207000B0E0E5E3F0E080818D7F8C93A5E3B0E0F4
:10208000E5E3F0E0808184608C9380E090E0A0EA5A
:10209000B0E48DA79EA7AFA7B8AB6DA57EA58FA511
:1020A00098A92BEA3AEA4AE250E40E941702DC01BE
:1020B000CB0189A79AA7ABA7BCA769A57AA58BA5D1
:1020C0009CA520E030E040E85FE30E941D048823E7
:1020D0001CF481E088A791C069A57AA58BA59CA571
:1020E00020E030E04FE753E40E94BD0318160CF0E7
:1020F0007BC06DA57EA58FA598A920E030E04AE7BA
:1021000054E40E941103DC01CB018CA39DA3AEA378
:10211000BFA36CA17DA18EA19FA120E030E04AEF7A
:1021200054E40E941702DC01CB0188A399A3AAA35F
:10213000BBA368A179A18AA19BA120E030E040E87F
:102140005FE30E941D0488232CF481E090E09F8FC0
:102150008E8F3FC068A179A18AA19BA120E03FEFAB
:102160004FE757E40E94BD0318164CF56CA17DA102
:102170008EA19FA120E030E040E251E40E941702CE
:10218000DC01CB01BC01CD010E944100DC01CB018F
:102190009F8F8E8F0FC088EC90E09D8F8C8F8C8DE1
:1021A0009D8D0197F1F79D8F8C8F8E8D9F8D01975F
:1021B0009F8F8E8F8E8D9F8D009769F724C068A1A9
:1021C00079A18AA19BA10E944100DC01CB019F8FD4
:1021D0008E8F8E8D9F8D9B8F8A8F8A8D9B8D019781
:1021E000F1F79B8F8A8F0FC069A57AA58BA59CA557
:1021F0000E944100DC01CB0188A788A5898F898DC9
:102200008A95F1F7898FA5E3B0E0E5E3F0E08081FE
:102210008B7F8C9380E090E0A0EAB0E48D8B9E8B66
:10222000AF8BB88F6D897E898F89988D2BEA3AEABA
:102230004AE250E40E941702DC01CB01898B9A8BA1
:10224000AB8BBC8B69897A898B899C8920E030E0D3
:1022500040E85FE30E941D0488231CF481E0888B22
:1022600091C069897A898B899C8920E030E04FE7A9
:1022700053E40E94BD0318160CF07BC06D897E8963
:102280008F89988D20E030E04AE754E40E941103E2
:10229000DC01CB018C879D87AE87BF876C857D85F0
:1022A0008E859F8520E030E04AEF54E40E941702BB
:1022B000DC01CB0188879987AA87BB8768857985E8
:1022C0008A859B8520E030E040E85FE30E941D04A2
:1022D00088232CF481E090E09F838E833FC0688543
:1022E00079858A859B8520E03FEF4FE757E40E9480
:1022F000BD0318164CF56C857D858E859F8520E085
:1023000030E040E251E40E941702DC01CB01BC0145
:10231000CD010E944100DC01CB019F838E830FC061
:1023200088EC90E09D838C838C819D810197F1F7EF
:102330009D838C838E819F8101979F838E838E8165
:102340009F81009769F724C0688579858A859B8578
:102350000E944100DC01CB019F838E838E819F818F
:102360009B838A838A819B810197F1F79B838A8370
:102370000FC069897A898B899C890E944100DC01A0
:10238000CB01888B8889898389818A95F1F7898334
:10239000E1960FB6F894DEBF0FBECDBFCF91DF91AF
:1023A0000895DF93CF93CDB7DEB72E970FB6F8948D
:1023B000DEBF0FBECDBFEAE3F0E08FEF8083E4E342
:1023C000F0E08FEF8083A5E3B0E0E5E3F0E080810B
:1023D00088638C9380E090E0A0EAB1E48B879C87CF
:1023E000AD87BE876B857C858D859E8520E030E03E
:1023F0004AEF54E40E941702DC01CB018F839887D7
:10240000A987BA876F81788589859A8520E030E031
:1024100040E85FE30E941D0488232CF481E090E0F3
:102420009E838D833FC06F81788589859A8520E062
:102430003FEF4FE757E40E94BD0318164CF56B853C
:102440007C858D859E8520E030E040E251E40E944D
:102450001702DC01CB01BC01CD010E944100DC016F
:10246000CB019E838D830FC088EC90E09C838B838F
:102470008B819C810197F1F79C838B838D819E8159
:1024800001979E838D838D819E81009769F714C08B
:102490006F81788589859A850E944100DC01CB0196
:1024A0009E838D838D819E819A83898389819A8180
:1024B0000197F1F79A8389838EE30E94710E80E47D
:1024C0000E94710E88EB0E94710E80EC0E94710ECA
:1024D0008FE30E94710E2E960FB6F894DEBF0FBEEA
:1024E000CDBFCF91DF910895DF93CF9300D000D07F
:1024F00000D0CDB7DEB7A5E3B0E0E5E3F0E0808142
:1025000080618C93A5E3B0E0E5E3F0E08081877F14
:102510008C931A82198234C01E821D8219C08D814B
:1025200088540E94710E1C821B8208C080E00E94A9
:1025300021108B819C8101969C838B838B819C8154
:10254000803491059CF38D819E8101969E838D83BD
:102550008D819E818830910514F3A5E3B0E0E5E319
:10256000F0E0808188608C93A5E3B0E0E5E3F0E0E3
:1025700080818F7E8C9389819A8101969A83898349
:1025800089819A81823091053CF280E40E94710E2B
:1025900088EB0E94710E26960FB6F894DEBF0FBE30
:1025A000CDBFCF91DF910895DF93CF930F92CDB739
:1025B000DEB789838981882379F4A5E3B0E0E5E378
:1025C000F0E0808180618C93A5E3B0E0E5E3F0E08A
:1025D0008081877F8C930EC0A5E3B0E0E5E3F0E057
:1025E000808188608C93A5E3B0E0E5E3F0E0808132
:1025F0008F7E8C930F90CF91DF9108950F93DF938F
:10260000CF93CDB7DEB72C970FB6F894DEBF0FBED1
:10261000CDBF8B837D836C835F834E83398728870F
:102620000A878A850E94D4128B81282F30E03C874C
:102630002B878B859C858130910571F02B853C859E
:102640002230310589F48E8188540E94710E8C816C
:10265000805C0E94710E08C08E8187540E94710EAA
:102660008C81805C0E94710E1A82198208C080E001
:102670000E94211089819A8101969A8389832981F8
:102680003A8188859985281739078CF380E40E9460
:10269000710E2C960FB6F894DEBF0FBECDBFCF9152
:1026A000DF910F910895DF93CF9300D000D00F9268
:1026B000CDB7DEB79A8389837C836B834D838D810D
:1026C0000E94D4128981805C0E94710E8B81885493
:1026D0000E94710E0F900F900F900F900F90CF915E
:1026E000DF9108950F931F93DF93CF93CDB7DEB79C
:1026F0002F970FB6F894DEBF0FBECDBF8D877F87B3
:102700006E878D85882F90E088549F4F98878F83A0
:102710001E821D8280E090E0A0E0BFE389839A835F
:10272000AB83BC8380E00E94D4128F810E94710E23
:102730001C861B8616C28D85882F90E09695982F53
:10274000882797958795909581959F4F85509C4FA9
:102750009C018D819E812817390708F40DC22E85B2
:102760003F858B859C85F901E80FF91F80818032B8
:1027700009F480C081E090E09A87898775C02D8137
:102780003E8189859A858901080F191F69817A819F
:102790008B819C8120E030E040E05FE30E94EA0111
:1027A000DC01CB01BC01CD010E944D04DC01CB0159
:1027B0009695982F8827979587950817190709F0F8
:1027C0004EC089859A858530910509F453C080E40F
:1027D0000E94710E2D813E8189859A85820F931FFB
:1027E0009E838D83A5E3B0E0E5E3F0E0908188E08F
:1027F00089278C93A5E3B0E0E5E3F0E0908180E1E8
:1028000089278C938F819885CC01A0E0B0E0BC0132
:10281000CD010E94A104DC01CB01BC01CD012981C5
:102820003A814B815C810E94EA01DC01CB01BC0151
:10283000CD010E944100DC01CB010E94710E698133
:102840007A818B819C8120E030E040E05FE30E9450
:10285000EA01DC01CB0189839A83AB83BC83898540
:102860009A8501969A87898789859A858630910508
:1028700008F485CF8D85882F90E09695982F88272E
:1028800097958795909581959F4F85509C4F9C017A
:102890008D819E812817390708F46EC12E853F85EA
:1028A0008B859C85F901E80FF91F8081282F30E086
:1028B000C901880F991F820F931F880F991F880FD6
:1028C000991F880F991F820F931F8C50934081533B
:1028D0009E4F009759F02E853F858B859C85F90189
:1028E000E80FF91F8081803209F076C01A861986B8
:1028F0006CC02E853F858B859C85F901E80FF91FFB
:102900008081882F90E09C012052304049855A8573
:10291000C901880F991F880F991F820F931F840F79
:10292000951FFC01E153FE4F80810E9421108D8193
:102930009E8101968F7390700097E9F5A5E3B0E052
:10294000E5E3F0E0908188E089278C93A5E3B0E08F
:10295000E5E3F0E0908180E189278C938F81988571
:10296000CC01A0E0B0E0BC01CD010E94A104DC01DB
:10297000CB01BC01CD0129813A814B815C810E9450
:10298000EA01DC01CB01BC01CD010E944100DC0168
:10299000CB010E94710E69817A818B819C8120E03C
:1029A00030E040E05FE30E94EA01DC01CB01898373
:1029B0009A83AB83BC838D819E8101969E838D8398
:1029C00089859A8501969A87898789859A85853030
:1029D000910508F48ECFC0C01A8619866CC02E856A
:1029E0003F858B859C85F901E80FF91F8081882F31
:1029F00090E09C012052304049855A85C901880FDA
:102A0000991F880F991F820F931F840F951FFC0138
:102A1000E153FE4F80810E9421108D819E8101969D
:102A20008F7390700097E9F5A5E3B0E0E5E3F0E07F
:102A3000908188E089278C93A5E3B0E0E5E3F0E09E
:102A4000908180E189278C938F819885CC01A0E0CB
:102A5000B0E0BC01CD010E94A104DC01CB01BC01AE
:102A6000CD0129813A814B815C810E94EA01DC0120
:102A7000CB01BC01CD010E944100DC01CB010E94D1
:102A8000710E69817A818B819C8120E030E040E089
:102A90005FE30E94EA01DC01CB0189839A83AB8367
:102AA000BC838D819E8101969E838D8389859A85C5
:102AB00001969A87898789859A858530910508F4DA
:102AC0008ECF80E00E9421108D819E8101969E8391
:102AD0008D838D819E818F7390700097E9F5A5E3BA
:102AE000B0E0E5E3F0E0908188E089278C93A5E3EE
:102AF000B0E0E5E3F0E0908180E189278C938F815D
:102B00009885CC01A0E0B0E0BC01CD010E94A104F9
:102B1000DC01CB01BC01CD0129813A814B815C8173
:102B20000E94EA01DC01CB01BC01CD010E94410001
:102B3000DC01CB010E94710E69817A818B819C81BD
:102B400020E030E040E05FE30E94EA01DC01CB01DD
:102B500089839A83AB83BC838B859C8501969C87F4
:102B60008B872E853F858B859C85F901E80FF91FA2
:102B70008081882309F0DFCD80E40E94710E2F96BA
:102B80000FB6F894DEBF0FBECDBFCF91DF911F917E
:102B90000F9108950F93DF93CF93CDB7DEB72E97A4
:102BA0000FB6F894DEBF0FBECDBF8D837F836E83DB
:102BB000598748873B872A870C871C821B828C8514
:102BC0000E94D412888588540E94710E8E81805C88
:102BD0000E94710E1A8219823DC08D81282F30E02B
:102BE0003E872D878D859E858130910531F12D851C
:102BF0003E8522303105C1F08D859E85009729F5EF
:102C00008FEF0E9421108E81805C0E94710E8FEFE9
:102C10000E942110888588540E94710E8B819C81AE
:102C200001969C838B8311C08B819C8101969C8330
:102C30008B8380E80E94211008C08B819C810196C3
:102C40009C838B8381E00E94211089819A81019667
:102C50009A83898329813A818A859B852817390738
:102C60000CF4BBCF80E40E94710E8B819C812E9668
:102C70000FB6F894DEBF0FBECDBFCF91DF910F919D
:102C800008950F931F93DF93CF93CDB7DEB7CE5840
:102C9000D0400FB6F894DEBF0FBECDBFFE01E757A0
:102CA000FF4F91838083FE01E557FF4F718360835F
:102CB000FE01E357FF4F5183408300D000D000D086
:102CC000ADB7BEB71196CE01019611969C938E9327
:102CD00080E690E013969C938E931297FE01E7573F
:102CE000FF4F8081918115969C938E9314970E943B
:102CF0007A1D8DB79EB706960FB6F8949EBF0FBE8D
:102D00008DBF00D000D000D0ADB7BEB71196CE01B8
:102D1000059611969C938E9380E690E013969C9373
:102D20008E931297FE01E557FF4F80819181159692
:102D30009C938E9314970E947A1DADB7BEB71696DA
:102D40000FB6F894BEBF0FBEADBF19861A861B869C
:102D50001C868CE7FE013D96DF01982F1D929A9507
:102D6000E9F78E01075F1F4FCE0109960E94711D82
:102D7000800F911F23E630E0B90143E050E00E944C
:102D8000561DCE0109969E012F5F3F4FB9010E944B
:102D90005F1DCE01099626E630E0B9010E945F1D55
:102DA000CE010996FE01E357FF4F20813181B90121
:102DB0000E945F1DCE0109962BE630E0B9010E940A
:102DC0005F1DCE0109969E012B5F3F4FB9010E9406
:102DD0005F1DCE01099621E730E0B9010E945F1D19
:102DE000CE010996C257DF4F0FB6F894DEBF0FBE73
:102DF000CDBFCF91DF911F910F9108950F93DF9376
:102E0000CF93CDB7DEB72B970FB6F894DEBF0FBECA
:102E1000CDBF9E838D8378876F8388E78C831B82E9
:102E20001A8280E889838F81988584369105E9F438
:102E300081E060E070E043E050E020E430E00A81AF
:102E40000E94CA1519868A81882311F421E02987F6
:102E500049854A8381E060E070E043E050E020E48F
:102E600030E00A810E94CA1582C08F819885009740
:102E7000E9F482E060E070E045E050E020E430E01A
:102E80000A810E94CA151A868A81882311F451E0AA
:102E90005A878A858A8382E060E070E045E050E0EE
:102EA00020E430E00A810E94CA1561C080E060E041
:102EB00070E044E050E021E030E00A810E94CA1551
:102EC000982F8B81890F8B8399818B81292F281BC8
:102ED000822F89838981282F30E08C81882F90E090
:102EE000A901481B590BCA018134910594F59981B8
:102EF0008C81592F581B852F898390E48B81292F32
:102F0000281B822F8C838B81282F30E08C81E82F27
:102F1000F0E081E0B90143E050E09F010A810E94A6
:102F2000CA151B868A81882311F441E04B875B8593
:102F30005A831B828B81282F30E08981E82FF0E0B3
:102F400081E0B90143E050E09F010A810E94CA1567
:102F50000EC08B81282F30E08C81E82FF0E081E0DB
:102F6000B90143E050E09F010A810E94CA152B96E7
:102F70000FB6F894DEBF0FBECDBFCF91DF910F919A
:102F800008950F93DF93CF93CDB7DEB7C35AD040E8
:102F90000FB6F894DEBF0FBECDBF82E08A8790E8FF
:102FA0008A85292F281B822F898780E190E09887C6
:102FB0008F8382E390E09E838D838AE590E09C83FB
:102FC0008B831A821982CE010B96C156DF4F9983EB
:102FD0008883CF59D040A3E7B0E0CF55DF4FB98306
:102FE000A883C15AD040B5E0CD55DF4FB883C35A4E
:102FF000D040CF55DF4FE881F981C15AD0400080E1
:10300000CF55DF4F88819981C15AD0400196CF5565
:10301000DF4F99838883C15AD040C156DF4FA881C2
:10302000B981CF59D0400C92C156DF4FE881F98168
:10303000CF59D0403196C156DF4FF983E883CF593D
:10304000D040CD55DF4FF881C35AD040F150CD5517
:10305000DF4FF883C35AD040CD55DF4F2881C35A84
:10306000D040222331F68FE0FE017096DF01282F39
:103070001D922A95E9F70E94D1110E94741280E2F4
:1030800090E060E270E00E945F1D8F8198852D8145
:103090003E81AE01455F5F4FB9010E9441169C0120
:1030A000CE014F96B9010E946A1D9E01215E3F4FDD
:1030B00080E0B9010E94721381E060E070E043E0BB
:1030C00050E028E030E000E00E94CA1582E068E0AD
:1030D00070E043E050E028E030E000E00E94CA15D4
:1030E00081E060E170E043E050E028E030E000E0A3
:1030F0000E94CA1582E068E170E043E050E028E0F9
:1031000030E000E00E94CA15BACFDF93CF9300D021
:1031100000D00F92CDB7DEB789836A834B83898154
:10312000282F30E03D832C838C819D818130910557
:1031300009F443C02C813D81223031052CF48C816F
:103140009D81009771F0BCC02C813D8122303105FA
:1031500009F45FC08C819D818330910509F485C09D
:10316000AFC08B818823A9F4AAE3B0E0EAE3F0E0E2
:103170008081482F8A81282F30E081E090E0022E64
:1031800002C0880F991F0A94E2F7809584238C93DC
:1031900097C0AAE3B0E0EAE3F0E08081482F8A819B
:1031A000282F30E081E090E0022E02C0880F991FA6
:1031B0000A94E2F7842B8C9383C08B818823A9F433
:1031C000A7E3B0E0E7E3F0E08081482F8A81282F71
:1031D00030E081E090E0022E02C0880F991F0A942F
:1031E000E2F7809584238C936BC0A7E3B0E0E7E31C
:1031F000F0E08081482F8A81282F30E081E090E044
:10320000022E02C0880F991F0A94E2F7842B8C9338
:1032100057C08B818823A9F4A4E3B0E0E4E3F0E095
:103220008081482F8A81282F30E081E090E0022EB3
:1032300002C0880F991F0A94E2F7809584238C932B
:103240003FC0A4E3B0E0E4E3F0E08081482F8A814E
:10325000282F30E081E090E0022E02C0880F991FF5
:103260000A94E2F7842B8C932BC08B818823A9F4DA
:10327000A1E3B0E0E1E3F0E08081482F8A81282FCC
:1032800030E081E090E0022E02C0880F991F0A947E
:10329000E2F7809584238C9313C0A1E3B0E0E1E3CF
:1032A000F0E08081482F8A81282F30E081E090E093
:1032B000022E02C0880F991F0A94E2F7842B8C9388
:1032C0000F900F900F900F900F90CF91DF91089576
:1032D000DF93CF9300D000D00F92CDB7DEB78983B4
:1032E0006A834B838981282F30E03D832C838C8136
:1032F0009D818130910509F443C02C813D812230AC
:1033000031052CF48C819D81009771F0BCC02C811B
:103310003D812230310509F45FC08C819D8183306D
:10332000910509F485C0AFC08B818130A1F4ABE376
:10333000B0E0EBE3F0E08081482F8A81282F30E075
:1033400081E090E0022E02C0880F991F0A94E2F7F4
:10335000842B8C9398C0ABE3B0E0EBE3F0E080818A
:10336000482F8A81282F30E081E090E0022E02C0B1
:10337000880F991F0A94E2F7809584238C9383C069
:103380008B818130A1F4A8E3B0E0E8E3F0E0808134
:10339000482F8A81282F30E081E090E0022E02C081
:1033A000880F991F0A94E2F7842B8C936CC0A8E3D2
:1033B000B0E0E8E3F0E08081482F8A81282F30E0F8
:1033C00081E090E0022E02C0880F991F0A94E2F774
:1033D000809584238C9357C08B818130A1F4A5E321
:1033E000B0E0E5E3F0E08081482F8A81282F30E0CB
:1033F00081E090E0022E02C0880F991F0A94E2F744
:10340000842B8C9340C0A5E3B0E0E5E3F0E080813D
:10341000482F8A81282F30E081E090E0022E02C000
:10342000880F991F0A94E2F7809584238C932BC010
:103430008B818130A1F4A2E3B0E0E2E3F0E080818F
:10344000482F8A81282F30E081E090E0022E02C0D0
:10345000880F991F0A94E2F7842B8C9314C0A2E37F
:10346000B0E0E2E3F0E08081482F8A81282F30E04D
:1034700081E090E0022E02C0880F991F0A94E2F7C3
:10348000809584238C930F900F900F900F900F9046
:10349000CF91DF910895DF93CF9300D000D00F92AA
:1034A000CDB7DEB789836A834B838981282F30E0CB
:1034B0003D832C838C819D818130910559F12C8134
:1034C0003D81223031052CF48C819D81009769F07B
:1034D0005FC02C813D812230310589F18C819D8135
:1034E0008330910509F440C053C0ABE3B0E0EBE397
:1034F000F0E08081982F8A81809589238C93ABE3BB
:10350000B0E0EBE3F0E020819B818A818923822B6C
:103510008C933EC0A8E3B0E0E8E3F0E08081982F10
:103520008A81809589238C93A8E3B0E0E8E3F0E0FA
:1035300020819B818A818923822B8C9329C0A5E3DA
:10354000B0E0E5E3F0E08081982F8A8180958923BF
:103550008C93A5E3B0E0E5E3F0E020819B818A81D4
:103560008923822B8C9314C0A2E3B0E0E2E3F0E065
:103570008081982F8A81809589238C93A2E3B0E083
:10358000E2E3F0E020819B818A818923822B8C9366
:103590000F900F900F900F900F90CF91DF910895A3
:1035A000DF93CF9300D000D0CDB7DEB789836A8395
:1035B0008981282F30E03C832B838B819C81813053
:1035C000910549F12B813C81223031052CF48B810E
:1035D0009C81009761F05AC02B813C8122303105DB
:1035E00071F18B819C8183309105E9F14FC0ABE390
:1035F000B0E0EBE3F0E08081482F8A81282F30E0B3
:1036000081E090E0022E02C0880F991F0A94E2F731
:1036100084278C933BC0A8E3B0E0E8E3F0E080812E
:10362000482F8A81282F30E081E090E0022E02C0EE
:10363000880F991F0A94E2F784278C9327C0A5E38B
:10364000B0E0E5E3F0E08081482F8A81282F30E068
:1036500081E090E0022E02C0880F991F0A94E2F7E1
:1036600084278C9313C0A2E3B0E0E2E3F0E0808112
:10367000482F8A81282F30E081E090E0022E02C09E
:10368000880F991F0A94E2F784278C930F900F906C
:103690000F900F90CF91DF910895DF93CF9300D0DB
:1036A00000D00F92CDB7DEB78A836B8319828A81EF
:1036B000282F30E03D832C834C815D8141305105C2
:1036C00079F18C819D818230910534F42C813D818A
:1036D0002115310569F06BC04C815D814230510587
:1036E000B9F18C819D818330910509F449C05FC097
:1036F000E9E3F0E08081282F30E08B81882F90E093
:10370000A90102C0559547958A95E2F7CA018170D3
:103710009070882319F081E0898349C0198247C0DD
:10372000E6E3F0E08081282F30E08B81882F90E065
:10373000A90102C0559547958A95E2F7CA018170A3
:103740009070882319F081E0898331C019822FC0DD
:10375000E3E3F0E08081282F30E08B81882F90E038
:10376000A90102C0559547958A95E2F7CA01817073
:103770009070882319F081E0898319C0198217C0DD
:10378000E0E3F0E08081282F30E08B81882F90E00B
:10379000A90102C0559547958A95E2F7CA01817043
:1037A0009070882319F081E0898301C01982898192
:1037B0000F900F900F900F900F90CF91DF91089581
:1037C000DF93CF93CDB7DEB780E063E041E00E94A6
:1037D0008518CF91DF910895DF93CF93CDB7DEB7F2
:1037E00080E063E041E00E946819CF91DF91089585
:1037F000DF93CF93CDB7DEB780E063E040E00E9477
:103800006819CF91DF910895DF93CF93CDB7DEB7DD
:1038100080E063E00E94D01ACF91DF910895DF939A
:10382000CF930F92CDB7DEB7198280E063E00E949C
:103830004D1B813019F481E0898301C0198289818F
:103840000F90CF91DF910895DF93CF93CDB7DEB77F
:1038500081E060E040E00E94851883E066E040E09F
:103860000E94851883E062E040E00E948518CF91B5
:10387000DF910895DF93CF9300D000D0CDB7DEB7AE
:103880008A8319828A81282F30E03C832B838B81A5
:103890009C8181309105A1F02B813C812230310542
:1038A000D1F08B819C81009701F581E060E00E945E
:1038B0004D1B813019F481E0898317C0198215C02E
:1038C00083E066E00E944D1B813019F481E089831A
:1038D0000CC019820AC083E062E00E944D1B813057
:1038E00019F481E0898301C0198289810F900F90BA
:1038F0000F900F90CF91DF910895DF93CF93CDB7C5
:10390000DEB7E3E5F0E0A3E5B0E08C918083CF91F2
:10391000DF910895DF93CF930F92CDB7DEB7898300
:10392000A3E5B0E0E3E5F0E090818981892B8C93F9
:103930000F90CF91DF910895DF93CF93CDB7DEB78E
:10394000A3E5B0E0E3E5F0E080818C7F8C93CF913C
:10395000DF910895DF93CF930F92CDB7DEB78983C0
:10396000E2E5F0E0898180830F90CF91DF910895A7
:10397000DF93CF93CDB7DEB7E2E5F0E08081CF9162
:10398000DF910895DF93CF93CDB7DEB7A9E5B0E01F
:10399000E9E5F0E0808181608C93CF91DF9108951B
:1039A000DF93CF93CDB7DEB7A9E5B0E0E9E5F0E06E
:1039B00080818E7F8C93CF91DF910895DF93CF9399
:1039C0000F92CDB7DEB78983ECE5F0E08981808383
:1039D0000F90CF91DF910895991B79E004C0991F52
:1039E000961708F0961B881F7A95C9F78095089559
:1039F000AA1BBB1B51E107C0AA1FBB1FA617B70715
:103A000010F0A61BB70B881F991F5A95A9F7809530
:103A10009095BC01CD01089597FB092E07260AD089
:103A200077FD04D0E5DF06D000201AF4709561958B
:103A30007F4F0895F6F7909581959F4F08952F92A7
:103A40003F924F925F926F927F928F929F92AF922E
:103A5000BF92CF92DF92EF92FF920F931F93CF937B
:103A6000DF93CDB7DEB7CA1BDB0B0FB6F894DEBF12
:103A70000FBECDBF09942A88398848885F846E8438
:103A80007D848C849B84AA84B984C884DF80EE8082
:103A9000FD800C811B81AA81B981CE0FD11D0FB68B
:103AA000F894DEBF0FBECDBFED010895FB01DC0130
:103AB00002C001900D9241505040D8F70895FB018B
:103AC000DC010D900020E9F7119701900D92002084
:103AD000E1F70895FB01DC0101900D920020E1F770
:103AE0000895FC0101900020E9F7809590958E0FD4
:103AF0009F1F0895AEE0B0E0E0E8FDE10C942D1DBD
:103B00000D891E8986E08C831A8309838FEF9FE7D6
:103B10009E838D839E01275E3F4FCE0101966F8964
:103B2000788DA9010E949E1D2F813885020F131FD9
:103B3000F80110822E96E4E00C94491DABE0B0E051
:103B4000E4EAFDE10C941F1D3C012B015A01FC012C
:103B500017821682838181FD03C06FEF7FEFC6C19C
:103B60009AE0892E1E010894211C311CF301238147
:103B7000F20123FD859123FF81912F01882309F410
:103B8000B2C1853239F423FD859123FF81912F0144
:103B9000853229F490E0B3010E94911FE7CF982F5E
:103BA000FF24EE249924FFE1FF15D0F09B3269F049
:103BB0009C3228F4903259F0933291F40EC09D3229
:103BC00049F0903369F441E024C052E0F52A84E0E2
:103BD000F82A28C098E0F92A25C0E0E1FE2A22C090
:103BE000F7FC29C0892F80538A3070F4F6FE05C097
:103BF000989C902C1124980E15C0E89CE02C112460
:103C0000E80EF0E2FF2A0EC09E3229F4F6FC6BC1EA
:103C100040E4F42A07C09C3619F450E8F52A02C0A3
:103C2000983649F4F20123FD959123FF91912F01DC
:103C3000992309F0B8CF892F8554833018F080522A
:103C4000833038F444E050E0A40EB51E5FE359839E
:103C50000FC0933631F0933779F0933509F056C0A1
:103C600020C0F5018081898342E050E0A40EB51E9A
:103C7000610101E010E012C0F501C080D180F6FCC6
:103C800003C06FEF7FEF02C0692D70E042E050E0AB
:103C9000A40EB51EC6010E94861F8C015FE7F522A7
:103CA00014C0F501C080D180F6FC03C06FEF7FEF38
:103CB00002C0692D70E042E050E0A40EB51EC601BE
:103CC0000E947B1F8C0150E8F52AF3FE07C01AC042
:103CD00080E290E0B3010E94911FEA948E2D90E063
:103CE00008171907A8F30EC0F601F7FC8591F7FE37
:103CF00081916F0190E0B3010E94911FE110EA945D
:103D0000015010400115110579F7EAC0943611F001
:103D1000993669F5F7FE08C0F501208131814281AD
:103D2000538184E090E00AC0F501808191819C017B
:103D3000442737FD4095542F82E090E0A80EB91E2D
:103D40009FE6F92257FF09C050954095309521957F
:103D50003F4F4F4F5F4FE0E8FE2ACA01B901A10172
:103D60002AE030E00E94BD1FD82ED21840C09537FF
:103D700029F41F2D1F7E2AE030E01DC01F2D197F62
:103D80009F3661F0903720F4983509F0ACC00FC031
:103D9000903739F0983709F0A6C004C028E030E029
:103DA0000AC0106114FD146020E130E004C014FD6D
:103DB000166020E132E017FF08C0F50160817181D3
:103DC0008281938144E050E008C0F50180819181B7
:103DD000BC0180E090E042E050E0A40EB51EA101DD
:103DE0000E94BD1FD82ED2188FE7F82EF122F6FEC2
:103DF0000BC05EEFF522D91438F4F4FE07C0F2FCD4
:103E000005C08FEEF82202C01D2D01C0192DF4FE51
:103E10000DC0FE01ED0DF11D8081803319F499EE86
:103E2000F92208C01F5FF2FE05C003C08F2D8678FF
:103E300009F01F5F0F2DF3FC14C0F0FE0FC01E151C
:103E400010F09D2C0BC09D2C9E0C911A1E2D06C0AF
:103E500080E290E0B3010E94911F1F5F1E15C0F326
:103E600004C01E1510F4E11A01C0EE2404FF0FC0B7
:103E700080E390E0B3010E94911F02FF1DC001FD8D
:103E800003C088E790E00EC088E590E00BC0802F6B
:103E9000867891F001FF02C08BE201C080E2F7FC5E
:103EA0008DE290E0B3010E94911F06C080E390E094
:103EB000B3010E94911F9A94D914C0F3DA94F101CE
:103EC000ED0DF11D808190E0B3010E94911FDD2076
:103ED000A9F706C080E290E0B3010E94911FEA9426
:103EE000EE20C1F743CEF30166817781CB012B969B
:103EF000E2E10C943B1DFC01059061507040011003
:103F0000D8F7809590958E0F9F1F0895FC01615002
:103F1000704001900110D8F7809590958E0F9F1FEB
:103F200008950F931F93CF93DF938C01EB018B8147
:103F300081FF1BC082FF0DC02E813F818C819D813E
:103F40002817390764F4E881F9810193F983E8833C
:103F500006C0E885F985802F0995892B31F48E817B
:103F60009F8101969F838E8302C00FEF1FEFC801D0
:103F7000DF91CF911F910F910895FA01AA27283060
:103F800051F1203181F1E8946F936E7F6E5F7F4F26
:103F90008F4F9F4FAF4FB1E03ED0B4E03CD0670FA2
:103FA000781F891F9A1FA11D680F791F8A1F911DF5
:103FB000A11D6A0F711D811D911DA11D20D009F445
:103FC00068943F912AE0269F11243019305D319387
:103FD000DEF6CF010895462F4770405D4193B3E070
:103FE0000FD0C9F7F6CF462F4F70405D4A3318F017
:103FF000495D31FD4052419302D0A9F7EACFB4E0C8
:10400000A6959795879577956795BA95C9F700977F
:104010006105710508959B01AC010A2E0694579520
:10402000479537952795BA95C9F7620F731F841F77
:0A403000951FA01D0895F894FFCF1E
:10403A00256400463A00204B487A00447574793A60
:10404A0000250020202020000000000000000000C1
:10405A000000000000000000000000000000000056
:10406A000102020303030304040404040404040510
:10407A0005050505050505050505050505050506E5
:10408A0006060606060606060606060606060606C6
:10409A0006060606060606060606060606060607B5
:1040AA000707070707070707070707070707070796
:1040BA000707070707070707070707070707070786
:1040CA000707070707070707070707070707070776
:1040DA000707070707070707070707070707070865
:1040EA000808080808080808080808080808080846
:1040FA000808080808080808080808080808080836
:10410A000808080808080808080808080808080825
:10411A000808080808080808080808080808080815
:10412A000808080808080808080808080808080805
:10413A0008080808080808080808080808080808F5
:10414A0008080808080808080808080808080808E5
:10415A000808080808080808080808080808080AD3
:10416A001F1F1F1F0E0400041F11111111111F041C
:10417A001F111111111F1F041F1111111F1F1F04DD
:10418A001F11111F1F1F1F041F111F1F1F1F1F0495
:10419A001F1F1F1F1F1F1F00000101050515150006
:1041AA000000000000005F00000007000700147F05
:1041BA00147F14242A7F2A1223130864623649556D
:1041CA0022500005030000001C2241000041221C6D
:1041DA000014083E081408083E0808005030000081
:1041EA000808080808006060000020100804023E61
:1041FA005149453E00427F400042615149462141B2
:10420A00454B311814127F1027454545393C4A4918
:10421A004930017109050336494949360649492990
:10422A001E003636000000563600000814224100EF
:10423A0014141414140041221408020151090632FC
:10424A004979413E7E1111117E7F494949363E41E5
:10425A004141227F4141221C7F494949417F090945
:10426A0009013E4149497A7F0808087F00417F4198
:10427A00002040413F017F081422417F40404040D6
:10428A007F020C027F7F0408107F3E4141413E7F3E
:10429A00090909063E4151215E7F09192946464905
:1042AA0049493101017F01013F4040403F1F204001
:1042BA00201F3F4038403F63140814630708700802
:1042CA00076151494543007F41410002040810201B
:1042DA000041417F00040201020440404040400086
:1042EA000102040020545454787F48444438384426
:1042FA00444420384444487F3854545418087E09AA
:10430A0001020C5252523E7F0804047800447D4058
:10431A00002040443D007F1028440000417F4000B7
:10432A007C041804787C0804047838444444387CB3
:10433A0014141408081414187C7C0804040848543B
:10434A00545420043F4440203C4040207C1C2040E0
:10435A00201C3C4030403C44281028440C5050500B
:10436A003C4464544C44000836410000007F00007D
:10437A0000413608001008081008784641467800BF
:00000001FF
